
mini_robot.elf:     file format elf32-littlearm

Sections:
Idx Name          Size      VMA       LMA       File off  Algn
  0 .isr_vector   00000188  08000000  08000000  00010000  2**0
                  CONTENTS, ALLOC, LOAD, READONLY, DATA
  1 .text         00009fdc  08000190  08000190  00010190  2**4
                  CONTENTS, ALLOC, LOAD, READONLY, CODE
  2 .rodata       00000388  0800a170  0800a170  0001a170  2**3
                  CONTENTS, ALLOC, LOAD, READONLY, DATA
  3 .ARM.extab    00000000  0800a4f8  0800a4f8  00022b88  2**0
                  CONTENTS
  4 .ARM          00000008  0800a4f8  0800a4f8  0001a4f8  2**2
                  CONTENTS, ALLOC, LOAD, READONLY, DATA
  5 .preinit_array 00000000  0800a500  0800a500  00022b88  2**0
                  CONTENTS, ALLOC, LOAD, DATA
  6 .init_array   00000004  0800a500  0800a500  0001a500  2**2
                  CONTENTS, ALLOC, LOAD, DATA
  7 .fini_array   00000004  0800a504  0800a504  0001a504  2**2
                  CONTENTS, ALLOC, LOAD, DATA
  8 .data         00002b88  20000000  0800a508  00020000  2**3
                  CONTENTS, ALLOC, LOAD, DATA
  9 .bss          00000984  20002b88  0800d090  00022b88  2**3
                  ALLOC
 10 ._user_heap_stack 00001e04  2000350c  0800d090  0002350c  2**0
                  ALLOC
 11 .ARM.attributes 00000030  00000000  00000000  00022b88  2**0
                  CONTENTS, READONLY
 12 .debug_info   00022a64  00000000  00000000  00022bb8  2**0
                  CONTENTS, READONLY, DEBUGGING, OCTETS
 13 .debug_abbrev 000048f8  00000000  00000000  0004561c  2**0
                  CONTENTS, READONLY, DEBUGGING, OCTETS
 14 .debug_loc    00011188  00000000  00000000  00049f14  2**0
                  CONTENTS, READONLY, DEBUGGING, OCTETS
 15 .debug_aranges 00001340  00000000  00000000  0005b0a0  2**3
                  CONTENTS, READONLY, DEBUGGING, OCTETS
 16 .debug_ranges 000018d0  00000000  00000000  0005c3e0  2**3
                  CONTENTS, READONLY, DEBUGGING, OCTETS
 17 .debug_macro  00024f50  00000000  00000000  0005dcb0  2**0
                  CONTENTS, READONLY, DEBUGGING, OCTETS
 18 .debug_line   0001f08c  00000000  00000000  00082c00  2**0
                  CONTENTS, READONLY, DEBUGGING, OCTETS
 19 .debug_str    000e0c0a  00000000  00000000  000a1c8c  2**0
                  CONTENTS, READONLY, DEBUGGING, OCTETS
 20 .comment      00000053  00000000  00000000  00182896  2**0
                  CONTENTS, READONLY
 21 .debug_frame  00003be8  00000000  00000000  001828ec  2**2
                  CONTENTS, READONLY, DEBUGGING, OCTETS

Disassembly of section .text:

08000190 <__do_global_dtors_aux>:
 8000190:	b510      	push	{r4, lr}
 8000192:	4c05      	ldr	r4, [pc, #20]	; (80001a8 <__do_global_dtors_aux+0x18>)
 8000194:	7823      	ldrb	r3, [r4, #0]
 8000196:	b933      	cbnz	r3, 80001a6 <__do_global_dtors_aux+0x16>
 8000198:	4b04      	ldr	r3, [pc, #16]	; (80001ac <__do_global_dtors_aux+0x1c>)
 800019a:	b113      	cbz	r3, 80001a2 <__do_global_dtors_aux+0x12>
 800019c:	4804      	ldr	r0, [pc, #16]	; (80001b0 <__do_global_dtors_aux+0x20>)
 800019e:	f3af 8000 	nop.w
 80001a2:	2301      	movs	r3, #1
 80001a4:	7023      	strb	r3, [r4, #0]
 80001a6:	bd10      	pop	{r4, pc}
 80001a8:	20002b88 	.word	0x20002b88
 80001ac:	00000000 	.word	0x00000000
 80001b0:	0800a154 	.word	0x0800a154

080001b4 <frame_dummy>:
 80001b4:	b508      	push	{r3, lr}
 80001b6:	4b03      	ldr	r3, [pc, #12]	; (80001c4 <frame_dummy+0x10>)
 80001b8:	b11b      	cbz	r3, 80001c2 <frame_dummy+0xe>
 80001ba:	4903      	ldr	r1, [pc, #12]	; (80001c8 <frame_dummy+0x14>)
 80001bc:	4803      	ldr	r0, [pc, #12]	; (80001cc <frame_dummy+0x18>)
 80001be:	f3af 8000 	nop.w
 80001c2:	bd08      	pop	{r3, pc}
 80001c4:	00000000 	.word	0x00000000
 80001c8:	20002b8c 	.word	0x20002b8c
 80001cc:	0800a154 	.word	0x0800a154

080001d0 <__aeabi_drsub>:
 80001d0:	f081 4100 	eor.w	r1, r1, #2147483648	; 0x80000000
 80001d4:	e002      	b.n	80001dc <__adddf3>
 80001d6:	bf00      	nop

080001d8 <__aeabi_dsub>:
 80001d8:	f083 4300 	eor.w	r3, r3, #2147483648	; 0x80000000

080001dc <__adddf3>:
 80001dc:	b530      	push	{r4, r5, lr}
 80001de:	ea4f 0441 	mov.w	r4, r1, lsl #1
 80001e2:	ea4f 0543 	mov.w	r5, r3, lsl #1
 80001e6:	ea94 0f05 	teq	r4, r5
 80001ea:	bf08      	it	eq
 80001ec:	ea90 0f02 	teqeq	r0, r2
 80001f0:	bf1f      	itttt	ne
 80001f2:	ea54 0c00 	orrsne.w	ip, r4, r0
 80001f6:	ea55 0c02 	orrsne.w	ip, r5, r2
 80001fa:	ea7f 5c64 	mvnsne.w	ip, r4, asr #21
 80001fe:	ea7f 5c65 	mvnsne.w	ip, r5, asr #21
 8000202:	f000 80e2 	beq.w	80003ca <__adddf3+0x1ee>
 8000206:	ea4f 5454 	mov.w	r4, r4, lsr #21
 800020a:	ebd4 5555 	rsbs	r5, r4, r5, lsr #21
 800020e:	bfb8      	it	lt
 8000210:	426d      	neglt	r5, r5
 8000212:	dd0c      	ble.n	800022e <__adddf3+0x52>
 8000214:	442c      	add	r4, r5
 8000216:	ea80 0202 	eor.w	r2, r0, r2
 800021a:	ea81 0303 	eor.w	r3, r1, r3
 800021e:	ea82 0000 	eor.w	r0, r2, r0
 8000222:	ea83 0101 	eor.w	r1, r3, r1
 8000226:	ea80 0202 	eor.w	r2, r0, r2
 800022a:	ea81 0303 	eor.w	r3, r1, r3
 800022e:	2d36      	cmp	r5, #54	; 0x36
 8000230:	bf88      	it	hi
 8000232:	bd30      	pophi	{r4, r5, pc}
 8000234:	f011 4f00 	tst.w	r1, #2147483648	; 0x80000000
 8000238:	ea4f 3101 	mov.w	r1, r1, lsl #12
 800023c:	f44f 1c80 	mov.w	ip, #1048576	; 0x100000
 8000240:	ea4c 3111 	orr.w	r1, ip, r1, lsr #12
 8000244:	d002      	beq.n	800024c <__adddf3+0x70>
 8000246:	4240      	negs	r0, r0
 8000248:	eb61 0141 	sbc.w	r1, r1, r1, lsl #1
 800024c:	f013 4f00 	tst.w	r3, #2147483648	; 0x80000000
 8000250:	ea4f 3303 	mov.w	r3, r3, lsl #12
 8000254:	ea4c 3313 	orr.w	r3, ip, r3, lsr #12
 8000258:	d002      	beq.n	8000260 <__adddf3+0x84>
 800025a:	4252      	negs	r2, r2
 800025c:	eb63 0343 	sbc.w	r3, r3, r3, lsl #1
 8000260:	ea94 0f05 	teq	r4, r5
 8000264:	f000 80a7 	beq.w	80003b6 <__adddf3+0x1da>
 8000268:	f1a4 0401 	sub.w	r4, r4, #1
 800026c:	f1d5 0e20 	rsbs	lr, r5, #32
 8000270:	db0d      	blt.n	800028e <__adddf3+0xb2>
 8000272:	fa02 fc0e 	lsl.w	ip, r2, lr
 8000276:	fa22 f205 	lsr.w	r2, r2, r5
 800027a:	1880      	adds	r0, r0, r2
 800027c:	f141 0100 	adc.w	r1, r1, #0
 8000280:	fa03 f20e 	lsl.w	r2, r3, lr
 8000284:	1880      	adds	r0, r0, r2
 8000286:	fa43 f305 	asr.w	r3, r3, r5
 800028a:	4159      	adcs	r1, r3
 800028c:	e00e      	b.n	80002ac <__adddf3+0xd0>
 800028e:	f1a5 0520 	sub.w	r5, r5, #32
 8000292:	f10e 0e20 	add.w	lr, lr, #32
 8000296:	2a01      	cmp	r2, #1
 8000298:	fa03 fc0e 	lsl.w	ip, r3, lr
 800029c:	bf28      	it	cs
 800029e:	f04c 0c02 	orrcs.w	ip, ip, #2
 80002a2:	fa43 f305 	asr.w	r3, r3, r5
 80002a6:	18c0      	adds	r0, r0, r3
 80002a8:	eb51 71e3 	adcs.w	r1, r1, r3, asr #31
 80002ac:	f001 4500 	and.w	r5, r1, #2147483648	; 0x80000000
 80002b0:	d507      	bpl.n	80002c2 <__adddf3+0xe6>
 80002b2:	f04f 0e00 	mov.w	lr, #0
 80002b6:	f1dc 0c00 	rsbs	ip, ip, #0
 80002ba:	eb7e 0000 	sbcs.w	r0, lr, r0
 80002be:	eb6e 0101 	sbc.w	r1, lr, r1
 80002c2:	f5b1 1f80 	cmp.w	r1, #1048576	; 0x100000
 80002c6:	d31b      	bcc.n	8000300 <__adddf3+0x124>
 80002c8:	f5b1 1f00 	cmp.w	r1, #2097152	; 0x200000
 80002cc:	d30c      	bcc.n	80002e8 <__adddf3+0x10c>
 80002ce:	0849      	lsrs	r1, r1, #1
 80002d0:	ea5f 0030 	movs.w	r0, r0, rrx
 80002d4:	ea4f 0c3c 	mov.w	ip, ip, rrx
 80002d8:	f104 0401 	add.w	r4, r4, #1
 80002dc:	ea4f 5244 	mov.w	r2, r4, lsl #21
 80002e0:	f512 0f80 	cmn.w	r2, #4194304	; 0x400000
 80002e4:	f080 809a 	bcs.w	800041c <__adddf3+0x240>
 80002e8:	f1bc 4f00 	cmp.w	ip, #2147483648	; 0x80000000
 80002ec:	bf08      	it	eq
 80002ee:	ea5f 0c50 	movseq.w	ip, r0, lsr #1
 80002f2:	f150 0000 	adcs.w	r0, r0, #0
 80002f6:	eb41 5104 	adc.w	r1, r1, r4, lsl #20
 80002fa:	ea41 0105 	orr.w	r1, r1, r5
 80002fe:	bd30      	pop	{r4, r5, pc}
 8000300:	ea5f 0c4c 	movs.w	ip, ip, lsl #1
 8000304:	4140      	adcs	r0, r0
 8000306:	eb41 0101 	adc.w	r1, r1, r1
 800030a:	3c01      	subs	r4, #1
 800030c:	bf28      	it	cs
 800030e:	f5b1 1f80 	cmpcs.w	r1, #1048576	; 0x100000
 8000312:	d2e9      	bcs.n	80002e8 <__adddf3+0x10c>
 8000314:	f091 0f00 	teq	r1, #0
 8000318:	bf04      	itt	eq
 800031a:	4601      	moveq	r1, r0
 800031c:	2000      	moveq	r0, #0
 800031e:	fab1 f381 	clz	r3, r1
 8000322:	bf08      	it	eq
 8000324:	3320      	addeq	r3, #32
 8000326:	f1a3 030b 	sub.w	r3, r3, #11
 800032a:	f1b3 0220 	subs.w	r2, r3, #32
 800032e:	da0c      	bge.n	800034a <__adddf3+0x16e>
 8000330:	320c      	adds	r2, #12
 8000332:	dd08      	ble.n	8000346 <__adddf3+0x16a>
 8000334:	f102 0c14 	add.w	ip, r2, #20
 8000338:	f1c2 020c 	rsb	r2, r2, #12
 800033c:	fa01 f00c 	lsl.w	r0, r1, ip
 8000340:	fa21 f102 	lsr.w	r1, r1, r2
 8000344:	e00c      	b.n	8000360 <__adddf3+0x184>
 8000346:	f102 0214 	add.w	r2, r2, #20
 800034a:	bfd8      	it	le
 800034c:	f1c2 0c20 	rsble	ip, r2, #32
 8000350:	fa01 f102 	lsl.w	r1, r1, r2
 8000354:	fa20 fc0c 	lsr.w	ip, r0, ip
 8000358:	bfdc      	itt	le
 800035a:	ea41 010c 	orrle.w	r1, r1, ip
 800035e:	4090      	lslle	r0, r2
 8000360:	1ae4      	subs	r4, r4, r3
 8000362:	bfa2      	ittt	ge
 8000364:	eb01 5104 	addge.w	r1, r1, r4, lsl #20
 8000368:	4329      	orrge	r1, r5
 800036a:	bd30      	popge	{r4, r5, pc}
 800036c:	ea6f 0404 	mvn.w	r4, r4
 8000370:	3c1f      	subs	r4, #31
 8000372:	da1c      	bge.n	80003ae <__adddf3+0x1d2>
 8000374:	340c      	adds	r4, #12
 8000376:	dc0e      	bgt.n	8000396 <__adddf3+0x1ba>
 8000378:	f104 0414 	add.w	r4, r4, #20
 800037c:	f1c4 0220 	rsb	r2, r4, #32
 8000380:	fa20 f004 	lsr.w	r0, r0, r4
 8000384:	fa01 f302 	lsl.w	r3, r1, r2
 8000388:	ea40 0003 	orr.w	r0, r0, r3
 800038c:	fa21 f304 	lsr.w	r3, r1, r4
 8000390:	ea45 0103 	orr.w	r1, r5, r3
 8000394:	bd30      	pop	{r4, r5, pc}
 8000396:	f1c4 040c 	rsb	r4, r4, #12
 800039a:	f1c4 0220 	rsb	r2, r4, #32
 800039e:	fa20 f002 	lsr.w	r0, r0, r2
 80003a2:	fa01 f304 	lsl.w	r3, r1, r4
 80003a6:	ea40 0003 	orr.w	r0, r0, r3
 80003aa:	4629      	mov	r1, r5
 80003ac:	bd30      	pop	{r4, r5, pc}
 80003ae:	fa21 f004 	lsr.w	r0, r1, r4
 80003b2:	4629      	mov	r1, r5
 80003b4:	bd30      	pop	{r4, r5, pc}
 80003b6:	f094 0f00 	teq	r4, #0
 80003ba:	f483 1380 	eor.w	r3, r3, #1048576	; 0x100000
 80003be:	bf06      	itte	eq
 80003c0:	f481 1180 	eoreq.w	r1, r1, #1048576	; 0x100000
 80003c4:	3401      	addeq	r4, #1
 80003c6:	3d01      	subne	r5, #1
 80003c8:	e74e      	b.n	8000268 <__adddf3+0x8c>
 80003ca:	ea7f 5c64 	mvns.w	ip, r4, asr #21
 80003ce:	bf18      	it	ne
 80003d0:	ea7f 5c65 	mvnsne.w	ip, r5, asr #21
 80003d4:	d029      	beq.n	800042a <__adddf3+0x24e>
 80003d6:	ea94 0f05 	teq	r4, r5
 80003da:	bf08      	it	eq
 80003dc:	ea90 0f02 	teqeq	r0, r2
 80003e0:	d005      	beq.n	80003ee <__adddf3+0x212>
 80003e2:	ea54 0c00 	orrs.w	ip, r4, r0
 80003e6:	bf04      	itt	eq
 80003e8:	4619      	moveq	r1, r3
 80003ea:	4610      	moveq	r0, r2
 80003ec:	bd30      	pop	{r4, r5, pc}
 80003ee:	ea91 0f03 	teq	r1, r3
 80003f2:	bf1e      	ittt	ne
 80003f4:	2100      	movne	r1, #0
 80003f6:	2000      	movne	r0, #0
 80003f8:	bd30      	popne	{r4, r5, pc}
 80003fa:	ea5f 5c54 	movs.w	ip, r4, lsr #21
 80003fe:	d105      	bne.n	800040c <__adddf3+0x230>
 8000400:	0040      	lsls	r0, r0, #1
 8000402:	4149      	adcs	r1, r1
 8000404:	bf28      	it	cs
 8000406:	f041 4100 	orrcs.w	r1, r1, #2147483648	; 0x80000000
 800040a:	bd30      	pop	{r4, r5, pc}
 800040c:	f514 0480 	adds.w	r4, r4, #4194304	; 0x400000
 8000410:	bf3c      	itt	cc
 8000412:	f501 1180 	addcc.w	r1, r1, #1048576	; 0x100000
 8000416:	bd30      	popcc	{r4, r5, pc}
 8000418:	f001 4500 	and.w	r5, r1, #2147483648	; 0x80000000
 800041c:	f045 41fe 	orr.w	r1, r5, #2130706432	; 0x7f000000
 8000420:	f441 0170 	orr.w	r1, r1, #15728640	; 0xf00000
 8000424:	f04f 0000 	mov.w	r0, #0
 8000428:	bd30      	pop	{r4, r5, pc}
 800042a:	ea7f 5c64 	mvns.w	ip, r4, asr #21
 800042e:	bf1a      	itte	ne
 8000430:	4619      	movne	r1, r3
 8000432:	4610      	movne	r0, r2
 8000434:	ea7f 5c65 	mvnseq.w	ip, r5, asr #21
 8000438:	bf1c      	itt	ne
 800043a:	460b      	movne	r3, r1
 800043c:	4602      	movne	r2, r0
 800043e:	ea50 3401 	orrs.w	r4, r0, r1, lsl #12
 8000442:	bf06      	itte	eq
 8000444:	ea52 3503 	orrseq.w	r5, r2, r3, lsl #12
 8000448:	ea91 0f03 	teqeq	r1, r3
 800044c:	f441 2100 	orrne.w	r1, r1, #524288	; 0x80000
 8000450:	bd30      	pop	{r4, r5, pc}
 8000452:	bf00      	nop

08000454 <__aeabi_ui2d>:
 8000454:	f090 0f00 	teq	r0, #0
 8000458:	bf04      	itt	eq
 800045a:	2100      	moveq	r1, #0
 800045c:	4770      	bxeq	lr
 800045e:	b530      	push	{r4, r5, lr}
 8000460:	f44f 6480 	mov.w	r4, #1024	; 0x400
 8000464:	f104 0432 	add.w	r4, r4, #50	; 0x32
 8000468:	f04f 0500 	mov.w	r5, #0
 800046c:	f04f 0100 	mov.w	r1, #0
 8000470:	e750      	b.n	8000314 <__adddf3+0x138>
 8000472:	bf00      	nop

08000474 <__aeabi_i2d>:
 8000474:	f090 0f00 	teq	r0, #0
 8000478:	bf04      	itt	eq
 800047a:	2100      	moveq	r1, #0
 800047c:	4770      	bxeq	lr
 800047e:	b530      	push	{r4, r5, lr}
 8000480:	f44f 6480 	mov.w	r4, #1024	; 0x400
 8000484:	f104 0432 	add.w	r4, r4, #50	; 0x32
 8000488:	f010 4500 	ands.w	r5, r0, #2147483648	; 0x80000000
 800048c:	bf48      	it	mi
 800048e:	4240      	negmi	r0, r0
 8000490:	f04f 0100 	mov.w	r1, #0
 8000494:	e73e      	b.n	8000314 <__adddf3+0x138>
 8000496:	bf00      	nop

08000498 <__aeabi_f2d>:
 8000498:	0042      	lsls	r2, r0, #1
 800049a:	ea4f 01e2 	mov.w	r1, r2, asr #3
 800049e:	ea4f 0131 	mov.w	r1, r1, rrx
 80004a2:	ea4f 7002 	mov.w	r0, r2, lsl #28
 80004a6:	bf1f      	itttt	ne
 80004a8:	f012 437f 	andsne.w	r3, r2, #4278190080	; 0xff000000
 80004ac:	f093 4f7f 	teqne	r3, #4278190080	; 0xff000000
 80004b0:	f081 5160 	eorne.w	r1, r1, #939524096	; 0x38000000
 80004b4:	4770      	bxne	lr
 80004b6:	f032 427f 	bics.w	r2, r2, #4278190080	; 0xff000000
 80004ba:	bf08      	it	eq
 80004bc:	4770      	bxeq	lr
 80004be:	f093 4f7f 	teq	r3, #4278190080	; 0xff000000
 80004c2:	bf04      	itt	eq
 80004c4:	f441 2100 	orreq.w	r1, r1, #524288	; 0x80000
 80004c8:	4770      	bxeq	lr
 80004ca:	b530      	push	{r4, r5, lr}
 80004cc:	f44f 7460 	mov.w	r4, #896	; 0x380
 80004d0:	f001 4500 	and.w	r5, r1, #2147483648	; 0x80000000
 80004d4:	f021 4100 	bic.w	r1, r1, #2147483648	; 0x80000000
 80004d8:	e71c      	b.n	8000314 <__adddf3+0x138>
 80004da:	bf00      	nop

080004dc <__aeabi_ul2d>:
 80004dc:	ea50 0201 	orrs.w	r2, r0, r1
 80004e0:	bf08      	it	eq
 80004e2:	4770      	bxeq	lr
 80004e4:	b530      	push	{r4, r5, lr}
 80004e6:	f04f 0500 	mov.w	r5, #0
 80004ea:	e00a      	b.n	8000502 <__aeabi_l2d+0x16>

080004ec <__aeabi_l2d>:
 80004ec:	ea50 0201 	orrs.w	r2, r0, r1
 80004f0:	bf08      	it	eq
 80004f2:	4770      	bxeq	lr
 80004f4:	b530      	push	{r4, r5, lr}
 80004f6:	f011 4500 	ands.w	r5, r1, #2147483648	; 0x80000000
 80004fa:	d502      	bpl.n	8000502 <__aeabi_l2d+0x16>
 80004fc:	4240      	negs	r0, r0
 80004fe:	eb61 0141 	sbc.w	r1, r1, r1, lsl #1
 8000502:	f44f 6480 	mov.w	r4, #1024	; 0x400
 8000506:	f104 0432 	add.w	r4, r4, #50	; 0x32
 800050a:	ea5f 5c91 	movs.w	ip, r1, lsr #22
 800050e:	f43f aed8 	beq.w	80002c2 <__adddf3+0xe6>
 8000512:	f04f 0203 	mov.w	r2, #3
 8000516:	ea5f 0cdc 	movs.w	ip, ip, lsr #3
 800051a:	bf18      	it	ne
 800051c:	3203      	addne	r2, #3
 800051e:	ea5f 0cdc 	movs.w	ip, ip, lsr #3
 8000522:	bf18      	it	ne
 8000524:	3203      	addne	r2, #3
 8000526:	eb02 02dc 	add.w	r2, r2, ip, lsr #3
 800052a:	f1c2 0320 	rsb	r3, r2, #32
 800052e:	fa00 fc03 	lsl.w	ip, r0, r3
 8000532:	fa20 f002 	lsr.w	r0, r0, r2
 8000536:	fa01 fe03 	lsl.w	lr, r1, r3
 800053a:	ea40 000e 	orr.w	r0, r0, lr
 800053e:	fa21 f102 	lsr.w	r1, r1, r2
 8000542:	4414      	add	r4, r2
 8000544:	e6bd      	b.n	80002c2 <__adddf3+0xe6>
 8000546:	bf00      	nop

08000548 <__aeabi_dmul>:
 8000548:	b570      	push	{r4, r5, r6, lr}
 800054a:	f04f 0cff 	mov.w	ip, #255	; 0xff
 800054e:	f44c 6ce0 	orr.w	ip, ip, #1792	; 0x700
 8000552:	ea1c 5411 	ands.w	r4, ip, r1, lsr #20
 8000556:	bf1d      	ittte	ne
 8000558:	ea1c 5513 	andsne.w	r5, ip, r3, lsr #20
 800055c:	ea94 0f0c 	teqne	r4, ip
 8000560:	ea95 0f0c 	teqne	r5, ip
 8000564:	f000 f8de 	bleq	8000724 <__aeabi_dmul+0x1dc>
 8000568:	442c      	add	r4, r5
 800056a:	ea81 0603 	eor.w	r6, r1, r3
 800056e:	ea21 514c 	bic.w	r1, r1, ip, lsl #21
 8000572:	ea23 534c 	bic.w	r3, r3, ip, lsl #21
 8000576:	ea50 3501 	orrs.w	r5, r0, r1, lsl #12
 800057a:	bf18      	it	ne
 800057c:	ea52 3503 	orrsne.w	r5, r2, r3, lsl #12
 8000580:	f441 1180 	orr.w	r1, r1, #1048576	; 0x100000
 8000584:	f443 1380 	orr.w	r3, r3, #1048576	; 0x100000
 8000588:	d038      	beq.n	80005fc <__aeabi_dmul+0xb4>
 800058a:	fba0 ce02 	umull	ip, lr, r0, r2
 800058e:	f04f 0500 	mov.w	r5, #0
 8000592:	fbe1 e502 	umlal	lr, r5, r1, r2
 8000596:	f006 4200 	and.w	r2, r6, #2147483648	; 0x80000000
 800059a:	fbe0 e503 	umlal	lr, r5, r0, r3
 800059e:	f04f 0600 	mov.w	r6, #0
 80005a2:	fbe1 5603 	umlal	r5, r6, r1, r3
 80005a6:	f09c 0f00 	teq	ip, #0
 80005aa:	bf18      	it	ne
 80005ac:	f04e 0e01 	orrne.w	lr, lr, #1
 80005b0:	f1a4 04ff 	sub.w	r4, r4, #255	; 0xff
 80005b4:	f5b6 7f00 	cmp.w	r6, #512	; 0x200
 80005b8:	f564 7440 	sbc.w	r4, r4, #768	; 0x300
 80005bc:	d204      	bcs.n	80005c8 <__aeabi_dmul+0x80>
 80005be:	ea5f 0e4e 	movs.w	lr, lr, lsl #1
 80005c2:	416d      	adcs	r5, r5
 80005c4:	eb46 0606 	adc.w	r6, r6, r6
 80005c8:	ea42 21c6 	orr.w	r1, r2, r6, lsl #11
 80005cc:	ea41 5155 	orr.w	r1, r1, r5, lsr #21
 80005d0:	ea4f 20c5 	mov.w	r0, r5, lsl #11
 80005d4:	ea40 505e 	orr.w	r0, r0, lr, lsr #21
 80005d8:	ea4f 2ece 	mov.w	lr, lr, lsl #11
 80005dc:	f1b4 0cfd 	subs.w	ip, r4, #253	; 0xfd
 80005e0:	bf88      	it	hi
 80005e2:	f5bc 6fe0 	cmphi.w	ip, #1792	; 0x700
 80005e6:	d81e      	bhi.n	8000626 <__aeabi_dmul+0xde>
 80005e8:	f1be 4f00 	cmp.w	lr, #2147483648	; 0x80000000
 80005ec:	bf08      	it	eq
 80005ee:	ea5f 0e50 	movseq.w	lr, r0, lsr #1
 80005f2:	f150 0000 	adcs.w	r0, r0, #0
 80005f6:	eb41 5104 	adc.w	r1, r1, r4, lsl #20
 80005fa:	bd70      	pop	{r4, r5, r6, pc}
 80005fc:	f006 4600 	and.w	r6, r6, #2147483648	; 0x80000000
 8000600:	ea46 0101 	orr.w	r1, r6, r1
 8000604:	ea40 0002 	orr.w	r0, r0, r2
 8000608:	ea81 0103 	eor.w	r1, r1, r3
 800060c:	ebb4 045c 	subs.w	r4, r4, ip, lsr #1
 8000610:	bfc2      	ittt	gt
 8000612:	ebd4 050c 	rsbsgt	r5, r4, ip
 8000616:	ea41 5104 	orrgt.w	r1, r1, r4, lsl #20
 800061a:	bd70      	popgt	{r4, r5, r6, pc}
 800061c:	f441 1180 	orr.w	r1, r1, #1048576	; 0x100000
 8000620:	f04f 0e00 	mov.w	lr, #0
 8000624:	3c01      	subs	r4, #1
 8000626:	f300 80ab 	bgt.w	8000780 <__aeabi_dmul+0x238>
 800062a:	f114 0f36 	cmn.w	r4, #54	; 0x36
 800062e:	bfde      	ittt	le
 8000630:	2000      	movle	r0, #0
 8000632:	f001 4100 	andle.w	r1, r1, #2147483648	; 0x80000000
 8000636:	bd70      	pople	{r4, r5, r6, pc}
 8000638:	f1c4 0400 	rsb	r4, r4, #0
 800063c:	3c20      	subs	r4, #32
 800063e:	da35      	bge.n	80006ac <__aeabi_dmul+0x164>
 8000640:	340c      	adds	r4, #12
 8000642:	dc1b      	bgt.n	800067c <__aeabi_dmul+0x134>
 8000644:	f104 0414 	add.w	r4, r4, #20
 8000648:	f1c4 0520 	rsb	r5, r4, #32
 800064c:	fa00 f305 	lsl.w	r3, r0, r5
 8000650:	fa20 f004 	lsr.w	r0, r0, r4
 8000654:	fa01 f205 	lsl.w	r2, r1, r5
 8000658:	ea40 0002 	orr.w	r0, r0, r2
 800065c:	f001 4200 	and.w	r2, r1, #2147483648	; 0x80000000
 8000660:	f021 4100 	bic.w	r1, r1, #2147483648	; 0x80000000
 8000664:	eb10 70d3 	adds.w	r0, r0, r3, lsr #31
 8000668:	fa21 f604 	lsr.w	r6, r1, r4
 800066c:	eb42 0106 	adc.w	r1, r2, r6
 8000670:	ea5e 0e43 	orrs.w	lr, lr, r3, lsl #1
 8000674:	bf08      	it	eq
 8000676:	ea20 70d3 	biceq.w	r0, r0, r3, lsr #31
 800067a:	bd70      	pop	{r4, r5, r6, pc}
 800067c:	f1c4 040c 	rsb	r4, r4, #12
 8000680:	f1c4 0520 	rsb	r5, r4, #32
 8000684:	fa00 f304 	lsl.w	r3, r0, r4
 8000688:	fa20 f005 	lsr.w	r0, r0, r5
 800068c:	fa01 f204 	lsl.w	r2, r1, r4
 8000690:	ea40 0002 	orr.w	r0, r0, r2
 8000694:	f001 4100 	and.w	r1, r1, #2147483648	; 0x80000000
 8000698:	eb10 70d3 	adds.w	r0, r0, r3, lsr #31
 800069c:	f141 0100 	adc.w	r1, r1, #0
 80006a0:	ea5e 0e43 	orrs.w	lr, lr, r3, lsl #1
 80006a4:	bf08      	it	eq
 80006a6:	ea20 70d3 	biceq.w	r0, r0, r3, lsr #31
 80006aa:	bd70      	pop	{r4, r5, r6, pc}
 80006ac:	f1c4 0520 	rsb	r5, r4, #32
 80006b0:	fa00 f205 	lsl.w	r2, r0, r5
 80006b4:	ea4e 0e02 	orr.w	lr, lr, r2
 80006b8:	fa20 f304 	lsr.w	r3, r0, r4
 80006bc:	fa01 f205 	lsl.w	r2, r1, r5
 80006c0:	ea43 0302 	orr.w	r3, r3, r2
 80006c4:	fa21 f004 	lsr.w	r0, r1, r4
 80006c8:	f001 4100 	and.w	r1, r1, #2147483648	; 0x80000000
 80006cc:	fa21 f204 	lsr.w	r2, r1, r4
 80006d0:	ea20 0002 	bic.w	r0, r0, r2
 80006d4:	eb00 70d3 	add.w	r0, r0, r3, lsr #31
 80006d8:	ea5e 0e43 	orrs.w	lr, lr, r3, lsl #1
 80006dc:	bf08      	it	eq
 80006de:	ea20 70d3 	biceq.w	r0, r0, r3, lsr #31
 80006e2:	bd70      	pop	{r4, r5, r6, pc}
 80006e4:	f094 0f00 	teq	r4, #0
 80006e8:	d10f      	bne.n	800070a <__aeabi_dmul+0x1c2>
 80006ea:	f001 4600 	and.w	r6, r1, #2147483648	; 0x80000000
 80006ee:	0040      	lsls	r0, r0, #1
 80006f0:	eb41 0101 	adc.w	r1, r1, r1
 80006f4:	f411 1f80 	tst.w	r1, #1048576	; 0x100000
 80006f8:	bf08      	it	eq
 80006fa:	3c01      	subeq	r4, #1
 80006fc:	d0f7      	beq.n	80006ee <__aeabi_dmul+0x1a6>
 80006fe:	ea41 0106 	orr.w	r1, r1, r6
 8000702:	f095 0f00 	teq	r5, #0
 8000706:	bf18      	it	ne
 8000708:	4770      	bxne	lr
 800070a:	f003 4600 	and.w	r6, r3, #2147483648	; 0x80000000
 800070e:	0052      	lsls	r2, r2, #1
 8000710:	eb43 0303 	adc.w	r3, r3, r3
 8000714:	f413 1f80 	tst.w	r3, #1048576	; 0x100000
 8000718:	bf08      	it	eq
 800071a:	3d01      	subeq	r5, #1
 800071c:	d0f7      	beq.n	800070e <__aeabi_dmul+0x1c6>
 800071e:	ea43 0306 	orr.w	r3, r3, r6
 8000722:	4770      	bx	lr
 8000724:	ea94 0f0c 	teq	r4, ip
 8000728:	ea0c 5513 	and.w	r5, ip, r3, lsr #20
 800072c:	bf18      	it	ne
 800072e:	ea95 0f0c 	teqne	r5, ip
 8000732:	d00c      	beq.n	800074e <__aeabi_dmul+0x206>
 8000734:	ea50 0641 	orrs.w	r6, r0, r1, lsl #1
 8000738:	bf18      	it	ne
 800073a:	ea52 0643 	orrsne.w	r6, r2, r3, lsl #1
 800073e:	d1d1      	bne.n	80006e4 <__aeabi_dmul+0x19c>
 8000740:	ea81 0103 	eor.w	r1, r1, r3
 8000744:	f001 4100 	and.w	r1, r1, #2147483648	; 0x80000000
 8000748:	f04f 0000 	mov.w	r0, #0
 800074c:	bd70      	pop	{r4, r5, r6, pc}
 800074e:	ea50 0641 	orrs.w	r6, r0, r1, lsl #1
 8000752:	bf06      	itte	eq
 8000754:	4610      	moveq	r0, r2
 8000756:	4619      	moveq	r1, r3
 8000758:	ea52 0643 	orrsne.w	r6, r2, r3, lsl #1
 800075c:	d019      	beq.n	8000792 <__aeabi_dmul+0x24a>
 800075e:	ea94 0f0c 	teq	r4, ip
 8000762:	d102      	bne.n	800076a <__aeabi_dmul+0x222>
 8000764:	ea50 3601 	orrs.w	r6, r0, r1, lsl #12
 8000768:	d113      	bne.n	8000792 <__aeabi_dmul+0x24a>
 800076a:	ea95 0f0c 	teq	r5, ip
 800076e:	d105      	bne.n	800077c <__aeabi_dmul+0x234>
 8000770:	ea52 3603 	orrs.w	r6, r2, r3, lsl #12
 8000774:	bf1c      	itt	ne
 8000776:	4610      	movne	r0, r2
 8000778:	4619      	movne	r1, r3
 800077a:	d10a      	bne.n	8000792 <__aeabi_dmul+0x24a>
 800077c:	ea81 0103 	eor.w	r1, r1, r3
 8000780:	f001 4100 	and.w	r1, r1, #2147483648	; 0x80000000
 8000784:	f041 41fe 	orr.w	r1, r1, #2130706432	; 0x7f000000
 8000788:	f441 0170 	orr.w	r1, r1, #15728640	; 0xf00000
 800078c:	f04f 0000 	mov.w	r0, #0
 8000790:	bd70      	pop	{r4, r5, r6, pc}
 8000792:	f041 41fe 	orr.w	r1, r1, #2130706432	; 0x7f000000
 8000796:	f441 0178 	orr.w	r1, r1, #16252928	; 0xf80000
 800079a:	bd70      	pop	{r4, r5, r6, pc}

0800079c <__aeabi_ddiv>:
 800079c:	b570      	push	{r4, r5, r6, lr}
 800079e:	f04f 0cff 	mov.w	ip, #255	; 0xff
 80007a2:	f44c 6ce0 	orr.w	ip, ip, #1792	; 0x700
 80007a6:	ea1c 5411 	ands.w	r4, ip, r1, lsr #20
 80007aa:	bf1d      	ittte	ne
 80007ac:	ea1c 5513 	andsne.w	r5, ip, r3, lsr #20
 80007b0:	ea94 0f0c 	teqne	r4, ip
 80007b4:	ea95 0f0c 	teqne	r5, ip
 80007b8:	f000 f8a7 	bleq	800090a <__aeabi_ddiv+0x16e>
 80007bc:	eba4 0405 	sub.w	r4, r4, r5
 80007c0:	ea81 0e03 	eor.w	lr, r1, r3
 80007c4:	ea52 3503 	orrs.w	r5, r2, r3, lsl #12
 80007c8:	ea4f 3101 	mov.w	r1, r1, lsl #12
 80007cc:	f000 8088 	beq.w	80008e0 <__aeabi_ddiv+0x144>
 80007d0:	ea4f 3303 	mov.w	r3, r3, lsl #12
 80007d4:	f04f 5580 	mov.w	r5, #268435456	; 0x10000000
 80007d8:	ea45 1313 	orr.w	r3, r5, r3, lsr #4
 80007dc:	ea43 6312 	orr.w	r3, r3, r2, lsr #24
 80007e0:	ea4f 2202 	mov.w	r2, r2, lsl #8
 80007e4:	ea45 1511 	orr.w	r5, r5, r1, lsr #4
 80007e8:	ea45 6510 	orr.w	r5, r5, r0, lsr #24
 80007ec:	ea4f 2600 	mov.w	r6, r0, lsl #8
 80007f0:	f00e 4100 	and.w	r1, lr, #2147483648	; 0x80000000
 80007f4:	429d      	cmp	r5, r3
 80007f6:	bf08      	it	eq
 80007f8:	4296      	cmpeq	r6, r2
 80007fa:	f144 04fd 	adc.w	r4, r4, #253	; 0xfd
 80007fe:	f504 7440 	add.w	r4, r4, #768	; 0x300
 8000802:	d202      	bcs.n	800080a <__aeabi_ddiv+0x6e>
 8000804:	085b      	lsrs	r3, r3, #1
 8000806:	ea4f 0232 	mov.w	r2, r2, rrx
 800080a:	1ab6      	subs	r6, r6, r2
 800080c:	eb65 0503 	sbc.w	r5, r5, r3
 8000810:	085b      	lsrs	r3, r3, #1
 8000812:	ea4f 0232 	mov.w	r2, r2, rrx
 8000816:	f44f 1080 	mov.w	r0, #1048576	; 0x100000
 800081a:	f44f 2c00 	mov.w	ip, #524288	; 0x80000
 800081e:	ebb6 0e02 	subs.w	lr, r6, r2
 8000822:	eb75 0e03 	sbcs.w	lr, r5, r3
 8000826:	bf22      	ittt	cs
 8000828:	1ab6      	subcs	r6, r6, r2
 800082a:	4675      	movcs	r5, lr
 800082c:	ea40 000c 	orrcs.w	r0, r0, ip
 8000830:	085b      	lsrs	r3, r3, #1
 8000832:	ea4f 0232 	mov.w	r2, r2, rrx
 8000836:	ebb6 0e02 	subs.w	lr, r6, r2
 800083a:	eb75 0e03 	sbcs.w	lr, r5, r3
 800083e:	bf22      	ittt	cs
 8000840:	1ab6      	subcs	r6, r6, r2
 8000842:	4675      	movcs	r5, lr
 8000844:	ea40 005c 	orrcs.w	r0, r0, ip, lsr #1
 8000848:	085b      	lsrs	r3, r3, #1
 800084a:	ea4f 0232 	mov.w	r2, r2, rrx
 800084e:	ebb6 0e02 	subs.w	lr, r6, r2
 8000852:	eb75 0e03 	sbcs.w	lr, r5, r3
 8000856:	bf22      	ittt	cs
 8000858:	1ab6      	subcs	r6, r6, r2
 800085a:	4675      	movcs	r5, lr
 800085c:	ea40 009c 	orrcs.w	r0, r0, ip, lsr #2
 8000860:	085b      	lsrs	r3, r3, #1
 8000862:	ea4f 0232 	mov.w	r2, r2, rrx
 8000866:	ebb6 0e02 	subs.w	lr, r6, r2
 800086a:	eb75 0e03 	sbcs.w	lr, r5, r3
 800086e:	bf22      	ittt	cs
 8000870:	1ab6      	subcs	r6, r6, r2
 8000872:	4675      	movcs	r5, lr
 8000874:	ea40 00dc 	orrcs.w	r0, r0, ip, lsr #3
 8000878:	ea55 0e06 	orrs.w	lr, r5, r6
 800087c:	d018      	beq.n	80008b0 <__aeabi_ddiv+0x114>
 800087e:	ea4f 1505 	mov.w	r5, r5, lsl #4
 8000882:	ea45 7516 	orr.w	r5, r5, r6, lsr #28
 8000886:	ea4f 1606 	mov.w	r6, r6, lsl #4
 800088a:	ea4f 03c3 	mov.w	r3, r3, lsl #3
 800088e:	ea43 7352 	orr.w	r3, r3, r2, lsr #29
 8000892:	ea4f 02c2 	mov.w	r2, r2, lsl #3
 8000896:	ea5f 1c1c 	movs.w	ip, ip, lsr #4
 800089a:	d1c0      	bne.n	800081e <__aeabi_ddiv+0x82>
 800089c:	f411 1f80 	tst.w	r1, #1048576	; 0x100000
 80008a0:	d10b      	bne.n	80008ba <__aeabi_ddiv+0x11e>
 80008a2:	ea41 0100 	orr.w	r1, r1, r0
 80008a6:	f04f 0000 	mov.w	r0, #0
 80008aa:	f04f 4c00 	mov.w	ip, #2147483648	; 0x80000000
 80008ae:	e7b6      	b.n	800081e <__aeabi_ddiv+0x82>
 80008b0:	f411 1f80 	tst.w	r1, #1048576	; 0x100000
 80008b4:	bf04      	itt	eq
 80008b6:	4301      	orreq	r1, r0
 80008b8:	2000      	moveq	r0, #0
 80008ba:	f1b4 0cfd 	subs.w	ip, r4, #253	; 0xfd
 80008be:	bf88      	it	hi
 80008c0:	f5bc 6fe0 	cmphi.w	ip, #1792	; 0x700
 80008c4:	f63f aeaf 	bhi.w	8000626 <__aeabi_dmul+0xde>
 80008c8:	ebb5 0c03 	subs.w	ip, r5, r3
 80008cc:	bf04      	itt	eq
 80008ce:	ebb6 0c02 	subseq.w	ip, r6, r2
 80008d2:	ea5f 0c50 	movseq.w	ip, r0, lsr #1
 80008d6:	f150 0000 	adcs.w	r0, r0, #0
 80008da:	eb41 5104 	adc.w	r1, r1, r4, lsl #20
 80008de:	bd70      	pop	{r4, r5, r6, pc}
 80008e0:	f00e 4e00 	and.w	lr, lr, #2147483648	; 0x80000000
 80008e4:	ea4e 3111 	orr.w	r1, lr, r1, lsr #12
 80008e8:	eb14 045c 	adds.w	r4, r4, ip, lsr #1
 80008ec:	bfc2      	ittt	gt
 80008ee:	ebd4 050c 	rsbsgt	r5, r4, ip
 80008f2:	ea41 5104 	orrgt.w	r1, r1, r4, lsl #20
 80008f6:	bd70      	popgt	{r4, r5, r6, pc}
 80008f8:	f441 1180 	orr.w	r1, r1, #1048576	; 0x100000
 80008fc:	f04f 0e00 	mov.w	lr, #0
 8000900:	3c01      	subs	r4, #1
 8000902:	e690      	b.n	8000626 <__aeabi_dmul+0xde>
 8000904:	ea45 0e06 	orr.w	lr, r5, r6
 8000908:	e68d      	b.n	8000626 <__aeabi_dmul+0xde>
 800090a:	ea0c 5513 	and.w	r5, ip, r3, lsr #20
 800090e:	ea94 0f0c 	teq	r4, ip
 8000912:	bf08      	it	eq
 8000914:	ea95 0f0c 	teqeq	r5, ip
 8000918:	f43f af3b 	beq.w	8000792 <__aeabi_dmul+0x24a>
 800091c:	ea94 0f0c 	teq	r4, ip
 8000920:	d10a      	bne.n	8000938 <__aeabi_ddiv+0x19c>
 8000922:	ea50 3401 	orrs.w	r4, r0, r1, lsl #12
 8000926:	f47f af34 	bne.w	8000792 <__aeabi_dmul+0x24a>
 800092a:	ea95 0f0c 	teq	r5, ip
 800092e:	f47f af25 	bne.w	800077c <__aeabi_dmul+0x234>
 8000932:	4610      	mov	r0, r2
 8000934:	4619      	mov	r1, r3
 8000936:	e72c      	b.n	8000792 <__aeabi_dmul+0x24a>
 8000938:	ea95 0f0c 	teq	r5, ip
 800093c:	d106      	bne.n	800094c <__aeabi_ddiv+0x1b0>
 800093e:	ea52 3503 	orrs.w	r5, r2, r3, lsl #12
 8000942:	f43f aefd 	beq.w	8000740 <__aeabi_dmul+0x1f8>
 8000946:	4610      	mov	r0, r2
 8000948:	4619      	mov	r1, r3
 800094a:	e722      	b.n	8000792 <__aeabi_dmul+0x24a>
 800094c:	ea50 0641 	orrs.w	r6, r0, r1, lsl #1
 8000950:	bf18      	it	ne
 8000952:	ea52 0643 	orrsne.w	r6, r2, r3, lsl #1
 8000956:	f47f aec5 	bne.w	80006e4 <__aeabi_dmul+0x19c>
 800095a:	ea50 0441 	orrs.w	r4, r0, r1, lsl #1
 800095e:	f47f af0d 	bne.w	800077c <__aeabi_dmul+0x234>
 8000962:	ea52 0543 	orrs.w	r5, r2, r3, lsl #1
 8000966:	f47f aeeb 	bne.w	8000740 <__aeabi_dmul+0x1f8>
 800096a:	e712      	b.n	8000792 <__aeabi_dmul+0x24a>

0800096c <__gedf2>:
 800096c:	f04f 3cff 	mov.w	ip, #4294967295
 8000970:	e006      	b.n	8000980 <__cmpdf2+0x4>
 8000972:	bf00      	nop

08000974 <__ledf2>:
 8000974:	f04f 0c01 	mov.w	ip, #1
 8000978:	e002      	b.n	8000980 <__cmpdf2+0x4>
 800097a:	bf00      	nop

0800097c <__cmpdf2>:
 800097c:	f04f 0c01 	mov.w	ip, #1
 8000980:	f84d cd04 	str.w	ip, [sp, #-4]!
 8000984:	ea4f 0c41 	mov.w	ip, r1, lsl #1
 8000988:	ea7f 5c6c 	mvns.w	ip, ip, asr #21
 800098c:	ea4f 0c43 	mov.w	ip, r3, lsl #1
 8000990:	bf18      	it	ne
 8000992:	ea7f 5c6c 	mvnsne.w	ip, ip, asr #21
 8000996:	d01b      	beq.n	80009d0 <__cmpdf2+0x54>
 8000998:	b001      	add	sp, #4
 800099a:	ea50 0c41 	orrs.w	ip, r0, r1, lsl #1
 800099e:	bf0c      	ite	eq
 80009a0:	ea52 0c43 	orrseq.w	ip, r2, r3, lsl #1
 80009a4:	ea91 0f03 	teqne	r1, r3
 80009a8:	bf02      	ittt	eq
 80009aa:	ea90 0f02 	teqeq	r0, r2
 80009ae:	2000      	moveq	r0, #0
 80009b0:	4770      	bxeq	lr
 80009b2:	f110 0f00 	cmn.w	r0, #0
 80009b6:	ea91 0f03 	teq	r1, r3
 80009ba:	bf58      	it	pl
 80009bc:	4299      	cmppl	r1, r3
 80009be:	bf08      	it	eq
 80009c0:	4290      	cmpeq	r0, r2
 80009c2:	bf2c      	ite	cs
 80009c4:	17d8      	asrcs	r0, r3, #31
 80009c6:	ea6f 70e3 	mvncc.w	r0, r3, asr #31
 80009ca:	f040 0001 	orr.w	r0, r0, #1
 80009ce:	4770      	bx	lr
 80009d0:	ea4f 0c41 	mov.w	ip, r1, lsl #1
 80009d4:	ea7f 5c6c 	mvns.w	ip, ip, asr #21
 80009d8:	d102      	bne.n	80009e0 <__cmpdf2+0x64>
 80009da:	ea50 3c01 	orrs.w	ip, r0, r1, lsl #12
 80009de:	d107      	bne.n	80009f0 <__cmpdf2+0x74>
 80009e0:	ea4f 0c43 	mov.w	ip, r3, lsl #1
 80009e4:	ea7f 5c6c 	mvns.w	ip, ip, asr #21
 80009e8:	d1d6      	bne.n	8000998 <__cmpdf2+0x1c>
 80009ea:	ea52 3c03 	orrs.w	ip, r2, r3, lsl #12
 80009ee:	d0d3      	beq.n	8000998 <__cmpdf2+0x1c>
 80009f0:	f85d 0b04 	ldr.w	r0, [sp], #4
 80009f4:	4770      	bx	lr
 80009f6:	bf00      	nop

080009f8 <__aeabi_cdrcmple>:
 80009f8:	4684      	mov	ip, r0
 80009fa:	4610      	mov	r0, r2
 80009fc:	4662      	mov	r2, ip
 80009fe:	468c      	mov	ip, r1
 8000a00:	4619      	mov	r1, r3
 8000a02:	4663      	mov	r3, ip
 8000a04:	e000      	b.n	8000a08 <__aeabi_cdcmpeq>
 8000a06:	bf00      	nop

08000a08 <__aeabi_cdcmpeq>:
 8000a08:	b501      	push	{r0, lr}
 8000a0a:	f7ff ffb7 	bl	800097c <__cmpdf2>
 8000a0e:	2800      	cmp	r0, #0
 8000a10:	bf48      	it	mi
 8000a12:	f110 0f00 	cmnmi.w	r0, #0
 8000a16:	bd01      	pop	{r0, pc}

08000a18 <__aeabi_dcmpeq>:
 8000a18:	f84d ed08 	str.w	lr, [sp, #-8]!
 8000a1c:	f7ff fff4 	bl	8000a08 <__aeabi_cdcmpeq>
 8000a20:	bf0c      	ite	eq
 8000a22:	2001      	moveq	r0, #1
 8000a24:	2000      	movne	r0, #0
 8000a26:	f85d fb08 	ldr.w	pc, [sp], #8
 8000a2a:	bf00      	nop

08000a2c <__aeabi_dcmplt>:
 8000a2c:	f84d ed08 	str.w	lr, [sp, #-8]!
 8000a30:	f7ff ffea 	bl	8000a08 <__aeabi_cdcmpeq>
 8000a34:	bf34      	ite	cc
 8000a36:	2001      	movcc	r0, #1
 8000a38:	2000      	movcs	r0, #0
 8000a3a:	f85d fb08 	ldr.w	pc, [sp], #8
 8000a3e:	bf00      	nop

08000a40 <__aeabi_dcmple>:
 8000a40:	f84d ed08 	str.w	lr, [sp, #-8]!
 8000a44:	f7ff ffe0 	bl	8000a08 <__aeabi_cdcmpeq>
 8000a48:	bf94      	ite	ls
 8000a4a:	2001      	movls	r0, #1
 8000a4c:	2000      	movhi	r0, #0
 8000a4e:	f85d fb08 	ldr.w	pc, [sp], #8
 8000a52:	bf00      	nop

08000a54 <__aeabi_dcmpge>:
 8000a54:	f84d ed08 	str.w	lr, [sp, #-8]!
 8000a58:	f7ff ffce 	bl	80009f8 <__aeabi_cdrcmple>
 8000a5c:	bf94      	ite	ls
 8000a5e:	2001      	movls	r0, #1
 8000a60:	2000      	movhi	r0, #0
 8000a62:	f85d fb08 	ldr.w	pc, [sp], #8
 8000a66:	bf00      	nop

08000a68 <__aeabi_dcmpgt>:
 8000a68:	f84d ed08 	str.w	lr, [sp, #-8]!
 8000a6c:	f7ff ffc4 	bl	80009f8 <__aeabi_cdrcmple>
 8000a70:	bf34      	ite	cc
 8000a72:	2001      	movcc	r0, #1
 8000a74:	2000      	movcs	r0, #0
 8000a76:	f85d fb08 	ldr.w	pc, [sp], #8
 8000a7a:	bf00      	nop

08000a7c <__aeabi_dcmpun>:
 8000a7c:	ea4f 0c41 	mov.w	ip, r1, lsl #1
 8000a80:	ea7f 5c6c 	mvns.w	ip, ip, asr #21
 8000a84:	d102      	bne.n	8000a8c <__aeabi_dcmpun+0x10>
 8000a86:	ea50 3c01 	orrs.w	ip, r0, r1, lsl #12
 8000a8a:	d10a      	bne.n	8000aa2 <__aeabi_dcmpun+0x26>
 8000a8c:	ea4f 0c43 	mov.w	ip, r3, lsl #1
 8000a90:	ea7f 5c6c 	mvns.w	ip, ip, asr #21
 8000a94:	d102      	bne.n	8000a9c <__aeabi_dcmpun+0x20>
 8000a96:	ea52 3c03 	orrs.w	ip, r2, r3, lsl #12
 8000a9a:	d102      	bne.n	8000aa2 <__aeabi_dcmpun+0x26>
 8000a9c:	f04f 0000 	mov.w	r0, #0
 8000aa0:	4770      	bx	lr
 8000aa2:	f04f 0001 	mov.w	r0, #1
 8000aa6:	4770      	bx	lr

08000aa8 <__aeabi_d2iz>:
 8000aa8:	ea4f 0241 	mov.w	r2, r1, lsl #1
 8000aac:	f512 1200 	adds.w	r2, r2, #2097152	; 0x200000
 8000ab0:	d215      	bcs.n	8000ade <__aeabi_d2iz+0x36>
 8000ab2:	d511      	bpl.n	8000ad8 <__aeabi_d2iz+0x30>
 8000ab4:	f46f 7378 	mvn.w	r3, #992	; 0x3e0
 8000ab8:	ebb3 5262 	subs.w	r2, r3, r2, asr #21
 8000abc:	d912      	bls.n	8000ae4 <__aeabi_d2iz+0x3c>
 8000abe:	ea4f 23c1 	mov.w	r3, r1, lsl #11
 8000ac2:	f043 4300 	orr.w	r3, r3, #2147483648	; 0x80000000
 8000ac6:	ea43 5350 	orr.w	r3, r3, r0, lsr #21
 8000aca:	f011 4f00 	tst.w	r1, #2147483648	; 0x80000000
 8000ace:	fa23 f002 	lsr.w	r0, r3, r2
 8000ad2:	bf18      	it	ne
 8000ad4:	4240      	negne	r0, r0
 8000ad6:	4770      	bx	lr
 8000ad8:	f04f 0000 	mov.w	r0, #0
 8000adc:	4770      	bx	lr
 8000ade:	ea50 3001 	orrs.w	r0, r0, r1, lsl #12
 8000ae2:	d105      	bne.n	8000af0 <__aeabi_d2iz+0x48>
 8000ae4:	f011 4000 	ands.w	r0, r1, #2147483648	; 0x80000000
 8000ae8:	bf08      	it	eq
 8000aea:	f06f 4000 	mvneq.w	r0, #2147483648	; 0x80000000
 8000aee:	4770      	bx	lr
 8000af0:	f04f 0000 	mov.w	r0, #0
 8000af4:	4770      	bx	lr
 8000af6:	bf00      	nop

08000af8 <__aeabi_d2f>:
 8000af8:	ea4f 0241 	mov.w	r2, r1, lsl #1
 8000afc:	f1b2 43e0 	subs.w	r3, r2, #1879048192	; 0x70000000
 8000b00:	bf24      	itt	cs
 8000b02:	f5b3 1c00 	subscs.w	ip, r3, #2097152	; 0x200000
 8000b06:	f1dc 5cfe 	rsbscs	ip, ip, #532676608	; 0x1fc00000
 8000b0a:	d90d      	bls.n	8000b28 <__aeabi_d2f+0x30>
 8000b0c:	f001 4c00 	and.w	ip, r1, #2147483648	; 0x80000000
 8000b10:	ea4f 02c0 	mov.w	r2, r0, lsl #3
 8000b14:	ea4c 7050 	orr.w	r0, ip, r0, lsr #29
 8000b18:	f1b2 4f00 	cmp.w	r2, #2147483648	; 0x80000000
 8000b1c:	eb40 0083 	adc.w	r0, r0, r3, lsl #2
 8000b20:	bf08      	it	eq
 8000b22:	f020 0001 	biceq.w	r0, r0, #1
 8000b26:	4770      	bx	lr
 8000b28:	f011 4f80 	tst.w	r1, #1073741824	; 0x40000000
 8000b2c:	d121      	bne.n	8000b72 <__aeabi_d2f+0x7a>
 8000b2e:	f113 7238 	adds.w	r2, r3, #48234496	; 0x2e00000
 8000b32:	bfbc      	itt	lt
 8000b34:	f001 4000 	andlt.w	r0, r1, #2147483648	; 0x80000000
 8000b38:	4770      	bxlt	lr
 8000b3a:	f441 1180 	orr.w	r1, r1, #1048576	; 0x100000
 8000b3e:	ea4f 5252 	mov.w	r2, r2, lsr #21
 8000b42:	f1c2 0218 	rsb	r2, r2, #24
 8000b46:	f1c2 0c20 	rsb	ip, r2, #32
 8000b4a:	fa10 f30c 	lsls.w	r3, r0, ip
 8000b4e:	fa20 f002 	lsr.w	r0, r0, r2
 8000b52:	bf18      	it	ne
 8000b54:	f040 0001 	orrne.w	r0, r0, #1
 8000b58:	ea4f 23c1 	mov.w	r3, r1, lsl #11
 8000b5c:	ea4f 23d3 	mov.w	r3, r3, lsr #11
 8000b60:	fa03 fc0c 	lsl.w	ip, r3, ip
 8000b64:	ea40 000c 	orr.w	r0, r0, ip
 8000b68:	fa23 f302 	lsr.w	r3, r3, r2
 8000b6c:	ea4f 0343 	mov.w	r3, r3, lsl #1
 8000b70:	e7cc      	b.n	8000b0c <__aeabi_d2f+0x14>
 8000b72:	ea7f 5362 	mvns.w	r3, r2, asr #21
 8000b76:	d107      	bne.n	8000b88 <__aeabi_d2f+0x90>
 8000b78:	ea50 3301 	orrs.w	r3, r0, r1, lsl #12
 8000b7c:	bf1e      	ittt	ne
 8000b7e:	f04f 40fe 	movne.w	r0, #2130706432	; 0x7f000000
 8000b82:	f440 0040 	orrne.w	r0, r0, #12582912	; 0xc00000
 8000b86:	4770      	bxne	lr
 8000b88:	f001 4000 	and.w	r0, r1, #2147483648	; 0x80000000
 8000b8c:	f040 40fe 	orr.w	r0, r0, #2130706432	; 0x7f000000
 8000b90:	f440 0000 	orr.w	r0, r0, #8388608	; 0x800000
 8000b94:	4770      	bx	lr
 8000b96:	bf00      	nop

08000b98 <__aeabi_uldivmod>:
 8000b98:	b953      	cbnz	r3, 8000bb0 <__aeabi_uldivmod+0x18>
 8000b9a:	b94a      	cbnz	r2, 8000bb0 <__aeabi_uldivmod+0x18>
 8000b9c:	2900      	cmp	r1, #0
 8000b9e:	bf08      	it	eq
 8000ba0:	2800      	cmpeq	r0, #0
 8000ba2:	bf1c      	itt	ne
 8000ba4:	f04f 31ff 	movne.w	r1, #4294967295
 8000ba8:	f04f 30ff 	movne.w	r0, #4294967295
 8000bac:	f000 b96e 	b.w	8000e8c <__aeabi_idiv0>
 8000bb0:	f1ad 0c08 	sub.w	ip, sp, #8
 8000bb4:	e96d ce04 	strd	ip, lr, [sp, #-16]!
 8000bb8:	f000 f806 	bl	8000bc8 <__udivmoddi4>
 8000bbc:	f8dd e004 	ldr.w	lr, [sp, #4]
 8000bc0:	e9dd 2302 	ldrd	r2, r3, [sp, #8]
 8000bc4:	b004      	add	sp, #16
 8000bc6:	4770      	bx	lr

08000bc8 <__udivmoddi4>:
 8000bc8:	e92d 47f0 	stmdb	sp!, {r4, r5, r6, r7, r8, r9, sl, lr}
 8000bcc:	9d08      	ldr	r5, [sp, #32]
 8000bce:	4604      	mov	r4, r0
 8000bd0:	468c      	mov	ip, r1
 8000bd2:	2b00      	cmp	r3, #0
 8000bd4:	f040 8083 	bne.w	8000cde <__udivmoddi4+0x116>
 8000bd8:	428a      	cmp	r2, r1
 8000bda:	4617      	mov	r7, r2
 8000bdc:	d947      	bls.n	8000c6e <__udivmoddi4+0xa6>
 8000bde:	fab2 f282 	clz	r2, r2
 8000be2:	b142      	cbz	r2, 8000bf6 <__udivmoddi4+0x2e>
 8000be4:	f1c2 0020 	rsb	r0, r2, #32
 8000be8:	fa24 f000 	lsr.w	r0, r4, r0
 8000bec:	4091      	lsls	r1, r2
 8000bee:	4097      	lsls	r7, r2
 8000bf0:	ea40 0c01 	orr.w	ip, r0, r1
 8000bf4:	4094      	lsls	r4, r2
 8000bf6:	ea4f 4817 	mov.w	r8, r7, lsr #16
 8000bfa:	0c23      	lsrs	r3, r4, #16
 8000bfc:	fbbc f6f8 	udiv	r6, ip, r8
 8000c00:	fa1f fe87 	uxth.w	lr, r7
 8000c04:	fb08 c116 	mls	r1, r8, r6, ip
 8000c08:	ea43 4301 	orr.w	r3, r3, r1, lsl #16
 8000c0c:	fb06 f10e 	mul.w	r1, r6, lr
 8000c10:	4299      	cmp	r1, r3
 8000c12:	d909      	bls.n	8000c28 <__udivmoddi4+0x60>
 8000c14:	18fb      	adds	r3, r7, r3
 8000c16:	f106 30ff 	add.w	r0, r6, #4294967295
 8000c1a:	f080 8119 	bcs.w	8000e50 <__udivmoddi4+0x288>
 8000c1e:	4299      	cmp	r1, r3
 8000c20:	f240 8116 	bls.w	8000e50 <__udivmoddi4+0x288>
 8000c24:	3e02      	subs	r6, #2
 8000c26:	443b      	add	r3, r7
 8000c28:	1a5b      	subs	r3, r3, r1
 8000c2a:	b2a4      	uxth	r4, r4
 8000c2c:	fbb3 f0f8 	udiv	r0, r3, r8
 8000c30:	fb08 3310 	mls	r3, r8, r0, r3
 8000c34:	ea44 4403 	orr.w	r4, r4, r3, lsl #16
 8000c38:	fb00 fe0e 	mul.w	lr, r0, lr
 8000c3c:	45a6      	cmp	lr, r4
 8000c3e:	d909      	bls.n	8000c54 <__udivmoddi4+0x8c>
 8000c40:	193c      	adds	r4, r7, r4
 8000c42:	f100 33ff 	add.w	r3, r0, #4294967295
 8000c46:	f080 8105 	bcs.w	8000e54 <__udivmoddi4+0x28c>
 8000c4a:	45a6      	cmp	lr, r4
 8000c4c:	f240 8102 	bls.w	8000e54 <__udivmoddi4+0x28c>
 8000c50:	3802      	subs	r0, #2
 8000c52:	443c      	add	r4, r7
 8000c54:	ea40 4006 	orr.w	r0, r0, r6, lsl #16
 8000c58:	eba4 040e 	sub.w	r4, r4, lr
 8000c5c:	2600      	movs	r6, #0
 8000c5e:	b11d      	cbz	r5, 8000c68 <__udivmoddi4+0xa0>
 8000c60:	40d4      	lsrs	r4, r2
 8000c62:	2300      	movs	r3, #0
 8000c64:	e9c5 4300 	strd	r4, r3, [r5]
 8000c68:	4631      	mov	r1, r6
 8000c6a:	e8bd 87f0 	ldmia.w	sp!, {r4, r5, r6, r7, r8, r9, sl, pc}
 8000c6e:	b902      	cbnz	r2, 8000c72 <__udivmoddi4+0xaa>
 8000c70:	deff      	udf	#255	; 0xff
 8000c72:	fab2 f282 	clz	r2, r2
 8000c76:	2a00      	cmp	r2, #0
 8000c78:	d150      	bne.n	8000d1c <__udivmoddi4+0x154>
 8000c7a:	1bcb      	subs	r3, r1, r7
 8000c7c:	ea4f 4e17 	mov.w	lr, r7, lsr #16
 8000c80:	fa1f f887 	uxth.w	r8, r7
 8000c84:	2601      	movs	r6, #1
 8000c86:	fbb3 fcfe 	udiv	ip, r3, lr
 8000c8a:	0c21      	lsrs	r1, r4, #16
 8000c8c:	fb0e 331c 	mls	r3, lr, ip, r3
 8000c90:	ea41 4103 	orr.w	r1, r1, r3, lsl #16
 8000c94:	fb08 f30c 	mul.w	r3, r8, ip
 8000c98:	428b      	cmp	r3, r1
 8000c9a:	d907      	bls.n	8000cac <__udivmoddi4+0xe4>
 8000c9c:	1879      	adds	r1, r7, r1
 8000c9e:	f10c 30ff 	add.w	r0, ip, #4294967295
 8000ca2:	d202      	bcs.n	8000caa <__udivmoddi4+0xe2>
 8000ca4:	428b      	cmp	r3, r1
 8000ca6:	f200 80e9 	bhi.w	8000e7c <__udivmoddi4+0x2b4>
 8000caa:	4684      	mov	ip, r0
 8000cac:	1ac9      	subs	r1, r1, r3
 8000cae:	b2a3      	uxth	r3, r4
 8000cb0:	fbb1 f0fe 	udiv	r0, r1, lr
 8000cb4:	fb0e 1110 	mls	r1, lr, r0, r1
 8000cb8:	ea43 4401 	orr.w	r4, r3, r1, lsl #16
 8000cbc:	fb08 f800 	mul.w	r8, r8, r0
 8000cc0:	45a0      	cmp	r8, r4
 8000cc2:	d907      	bls.n	8000cd4 <__udivmoddi4+0x10c>
 8000cc4:	193c      	adds	r4, r7, r4
 8000cc6:	f100 33ff 	add.w	r3, r0, #4294967295
 8000cca:	d202      	bcs.n	8000cd2 <__udivmoddi4+0x10a>
 8000ccc:	45a0      	cmp	r8, r4
 8000cce:	f200 80d9 	bhi.w	8000e84 <__udivmoddi4+0x2bc>
 8000cd2:	4618      	mov	r0, r3
 8000cd4:	eba4 0408 	sub.w	r4, r4, r8
 8000cd8:	ea40 400c 	orr.w	r0, r0, ip, lsl #16
 8000cdc:	e7bf      	b.n	8000c5e <__udivmoddi4+0x96>
 8000cde:	428b      	cmp	r3, r1
 8000ce0:	d909      	bls.n	8000cf6 <__udivmoddi4+0x12e>
 8000ce2:	2d00      	cmp	r5, #0
 8000ce4:	f000 80b1 	beq.w	8000e4a <__udivmoddi4+0x282>
 8000ce8:	2600      	movs	r6, #0
 8000cea:	e9c5 0100 	strd	r0, r1, [r5]
 8000cee:	4630      	mov	r0, r6
 8000cf0:	4631      	mov	r1, r6
 8000cf2:	e8bd 87f0 	ldmia.w	sp!, {r4, r5, r6, r7, r8, r9, sl, pc}
 8000cf6:	fab3 f683 	clz	r6, r3
 8000cfa:	2e00      	cmp	r6, #0
 8000cfc:	d14a      	bne.n	8000d94 <__udivmoddi4+0x1cc>
 8000cfe:	428b      	cmp	r3, r1
 8000d00:	d302      	bcc.n	8000d08 <__udivmoddi4+0x140>
 8000d02:	4282      	cmp	r2, r0
 8000d04:	f200 80b8 	bhi.w	8000e78 <__udivmoddi4+0x2b0>
 8000d08:	1a84      	subs	r4, r0, r2
 8000d0a:	eb61 0103 	sbc.w	r1, r1, r3
 8000d0e:	2001      	movs	r0, #1
 8000d10:	468c      	mov	ip, r1
 8000d12:	2d00      	cmp	r5, #0
 8000d14:	d0a8      	beq.n	8000c68 <__udivmoddi4+0xa0>
 8000d16:	e9c5 4c00 	strd	r4, ip, [r5]
 8000d1a:	e7a5      	b.n	8000c68 <__udivmoddi4+0xa0>
 8000d1c:	f1c2 0320 	rsb	r3, r2, #32
 8000d20:	fa20 f603 	lsr.w	r6, r0, r3
 8000d24:	4097      	lsls	r7, r2
 8000d26:	fa01 f002 	lsl.w	r0, r1, r2
 8000d2a:	ea4f 4e17 	mov.w	lr, r7, lsr #16
 8000d2e:	40d9      	lsrs	r1, r3
 8000d30:	4330      	orrs	r0, r6
 8000d32:	0c03      	lsrs	r3, r0, #16
 8000d34:	fbb1 f6fe 	udiv	r6, r1, lr
 8000d38:	fa1f f887 	uxth.w	r8, r7
 8000d3c:	fb0e 1116 	mls	r1, lr, r6, r1
 8000d40:	ea43 4301 	orr.w	r3, r3, r1, lsl #16
 8000d44:	fb06 f108 	mul.w	r1, r6, r8
 8000d48:	4299      	cmp	r1, r3
 8000d4a:	fa04 f402 	lsl.w	r4, r4, r2
 8000d4e:	d909      	bls.n	8000d64 <__udivmoddi4+0x19c>
 8000d50:	18fb      	adds	r3, r7, r3
 8000d52:	f106 3cff 	add.w	ip, r6, #4294967295
 8000d56:	f080 808d 	bcs.w	8000e74 <__udivmoddi4+0x2ac>
 8000d5a:	4299      	cmp	r1, r3
 8000d5c:	f240 808a 	bls.w	8000e74 <__udivmoddi4+0x2ac>
 8000d60:	3e02      	subs	r6, #2
 8000d62:	443b      	add	r3, r7
 8000d64:	1a5b      	subs	r3, r3, r1
 8000d66:	b281      	uxth	r1, r0
 8000d68:	fbb3 f0fe 	udiv	r0, r3, lr
 8000d6c:	fb0e 3310 	mls	r3, lr, r0, r3
 8000d70:	ea41 4103 	orr.w	r1, r1, r3, lsl #16
 8000d74:	fb00 f308 	mul.w	r3, r0, r8
 8000d78:	428b      	cmp	r3, r1
 8000d7a:	d907      	bls.n	8000d8c <__udivmoddi4+0x1c4>
 8000d7c:	1879      	adds	r1, r7, r1
 8000d7e:	f100 3cff 	add.w	ip, r0, #4294967295
 8000d82:	d273      	bcs.n	8000e6c <__udivmoddi4+0x2a4>
 8000d84:	428b      	cmp	r3, r1
 8000d86:	d971      	bls.n	8000e6c <__udivmoddi4+0x2a4>
 8000d88:	3802      	subs	r0, #2
 8000d8a:	4439      	add	r1, r7
 8000d8c:	1acb      	subs	r3, r1, r3
 8000d8e:	ea40 4606 	orr.w	r6, r0, r6, lsl #16
 8000d92:	e778      	b.n	8000c86 <__udivmoddi4+0xbe>
 8000d94:	f1c6 0c20 	rsb	ip, r6, #32
 8000d98:	fa03 f406 	lsl.w	r4, r3, r6
 8000d9c:	fa22 f30c 	lsr.w	r3, r2, ip
 8000da0:	431c      	orrs	r4, r3
 8000da2:	fa20 f70c 	lsr.w	r7, r0, ip
 8000da6:	fa01 f306 	lsl.w	r3, r1, r6
 8000daa:	ea4f 4e14 	mov.w	lr, r4, lsr #16
 8000dae:	fa21 f10c 	lsr.w	r1, r1, ip
 8000db2:	431f      	orrs	r7, r3
 8000db4:	0c3b      	lsrs	r3, r7, #16
 8000db6:	fbb1 f9fe 	udiv	r9, r1, lr
 8000dba:	fa1f f884 	uxth.w	r8, r4
 8000dbe:	fb0e 1119 	mls	r1, lr, r9, r1
 8000dc2:	ea43 4101 	orr.w	r1, r3, r1, lsl #16
 8000dc6:	fb09 fa08 	mul.w	sl, r9, r8
 8000dca:	458a      	cmp	sl, r1
 8000dcc:	fa02 f206 	lsl.w	r2, r2, r6
 8000dd0:	fa00 f306 	lsl.w	r3, r0, r6
 8000dd4:	d908      	bls.n	8000de8 <__udivmoddi4+0x220>
 8000dd6:	1861      	adds	r1, r4, r1
 8000dd8:	f109 30ff 	add.w	r0, r9, #4294967295
 8000ddc:	d248      	bcs.n	8000e70 <__udivmoddi4+0x2a8>
 8000dde:	458a      	cmp	sl, r1
 8000de0:	d946      	bls.n	8000e70 <__udivmoddi4+0x2a8>
 8000de2:	f1a9 0902 	sub.w	r9, r9, #2
 8000de6:	4421      	add	r1, r4
 8000de8:	eba1 010a 	sub.w	r1, r1, sl
 8000dec:	b2bf      	uxth	r7, r7
 8000dee:	fbb1 f0fe 	udiv	r0, r1, lr
 8000df2:	fb0e 1110 	mls	r1, lr, r0, r1
 8000df6:	ea47 4701 	orr.w	r7, r7, r1, lsl #16
 8000dfa:	fb00 f808 	mul.w	r8, r0, r8
 8000dfe:	45b8      	cmp	r8, r7
 8000e00:	d907      	bls.n	8000e12 <__udivmoddi4+0x24a>
 8000e02:	19e7      	adds	r7, r4, r7
 8000e04:	f100 31ff 	add.w	r1, r0, #4294967295
 8000e08:	d22e      	bcs.n	8000e68 <__udivmoddi4+0x2a0>
 8000e0a:	45b8      	cmp	r8, r7
 8000e0c:	d92c      	bls.n	8000e68 <__udivmoddi4+0x2a0>
 8000e0e:	3802      	subs	r0, #2
 8000e10:	4427      	add	r7, r4
 8000e12:	ea40 4009 	orr.w	r0, r0, r9, lsl #16
 8000e16:	eba7 0708 	sub.w	r7, r7, r8
 8000e1a:	fba0 8902 	umull	r8, r9, r0, r2
 8000e1e:	454f      	cmp	r7, r9
 8000e20:	46c6      	mov	lr, r8
 8000e22:	4649      	mov	r1, r9
 8000e24:	d31a      	bcc.n	8000e5c <__udivmoddi4+0x294>
 8000e26:	d017      	beq.n	8000e58 <__udivmoddi4+0x290>
 8000e28:	b15d      	cbz	r5, 8000e42 <__udivmoddi4+0x27a>
 8000e2a:	ebb3 020e 	subs.w	r2, r3, lr
 8000e2e:	eb67 0701 	sbc.w	r7, r7, r1
 8000e32:	fa07 fc0c 	lsl.w	ip, r7, ip
 8000e36:	40f2      	lsrs	r2, r6
 8000e38:	ea4c 0202 	orr.w	r2, ip, r2
 8000e3c:	40f7      	lsrs	r7, r6
 8000e3e:	e9c5 2700 	strd	r2, r7, [r5]
 8000e42:	2600      	movs	r6, #0
 8000e44:	4631      	mov	r1, r6
 8000e46:	e8bd 87f0 	ldmia.w	sp!, {r4, r5, r6, r7, r8, r9, sl, pc}
 8000e4a:	462e      	mov	r6, r5
 8000e4c:	4628      	mov	r0, r5
 8000e4e:	e70b      	b.n	8000c68 <__udivmoddi4+0xa0>
 8000e50:	4606      	mov	r6, r0
 8000e52:	e6e9      	b.n	8000c28 <__udivmoddi4+0x60>
 8000e54:	4618      	mov	r0, r3
 8000e56:	e6fd      	b.n	8000c54 <__udivmoddi4+0x8c>
 8000e58:	4543      	cmp	r3, r8
 8000e5a:	d2e5      	bcs.n	8000e28 <__udivmoddi4+0x260>
 8000e5c:	ebb8 0e02 	subs.w	lr, r8, r2
 8000e60:	eb69 0104 	sbc.w	r1, r9, r4
 8000e64:	3801      	subs	r0, #1
 8000e66:	e7df      	b.n	8000e28 <__udivmoddi4+0x260>
 8000e68:	4608      	mov	r0, r1
 8000e6a:	e7d2      	b.n	8000e12 <__udivmoddi4+0x24a>
 8000e6c:	4660      	mov	r0, ip
 8000e6e:	e78d      	b.n	8000d8c <__udivmoddi4+0x1c4>
 8000e70:	4681      	mov	r9, r0
 8000e72:	e7b9      	b.n	8000de8 <__udivmoddi4+0x220>
 8000e74:	4666      	mov	r6, ip
 8000e76:	e775      	b.n	8000d64 <__udivmoddi4+0x19c>
 8000e78:	4630      	mov	r0, r6
 8000e7a:	e74a      	b.n	8000d12 <__udivmoddi4+0x14a>
 8000e7c:	f1ac 0c02 	sub.w	ip, ip, #2
 8000e80:	4439      	add	r1, r7
 8000e82:	e713      	b.n	8000cac <__udivmoddi4+0xe4>
 8000e84:	3802      	subs	r0, #2
 8000e86:	443c      	add	r4, r7
 8000e88:	e724      	b.n	8000cd4 <__udivmoddi4+0x10c>
 8000e8a:	bf00      	nop

08000e8c <__aeabi_idiv0>:
 8000e8c:	4770      	bx	lr
 8000e8e:	bf00      	nop

08000e90 <MX_ADC1_Init>:
ADC_HandleTypeDef hadc1;
DMA_HandleTypeDef hdma_adc1;

/* ADC1 init function */
void MX_ADC1_Init(void)
{
 8000e90:	b500      	push	{lr}
 8000e92:	b085      	sub	sp, #20

  /* USER CODE BEGIN ADC1_Init 0 */

  /* USER CODE END ADC1_Init 0 */

  ADC_ChannelConfTypeDef sConfig = {0};
 8000e94:	2300      	movs	r3, #0
 8000e96:	9300      	str	r3, [sp, #0]
 8000e98:	9301      	str	r3, [sp, #4]
 8000e9a:	9302      	str	r3, [sp, #8]
 8000e9c:	9303      	str	r3, [sp, #12]
  /* USER CODE BEGIN ADC1_Init 1 */

  /* USER CODE END ADC1_Init 1 */
  /** Configure the global features of the ADC (Clock, Resolution, Data Alignment and number of conversion)
  */
  hadc1.Instance = ADC1;
 8000e9e:	4842      	ldr	r0, [pc, #264]	; (8000fa8 <MX_ADC1_Init+0x118>)
 8000ea0:	4a42      	ldr	r2, [pc, #264]	; (8000fac <MX_ADC1_Init+0x11c>)
 8000ea2:	6002      	str	r2, [r0, #0]
  hadc1.Init.ClockPrescaler = ADC_CLOCK_SYNC_PCLK_DIV4;
 8000ea4:	f44f 3280 	mov.w	r2, #65536	; 0x10000
 8000ea8:	6042      	str	r2, [r0, #4]
  hadc1.Init.Resolution = ADC_RESOLUTION_12B;
 8000eaa:	6083      	str	r3, [r0, #8]
  hadc1.Init.ScanConvMode = ENABLE;
 8000eac:	2201      	movs	r2, #1
 8000eae:	6102      	str	r2, [r0, #16]
  hadc1.Init.ContinuousConvMode = ENABLE;
 8000eb0:	7602      	strb	r2, [r0, #24]
  hadc1.Init.DiscontinuousConvMode = DISABLE;
 8000eb2:	f880 3020 	strb.w	r3, [r0, #32]
  hadc1.Init.ExternalTrigConvEdge = ADC_EXTERNALTRIGCONVEDGE_NONE;
 8000eb6:	62c3      	str	r3, [r0, #44]	; 0x2c
  hadc1.Init.ExternalTrigConv = ADC_SOFTWARE_START;
 8000eb8:	493d      	ldr	r1, [pc, #244]	; (8000fb0 <MX_ADC1_Init+0x120>)
 8000eba:	6281      	str	r1, [r0, #40]	; 0x28
  hadc1.Init.DataAlign = ADC_DATAALIGN_RIGHT;
 8000ebc:	60c3      	str	r3, [r0, #12]
  hadc1.Init.NbrOfConversion = 8;
 8000ebe:	2308      	movs	r3, #8
 8000ec0:	61c3      	str	r3, [r0, #28]
  hadc1.Init.DMAContinuousRequests = ENABLE;
 8000ec2:	f880 2030 	strb.w	r2, [r0, #48]	; 0x30
  hadc1.Init.EOCSelection = ADC_EOC_SINGLE_CONV;
 8000ec6:	6142      	str	r2, [r0, #20]
  if (HAL_ADC_Init(&hadc1) != HAL_OK)
 8000ec8:	f004 f830 	bl	8004f2c <HAL_ADC_Init>
 8000ecc:	2800      	cmp	r0, #0
 8000ece:	d14f      	bne.n	8000f70 <MX_ADC1_Init+0xe0>
  {
    Error_Handler();
  }
  /** Configure for the selected ADC regular channel its corresponding rank in the sequencer and its sample time.
  */
  sConfig.Channel = ADC_CHANNEL_0;
 8000ed0:	2300      	movs	r3, #0
 8000ed2:	9300      	str	r3, [sp, #0]
  sConfig.Rank = 1;
 8000ed4:	2301      	movs	r3, #1
 8000ed6:	9301      	str	r3, [sp, #4]
  sConfig.SamplingTime = ADC_SAMPLETIME_56CYCLES;
 8000ed8:	2303      	movs	r3, #3
 8000eda:	9302      	str	r3, [sp, #8]
  if (HAL_ADC_ConfigChannel(&hadc1, &sConfig) != HAL_OK)
 8000edc:	4669      	mov	r1, sp
 8000ede:	4832      	ldr	r0, [pc, #200]	; (8000fa8 <MX_ADC1_Init+0x118>)
 8000ee0:	f004 faaa 	bl	8005438 <HAL_ADC_ConfigChannel>
 8000ee4:	2800      	cmp	r0, #0
 8000ee6:	d146      	bne.n	8000f76 <MX_ADC1_Init+0xe6>
  {
    Error_Handler();
  }
  /** Configure for the selected ADC regular channel its corresponding rank in the sequencer and its sample time.
  */
  sConfig.Channel = ADC_CHANNEL_1;
 8000ee8:	2301      	movs	r3, #1
 8000eea:	9300      	str	r3, [sp, #0]
  sConfig.Rank = 2;
 8000eec:	2302      	movs	r3, #2
 8000eee:	9301      	str	r3, [sp, #4]
  if (HAL_ADC_ConfigChannel(&hadc1, &sConfig) != HAL_OK)
 8000ef0:	4669      	mov	r1, sp
 8000ef2:	482d      	ldr	r0, [pc, #180]	; (8000fa8 <MX_ADC1_Init+0x118>)
 8000ef4:	f004 faa0 	bl	8005438 <HAL_ADC_ConfigChannel>
 8000ef8:	2800      	cmp	r0, #0
 8000efa:	d13f      	bne.n	8000f7c <MX_ADC1_Init+0xec>
  {
    Error_Handler();
  }
  /** Configure for the selected ADC regular channel its corresponding rank in the sequencer and its sample time.
  */
  sConfig.Channel = ADC_CHANNEL_2;
 8000efc:	2302      	movs	r3, #2
 8000efe:	9300      	str	r3, [sp, #0]
  sConfig.Rank = 3;
 8000f00:	2303      	movs	r3, #3
 8000f02:	9301      	str	r3, [sp, #4]
  if (HAL_ADC_ConfigChannel(&hadc1, &sConfig) != HAL_OK)
 8000f04:	4669      	mov	r1, sp
 8000f06:	4828      	ldr	r0, [pc, #160]	; (8000fa8 <MX_ADC1_Init+0x118>)
 8000f08:	f004 fa96 	bl	8005438 <HAL_ADC_ConfigChannel>
 8000f0c:	2800      	cmp	r0, #0
 8000f0e:	d138      	bne.n	8000f82 <MX_ADC1_Init+0xf2>
  {
    Error_Handler();
  }
  /** Configure for the selected ADC regular channel its corresponding rank in the sequencer and its sample time.
  */
  sConfig.Channel = ADC_CHANNEL_3;
 8000f10:	2303      	movs	r3, #3
 8000f12:	9300      	str	r3, [sp, #0]
  sConfig.Rank = 4;
 8000f14:	2304      	movs	r3, #4
 8000f16:	9301      	str	r3, [sp, #4]
  if (HAL_ADC_ConfigChannel(&hadc1, &sConfig) != HAL_OK)
 8000f18:	4669      	mov	r1, sp
 8000f1a:	4823      	ldr	r0, [pc, #140]	; (8000fa8 <MX_ADC1_Init+0x118>)
 8000f1c:	f004 fa8c 	bl	8005438 <HAL_ADC_ConfigChannel>
 8000f20:	bb90      	cbnz	r0, 8000f88 <MX_ADC1_Init+0xf8>
  {
    Error_Handler();
  }
  /** Configure for the selected ADC regular channel its corresponding rank in the sequencer and its sample time.
  */
  sConfig.Channel = ADC_CHANNEL_4;
 8000f22:	2304      	movs	r3, #4
 8000f24:	9300      	str	r3, [sp, #0]
  sConfig.Rank = 5;
 8000f26:	2305      	movs	r3, #5
 8000f28:	9301      	str	r3, [sp, #4]
  if (HAL_ADC_ConfigChannel(&hadc1, &sConfig) != HAL_OK)
 8000f2a:	4669      	mov	r1, sp
 8000f2c:	481e      	ldr	r0, [pc, #120]	; (8000fa8 <MX_ADC1_Init+0x118>)
 8000f2e:	f004 fa83 	bl	8005438 <HAL_ADC_ConfigChannel>
 8000f32:	bb60      	cbnz	r0, 8000f8e <MX_ADC1_Init+0xfe>
  {
    Error_Handler();
  }
  /** Configure for the selected ADC regular channel its corresponding rank in the sequencer and its sample time.
  */
  sConfig.Channel = ADC_CHANNEL_5;
 8000f34:	2305      	movs	r3, #5
 8000f36:	9300      	str	r3, [sp, #0]
  sConfig.Rank = 6;
 8000f38:	2306      	movs	r3, #6
 8000f3a:	9301      	str	r3, [sp, #4]
  if (HAL_ADC_ConfigChannel(&hadc1, &sConfig) != HAL_OK)
 8000f3c:	4669      	mov	r1, sp
 8000f3e:	481a      	ldr	r0, [pc, #104]	; (8000fa8 <MX_ADC1_Init+0x118>)
 8000f40:	f004 fa7a 	bl	8005438 <HAL_ADC_ConfigChannel>
 8000f44:	bb30      	cbnz	r0, 8000f94 <MX_ADC1_Init+0x104>
  {
    Error_Handler();
  }
  /** Configure for the selected ADC regular channel its corresponding rank in the sequencer and its sample time.
  */
  sConfig.Channel = ADC_CHANNEL_6;
 8000f46:	2306      	movs	r3, #6
 8000f48:	9300      	str	r3, [sp, #0]
  sConfig.Rank = 7;
 8000f4a:	2307      	movs	r3, #7
 8000f4c:	9301      	str	r3, [sp, #4]
  if (HAL_ADC_ConfigChannel(&hadc1, &sConfig) != HAL_OK)
 8000f4e:	4669      	mov	r1, sp
 8000f50:	4815      	ldr	r0, [pc, #84]	; (8000fa8 <MX_ADC1_Init+0x118>)
 8000f52:	f004 fa71 	bl	8005438 <HAL_ADC_ConfigChannel>
 8000f56:	bb00      	cbnz	r0, 8000f9a <MX_ADC1_Init+0x10a>
  {
    Error_Handler();
  }
  /** Configure for the selected ADC regular channel its corresponding rank in the sequencer and its sample time.
  */
  sConfig.Channel = ADC_CHANNEL_7;
 8000f58:	2307      	movs	r3, #7
 8000f5a:	9300      	str	r3, [sp, #0]
  sConfig.Rank = 8;
 8000f5c:	2308      	movs	r3, #8
 8000f5e:	9301      	str	r3, [sp, #4]
  if (HAL_ADC_ConfigChannel(&hadc1, &sConfig) != HAL_OK)
 8000f60:	4669      	mov	r1, sp
 8000f62:	4811      	ldr	r0, [pc, #68]	; (8000fa8 <MX_ADC1_Init+0x118>)
 8000f64:	f004 fa68 	bl	8005438 <HAL_ADC_ConfigChannel>
 8000f68:	b9d0      	cbnz	r0, 8000fa0 <MX_ADC1_Init+0x110>
  }
  /* USER CODE BEGIN ADC1_Init 2 */

  /* USER CODE END ADC1_Init 2 */

}
 8000f6a:	b005      	add	sp, #20
 8000f6c:	f85d fb04 	ldr.w	pc, [sp], #4
    Error_Handler();
 8000f70:	f003 fd3c 	bl	80049ec <Error_Handler>
 8000f74:	e7ac      	b.n	8000ed0 <MX_ADC1_Init+0x40>
    Error_Handler();
 8000f76:	f003 fd39 	bl	80049ec <Error_Handler>
 8000f7a:	e7b5      	b.n	8000ee8 <MX_ADC1_Init+0x58>
    Error_Handler();
 8000f7c:	f003 fd36 	bl	80049ec <Error_Handler>
 8000f80:	e7bc      	b.n	8000efc <MX_ADC1_Init+0x6c>
    Error_Handler();
 8000f82:	f003 fd33 	bl	80049ec <Error_Handler>
 8000f86:	e7c3      	b.n	8000f10 <MX_ADC1_Init+0x80>
    Error_Handler();
 8000f88:	f003 fd30 	bl	80049ec <Error_Handler>
 8000f8c:	e7c9      	b.n	8000f22 <MX_ADC1_Init+0x92>
    Error_Handler();
 8000f8e:	f003 fd2d 	bl	80049ec <Error_Handler>
 8000f92:	e7cf      	b.n	8000f34 <MX_ADC1_Init+0xa4>
    Error_Handler();
 8000f94:	f003 fd2a 	bl	80049ec <Error_Handler>
 8000f98:	e7d5      	b.n	8000f46 <MX_ADC1_Init+0xb6>
    Error_Handler();
 8000f9a:	f003 fd27 	bl	80049ec <Error_Handler>
 8000f9e:	e7db      	b.n	8000f58 <MX_ADC1_Init+0xc8>
    Error_Handler();
 8000fa0:	f003 fd24 	bl	80049ec <Error_Handler>
}
 8000fa4:	e7e1      	b.n	8000f6a <MX_ADC1_Init+0xda>
 8000fa6:	bf00      	nop
 8000fa8:	20003048 	.word	0x20003048
 8000fac:	40012000 	.word	0x40012000
 8000fb0:	0f000001 	.word	0x0f000001

08000fb4 <HAL_ADC_MspInit>:

void HAL_ADC_MspInit(ADC_HandleTypeDef* adcHandle)
{
 8000fb4:	b530      	push	{r4, r5, lr}
 8000fb6:	b089      	sub	sp, #36	; 0x24

  GPIO_InitTypeDef GPIO_InitStruct = {0};
 8000fb8:	2300      	movs	r3, #0
 8000fba:	9303      	str	r3, [sp, #12]
 8000fbc:	9304      	str	r3, [sp, #16]
 8000fbe:	9305      	str	r3, [sp, #20]
 8000fc0:	9306      	str	r3, [sp, #24]
 8000fc2:	9307      	str	r3, [sp, #28]
  if(adcHandle->Instance==ADC1)
 8000fc4:	6802      	ldr	r2, [r0, #0]
 8000fc6:	f103 4380 	add.w	r3, r3, #1073741824	; 0x40000000
 8000fca:	f503 3390 	add.w	r3, r3, #73728	; 0x12000
 8000fce:	429a      	cmp	r2, r3
 8000fd0:	d001      	beq.n	8000fd6 <HAL_ADC_MspInit+0x22>
    HAL_NVIC_EnableIRQ(ADC_IRQn);
  /* USER CODE BEGIN ADC1_MspInit 1 */

  /* USER CODE END ADC1_MspInit 1 */
  }
}
 8000fd2:	b009      	add	sp, #36	; 0x24
 8000fd4:	bd30      	pop	{r4, r5, pc}
 8000fd6:	4604      	mov	r4, r0
    __HAL_RCC_ADC1_CLK_ENABLE();
 8000fd8:	2500      	movs	r5, #0
 8000fda:	9501      	str	r5, [sp, #4]
 8000fdc:	f503 338c 	add.w	r3, r3, #71680	; 0x11800
 8000fe0:	6c5a      	ldr	r2, [r3, #68]	; 0x44
 8000fe2:	f442 7280 	orr.w	r2, r2, #256	; 0x100
 8000fe6:	645a      	str	r2, [r3, #68]	; 0x44
 8000fe8:	6c5a      	ldr	r2, [r3, #68]	; 0x44
 8000fea:	f402 7280 	and.w	r2, r2, #256	; 0x100
 8000fee:	9201      	str	r2, [sp, #4]
 8000ff0:	9a01      	ldr	r2, [sp, #4]
    __HAL_RCC_GPIOA_CLK_ENABLE();
 8000ff2:	9502      	str	r5, [sp, #8]
 8000ff4:	6b1a      	ldr	r2, [r3, #48]	; 0x30
 8000ff6:	f042 0201 	orr.w	r2, r2, #1
 8000ffa:	631a      	str	r2, [r3, #48]	; 0x30
 8000ffc:	6b1b      	ldr	r3, [r3, #48]	; 0x30
 8000ffe:	f003 0301 	and.w	r3, r3, #1
 8001002:	9302      	str	r3, [sp, #8]
 8001004:	9b02      	ldr	r3, [sp, #8]
    GPIO_InitStruct.Pin = GPIO_PIN_0|GPIO_PIN_1|GPIO_PIN_2|GPIO_PIN_3
 8001006:	23ff      	movs	r3, #255	; 0xff
 8001008:	9303      	str	r3, [sp, #12]
    GPIO_InitStruct.Mode = GPIO_MODE_ANALOG;
 800100a:	2303      	movs	r3, #3
 800100c:	9304      	str	r3, [sp, #16]
    GPIO_InitStruct.Pull = GPIO_NOPULL;
 800100e:	9505      	str	r5, [sp, #20]
    HAL_GPIO_Init(GPIOA, &GPIO_InitStruct);
 8001010:	a903      	add	r1, sp, #12
 8001012:	4815      	ldr	r0, [pc, #84]	; (8001068 <HAL_ADC_MspInit+0xb4>)
 8001014:	f004 ff64 	bl	8005ee0 <HAL_GPIO_Init>
    hdma_adc1.Instance = DMA2_Stream0;
 8001018:	4814      	ldr	r0, [pc, #80]	; (800106c <HAL_ADC_MspInit+0xb8>)
 800101a:	4b15      	ldr	r3, [pc, #84]	; (8001070 <HAL_ADC_MspInit+0xbc>)
 800101c:	6003      	str	r3, [r0, #0]
    hdma_adc1.Init.Channel = DMA_CHANNEL_0;
 800101e:	6045      	str	r5, [r0, #4]
    hdma_adc1.Init.Direction = DMA_PERIPH_TO_MEMORY;
 8001020:	6085      	str	r5, [r0, #8]
    hdma_adc1.Init.PeriphInc = DMA_PINC_DISABLE;
 8001022:	60c5      	str	r5, [r0, #12]
    hdma_adc1.Init.MemInc = DMA_MINC_ENABLE;
 8001024:	f44f 6380 	mov.w	r3, #1024	; 0x400
 8001028:	6103      	str	r3, [r0, #16]
    hdma_adc1.Init.PeriphDataAlignment = DMA_PDATAALIGN_HALFWORD;
 800102a:	f44f 6300 	mov.w	r3, #2048	; 0x800
 800102e:	6143      	str	r3, [r0, #20]
    hdma_adc1.Init.MemDataAlignment = DMA_MDATAALIGN_HALFWORD;
 8001030:	f44f 5300 	mov.w	r3, #8192	; 0x2000
 8001034:	6183      	str	r3, [r0, #24]
    hdma_adc1.Init.Mode = DMA_CIRCULAR;
 8001036:	f44f 7380 	mov.w	r3, #256	; 0x100
 800103a:	61c3      	str	r3, [r0, #28]
    hdma_adc1.Init.Priority = DMA_PRIORITY_HIGH;
 800103c:	f44f 3300 	mov.w	r3, #131072	; 0x20000
 8001040:	6203      	str	r3, [r0, #32]
    hdma_adc1.Init.FIFOMode = DMA_FIFOMODE_DISABLE;
 8001042:	6245      	str	r5, [r0, #36]	; 0x24
    if (HAL_DMA_Init(&hdma_adc1) != HAL_OK)
 8001044:	f004 fb4c 	bl	80056e0 <HAL_DMA_Init>
 8001048:	b958      	cbnz	r0, 8001062 <HAL_ADC_MspInit+0xae>
    __HAL_LINKDMA(adcHandle,DMA_Handle,hdma_adc1);
 800104a:	4b08      	ldr	r3, [pc, #32]	; (800106c <HAL_ADC_MspInit+0xb8>)
 800104c:	63a3      	str	r3, [r4, #56]	; 0x38
 800104e:	639c      	str	r4, [r3, #56]	; 0x38
    HAL_NVIC_SetPriority(ADC_IRQn, 5, 0);
 8001050:	2200      	movs	r2, #0
 8001052:	2105      	movs	r1, #5
 8001054:	2012      	movs	r0, #18
 8001056:	f004 facd 	bl	80055f4 <HAL_NVIC_SetPriority>
    HAL_NVIC_EnableIRQ(ADC_IRQn);
 800105a:	2012      	movs	r0, #18
 800105c:	f004 fafc 	bl	8005658 <HAL_NVIC_EnableIRQ>
}
 8001060:	e7b7      	b.n	8000fd2 <HAL_ADC_MspInit+0x1e>
      Error_Handler();
 8001062:	f003 fcc3 	bl	80049ec <Error_Handler>
 8001066:	e7f0      	b.n	800104a <HAL_ADC_MspInit+0x96>
 8001068:	40020000 	.word	0x40020000
 800106c:	20003090 	.word	0x20003090
 8001070:	40026410 	.word	0x40026410

08001074 <MX_DMA_Init>:

/**
  * Enable DMA controller clock
  */
void MX_DMA_Init(void)
{
 8001074:	b510      	push	{r4, lr}
 8001076:	b082      	sub	sp, #8

  /* DMA controller clock enable */
  __HAL_RCC_DMA2_CLK_ENABLE();
 8001078:	2400      	movs	r4, #0
 800107a:	9400      	str	r4, [sp, #0]
 800107c:	4b1a      	ldr	r3, [pc, #104]	; (80010e8 <MX_DMA_Init+0x74>)
 800107e:	6b1a      	ldr	r2, [r3, #48]	; 0x30
 8001080:	f442 0280 	orr.w	r2, r2, #4194304	; 0x400000
 8001084:	631a      	str	r2, [r3, #48]	; 0x30
 8001086:	6b1a      	ldr	r2, [r3, #48]	; 0x30
 8001088:	f402 0280 	and.w	r2, r2, #4194304	; 0x400000
 800108c:	9200      	str	r2, [sp, #0]
 800108e:	9a00      	ldr	r2, [sp, #0]
  __HAL_RCC_DMA1_CLK_ENABLE();
 8001090:	9401      	str	r4, [sp, #4]
 8001092:	6b1a      	ldr	r2, [r3, #48]	; 0x30
 8001094:	f442 1200 	orr.w	r2, r2, #2097152	; 0x200000
 8001098:	631a      	str	r2, [r3, #48]	; 0x30
 800109a:	6b1b      	ldr	r3, [r3, #48]	; 0x30
 800109c:	f403 1300 	and.w	r3, r3, #2097152	; 0x200000
 80010a0:	9301      	str	r3, [sp, #4]
 80010a2:	9b01      	ldr	r3, [sp, #4]

  /* DMA interrupt init */
  /* DMA1_Stream5_IRQn interrupt configuration */
  HAL_NVIC_SetPriority(DMA1_Stream5_IRQn, 5, 0);
 80010a4:	4622      	mov	r2, r4
 80010a6:	2105      	movs	r1, #5
 80010a8:	2010      	movs	r0, #16
 80010aa:	f004 faa3 	bl	80055f4 <HAL_NVIC_SetPriority>
  HAL_NVIC_EnableIRQ(DMA1_Stream5_IRQn);
 80010ae:	2010      	movs	r0, #16
 80010b0:	f004 fad2 	bl	8005658 <HAL_NVIC_EnableIRQ>
  /* DMA1_Stream6_IRQn interrupt configuration */
  HAL_NVIC_SetPriority(DMA1_Stream6_IRQn, 5, 0);
 80010b4:	4622      	mov	r2, r4
 80010b6:	2105      	movs	r1, #5
 80010b8:	2011      	movs	r0, #17
 80010ba:	f004 fa9b 	bl	80055f4 <HAL_NVIC_SetPriority>
  HAL_NVIC_EnableIRQ(DMA1_Stream6_IRQn);
 80010be:	2011      	movs	r0, #17
 80010c0:	f004 faca 	bl	8005658 <HAL_NVIC_EnableIRQ>
  /* DMA2_Stream0_IRQn interrupt configuration */
  HAL_NVIC_SetPriority(DMA2_Stream0_IRQn, 5, 0);
 80010c4:	4622      	mov	r2, r4
 80010c6:	2105      	movs	r1, #5
 80010c8:	2038      	movs	r0, #56	; 0x38
 80010ca:	f004 fa93 	bl	80055f4 <HAL_NVIC_SetPriority>
  HAL_NVIC_EnableIRQ(DMA2_Stream0_IRQn);
 80010ce:	2038      	movs	r0, #56	; 0x38
 80010d0:	f004 fac2 	bl	8005658 <HAL_NVIC_EnableIRQ>
  /* DMA2_Stream7_IRQn interrupt configuration */
  HAL_NVIC_SetPriority(DMA2_Stream7_IRQn, 5, 0);
 80010d4:	4622      	mov	r2, r4
 80010d6:	2105      	movs	r1, #5
 80010d8:	2046      	movs	r0, #70	; 0x46
 80010da:	f004 fa8b 	bl	80055f4 <HAL_NVIC_SetPriority>
  HAL_NVIC_EnableIRQ(DMA2_Stream7_IRQn);
 80010de:	2046      	movs	r0, #70	; 0x46
 80010e0:	f004 faba 	bl	8005658 <HAL_NVIC_EnableIRQ>

}
 80010e4:	b002      	add	sp, #8
 80010e6:	bd10      	pop	{r4, pc}
 80010e8:	40023800 	.word	0x40023800

080010ec <GetSector>:
  */
static uint32_t GetSector(uint32_t Address)
{
  uint32_t sector = 0;

  if((Address < ADDR_FLASH_SECTOR_1) && (Address >= ADDR_FLASH_SECTOR_0))
 80010ec:	f100 4378 	add.w	r3, r0, #4160749568	; 0xf8000000
 80010f0:	f5b3 4f80 	cmp.w	r3, #16384	; 0x4000
 80010f4:	d346      	bcc.n	8001184 <GetSector+0x98>
  {
    sector = FLASH_SECTOR_0;
  }
  else if((Address < ADDR_FLASH_SECTOR_2) && (Address >= ADDR_FLASH_SECTOR_1))
 80010f6:	f5a3 4380 	sub.w	r3, r3, #16384	; 0x4000
 80010fa:	f5b3 4f80 	cmp.w	r3, #16384	; 0x4000
 80010fe:	d343      	bcc.n	8001188 <GetSector+0x9c>
  {
    sector = FLASH_SECTOR_1;
  }
  else if((Address < ADDR_FLASH_SECTOR_3) && (Address >= ADDR_FLASH_SECTOR_2))
 8001100:	f100 4378 	add.w	r3, r0, #4160749568	; 0xf8000000
 8001104:	f5a3 4300 	sub.w	r3, r3, #32768	; 0x8000
 8001108:	f5b3 4f80 	cmp.w	r3, #16384	; 0x4000
 800110c:	d33e      	bcc.n	800118c <GetSector+0xa0>
  {
    sector = FLASH_SECTOR_2;
  }
  else if((Address < ADDR_FLASH_SECTOR_4) && (Address >= ADDR_FLASH_SECTOR_3))
 800110e:	f100 4378 	add.w	r3, r0, #4160749568	; 0xf8000000
 8001112:	f5a3 4340 	sub.w	r3, r3, #49152	; 0xc000
 8001116:	f5b3 4f80 	cmp.w	r3, #16384	; 0x4000
 800111a:	d339      	bcc.n	8001190 <GetSector+0xa4>
  {
    sector = FLASH_SECTOR_3;
  }
  else if((Address < ADDR_FLASH_SECTOR_5) && (Address >= ADDR_FLASH_SECTOR_4))
 800111c:	f100 4377 	add.w	r3, r0, #4143972352	; 0xf7000000
 8001120:	f503 037f 	add.w	r3, r3, #16711680	; 0xff0000
 8001124:	f5b3 3f80 	cmp.w	r3, #65536	; 0x10000
 8001128:	d334      	bcc.n	8001194 <GetSector+0xa8>
  {
    sector = FLASH_SECTOR_4;
  }
  else if((Address < ADDR_FLASH_SECTOR_6) && (Address >= ADDR_FLASH_SECTOR_5))
 800112a:	f100 4377 	add.w	r3, r0, #4143972352	; 0xf7000000
 800112e:	f503 037e 	add.w	r3, r3, #16646144	; 0xfe0000
 8001132:	f5b3 3f00 	cmp.w	r3, #131072	; 0x20000
 8001136:	d32f      	bcc.n	8001198 <GetSector+0xac>
  {
    sector = FLASH_SECTOR_5;
  }
  else if((Address < ADDR_FLASH_SECTOR_7) && (Address >= ADDR_FLASH_SECTOR_6))
 8001138:	f100 4377 	add.w	r3, r0, #4143972352	; 0xf7000000
 800113c:	f503 037c 	add.w	r3, r3, #16515072	; 0xfc0000
 8001140:	f5b3 3f00 	cmp.w	r3, #131072	; 0x20000
 8001144:	d32a      	bcc.n	800119c <GetSector+0xb0>
  {
    sector = FLASH_SECTOR_6;
  }
  else if((Address < ADDR_FLASH_SECTOR_8) && (Address >= ADDR_FLASH_SECTOR_7))
 8001146:	f100 4377 	add.w	r3, r0, #4143972352	; 0xf7000000
 800114a:	f503 037a 	add.w	r3, r3, #16384000	; 0xfa0000
 800114e:	f5b3 3f00 	cmp.w	r3, #131072	; 0x20000
 8001152:	d325      	bcc.n	80011a0 <GetSector+0xb4>
  {
    sector = FLASH_SECTOR_7;
  }
  else if((Address < ADDR_FLASH_SECTOR_9) && (Address >= ADDR_FLASH_SECTOR_8))
 8001154:	f100 4377 	add.w	r3, r0, #4143972352	; 0xf7000000
 8001158:	f503 0378 	add.w	r3, r3, #16252928	; 0xf80000
 800115c:	f5b3 3f00 	cmp.w	r3, #131072	; 0x20000
 8001160:	d320      	bcc.n	80011a4 <GetSector+0xb8>
  {
    sector = FLASH_SECTOR_8;
  }
  else if((Address < ADDR_FLASH_SECTOR_10) && (Address >= ADDR_FLASH_SECTOR_9))
 8001162:	f100 4377 	add.w	r3, r0, #4143972352	; 0xf7000000
 8001166:	f503 0376 	add.w	r3, r3, #16121856	; 0xf60000
 800116a:	f5b3 3f00 	cmp.w	r3, #131072	; 0x20000
 800116e:	d31b      	bcc.n	80011a8 <GetSector+0xbc>
  {
    sector = FLASH_SECTOR_9;
  }
  else if((Address < ADDR_FLASH_SECTOR_11) && (Address >= ADDR_FLASH_SECTOR_10))
 8001170:	f100 4077 	add.w	r0, r0, #4143972352	; 0xf7000000
 8001174:	f500 0074 	add.w	r0, r0, #15990784	; 0xf40000
  {
    sector = FLASH_SECTOR_10;
  }
  else /* (Address < FLASH_END_ADDR) && (Address >= ADDR_FLASH_SECTOR_11) */
  {
    sector = FLASH_SECTOR_11;
 8001178:	f5b0 3f00 	cmp.w	r0, #131072	; 0x20000
 800117c:	bf34      	ite	cc
 800117e:	200a      	movcc	r0, #10
 8001180:	200b      	movcs	r0, #11
 8001182:	4770      	bx	lr
    sector = FLASH_SECTOR_0;
 8001184:	2000      	movs	r0, #0
 8001186:	4770      	bx	lr
    sector = FLASH_SECTOR_1;
 8001188:	2001      	movs	r0, #1
 800118a:	4770      	bx	lr
    sector = FLASH_SECTOR_2;
 800118c:	2002      	movs	r0, #2
 800118e:	4770      	bx	lr
    sector = FLASH_SECTOR_3;
 8001190:	2003      	movs	r0, #3
 8001192:	4770      	bx	lr
    sector = FLASH_SECTOR_4;
 8001194:	2004      	movs	r0, #4
 8001196:	4770      	bx	lr
    sector = FLASH_SECTOR_5;
 8001198:	2005      	movs	r0, #5
 800119a:	4770      	bx	lr
    sector = FLASH_SECTOR_6;
 800119c:	2006      	movs	r0, #6
 800119e:	4770      	bx	lr
    sector = FLASH_SECTOR_7;
 80011a0:	2007      	movs	r0, #7
 80011a2:	4770      	bx	lr
    sector = FLASH_SECTOR_8;
 80011a4:	2008      	movs	r0, #8
 80011a6:	4770      	bx	lr
    sector = FLASH_SECTOR_9;
 80011a8:	2009      	movs	r0, #9
  }

  return sector;
}
 80011aa:	4770      	bx	lr

080011ac <StartDefaultTask>:
  * @param  argument: Not used
  * @retval None
  */
/* USER CODE END Header_StartDefaultTask */
void StartDefaultTask(void const * argument)
{
 80011ac:	b508      	push	{r3, lr}
  /* USER CODE BEGIN StartDefaultTask */
  /* Infinite loop */
  for(;;)
  {
    osDelay(1);
 80011ae:	2401      	movs	r4, #1
 80011b0:	4620      	mov	r0, r4
 80011b2:	f006 fa76 	bl	80076a2 <osDelay>
  for(;;)
 80011b6:	e7fb      	b.n	80011b0 <StartDefaultTask+0x4>

080011b8 <StartSendTask>:
* @param argument: Not used
* @retval None
*/
/* USER CODE END Header_StartSendTask */
void StartSendTask(void const * argument)
{
 80011b8:	e92d 4888 	stmdb	sp!, {r3, r7, fp, lr}
  /* USER CODE BEGIN StartSendTask */
  /* Infinite loop */
  for(;;)
  {

  	instruct[0][4] = cur_pulse1*0.6338;
 80011bc:	4c36      	ldr	r4, [pc, #216]	; (8001298 <StartSendTask+0xe0>)
 80011be:	a72c      	add	r7, pc, #176	; (adr r7, 8001270 <StartSendTask+0xb8>)
 80011c0:	e9d7 6700 	ldrd	r6, r7, [r7]
  	instruct[0][5] = cur_pulse2*0.67164;
  	instruct[0][6] = cur_pulse3*1.13924;
 80011c4:	f20f 09b0 	addw	r9, pc, #176	; 0xb0
 80011c8:	e9d9 8900 	ldrd	r8, r9, [r9]
  	instruct[0][7] = cur_pulse4*1.56673;
 80011cc:	f20f 0bb0 	addw	fp, pc, #176	; 0xb0
 80011d0:	e9db ab00 	ldrd	sl, fp, [fp]
  	instruct[0][4] = cur_pulse1*0.6338;
 80011d4:	4b31      	ldr	r3, [pc, #196]	; (800129c <StartSendTask+0xe4>)
 80011d6:	6818      	ldr	r0, [r3, #0]
 80011d8:	f7ff f94c 	bl	8000474 <__aeabi_i2d>
 80011dc:	4632      	mov	r2, r6
 80011de:	463b      	mov	r3, r7
 80011e0:	f7ff f9b2 	bl	8000548 <__aeabi_dmul>
 80011e4:	f7ff fc60 	bl	8000aa8 <__aeabi_d2iz>
 80011e8:	8120      	strh	r0, [r4, #8]
  	instruct[0][5] = cur_pulse2*0.67164;
 80011ea:	4b2d      	ldr	r3, [pc, #180]	; (80012a0 <StartSendTask+0xe8>)
 80011ec:	6818      	ldr	r0, [r3, #0]
 80011ee:	f7ff f941 	bl	8000474 <__aeabi_i2d>
 80011f2:	a325      	add	r3, pc, #148	; (adr r3, 8001288 <StartSendTask+0xd0>)
 80011f4:	e9d3 2300 	ldrd	r2, r3, [r3]
 80011f8:	f7ff f9a6 	bl	8000548 <__aeabi_dmul>
 80011fc:	f7ff fc54 	bl	8000aa8 <__aeabi_d2iz>
 8001200:	8160      	strh	r0, [r4, #10]
  	instruct[0][6] = cur_pulse3*1.13924;
 8001202:	4b28      	ldr	r3, [pc, #160]	; (80012a4 <StartSendTask+0xec>)
 8001204:	6818      	ldr	r0, [r3, #0]
 8001206:	f7ff f935 	bl	8000474 <__aeabi_i2d>
 800120a:	4642      	mov	r2, r8
 800120c:	464b      	mov	r3, r9
 800120e:	f7ff f99b 	bl	8000548 <__aeabi_dmul>
 8001212:	f7ff fc49 	bl	8000aa8 <__aeabi_d2iz>
 8001216:	81a0      	strh	r0, [r4, #12]
  	instruct[0][7] = cur_pulse4*1.56673;
 8001218:	4b23      	ldr	r3, [pc, #140]	; (80012a8 <StartSendTask+0xf0>)
 800121a:	6818      	ldr	r0, [r3, #0]
 800121c:	f7ff f92a 	bl	8000474 <__aeabi_i2d>
 8001220:	4652      	mov	r2, sl
 8001222:	465b      	mov	r3, fp
 8001224:	f7ff f990 	bl	8000548 <__aeabi_dmul>
 8001228:	f7ff fc3e 	bl	8000aa8 <__aeabi_d2iz>
 800122c:	81e0      	strh	r0, [r4, #14]
  	instruct[0][8] = cur_pulse5*2.45108;
 800122e:	4b1f      	ldr	r3, [pc, #124]	; (80012ac <StartSendTask+0xf4>)
 8001230:	6818      	ldr	r0, [r3, #0]
 8001232:	f7ff f91f 	bl	8000474 <__aeabi_i2d>
 8001236:	a316      	add	r3, pc, #88	; (adr r3, 8001290 <StartSendTask+0xd8>)
 8001238:	e9d3 2300 	ldrd	r2, r3, [r3]
 800123c:	f7ff f984 	bl	8000548 <__aeabi_dmul>
 8001240:	f7ff fc32 	bl	8000aa8 <__aeabi_d2iz>
 8001244:	8220      	strh	r0, [r4, #16]
  	instruct[0][9] = cur_pulse6;
 8001246:	4b1a      	ldr	r3, [pc, #104]	; (80012b0 <StartSendTask+0xf8>)
 8001248:	681b      	ldr	r3, [r3, #0]
 800124a:	8263      	strh	r3, [r4, #18]


  	instruct[2][4] = (instruct[2][2]+10)*11;
 800124c:	f9b4 3030 	ldrsh.w	r3, [r4, #48]	; 0x30
 8001250:	330a      	adds	r3, #10
 8001252:	eb03 0283 	add.w	r2, r3, r3, lsl #2
 8001256:	eb03 0242 	add.w	r2, r3, r2, lsl #1
 800125a:	86a2      	strh	r2, [r4, #52]	; 0x34
  	instruct_step = instruct[2][2]+10;
 800125c:	4a15      	ldr	r2, [pc, #84]	; (80012b4 <StartSendTask+0xfc>)
 800125e:	6013      	str	r3, [r2, #0]
  	total_step = instruct[2][1];
 8001260:	f9b4 202e 	ldrsh.w	r2, [r4, #46]	; 0x2e
 8001264:	4b14      	ldr	r3, [pc, #80]	; (80012b8 <StartSendTask+0x100>)
 8001266:	601a      	str	r2, [r3, #0]
    osDelay(10);
 8001268:	200a      	movs	r0, #10
 800126a:	f006 fa1a 	bl	80076a2 <osDelay>
  for(;;)
 800126e:	e7b1      	b.n	80011d4 <StartSendTask+0x1c>
 8001270:	f0068db9 	.word	0xf0068db9
 8001274:	3fe44816 	.word	0x3fe44816
 8001278:	b8e4b87c 	.word	0xb8e4b87c
 800127c:	3ff23a53 	.word	0x3ff23a53
 8001280:	79fa97e1 	.word	0x79fa97e1
 8001284:	3ff91153 	.word	0x3ff91153
 8001288:	2b55ef20 	.word	0x2b55ef20
 800128c:	3fe57e13 	.word	0x3fe57e13
 8001290:	d4bf0996 	.word	0xd4bf0996
 8001294:	40039bcf 	.word	0x40039bcf
 8001298:	20000000 	.word	0x20000000
 800129c:	20002bc8 	.word	0x20002bc8
 80012a0:	20002bcc 	.word	0x20002bcc
 80012a4:	20002bd0 	.word	0x20002bd0
 80012a8:	20002bd4 	.word	0x20002bd4
 80012ac:	20002bd8 	.word	0x20002bd8
 80012b0:	20002bdc 	.word	0x20002bdc
 80012b4:	20002af8 	.word	0x20002af8
 80012b8:	20002afc 	.word	0x20002afc

080012bc <StartDemoTask>:
* @param argument: Not used
* @retval None
*/
/* USER CODE END Header_StartDemoTask */
void StartDemoTask(void const * argument)
{
 80012bc:	b508      	push	{r3, lr}
  /* USER CODE BEGIN StartDemoTask */
  /* Infinite loop */
  for(;;)
  {
    osDelay(1);
 80012be:	2401      	movs	r4, #1
 80012c0:	4620      	mov	r0, r4
 80012c2:	f006 f9ee 	bl	80076a2 <osDelay>
  for(;;)
 80012c6:	e7fb      	b.n	80012c0 <StartDemoTask+0x4>

080012c8 <StartLedTask>:
{
 80012c8:	b508      	push	{r3, lr}
  	HAL_GPIO_TogglePin(LED0_GPIO_Port, LED0_Pin);
 80012ca:	4e06      	ldr	r6, [pc, #24]	; (80012e4 <StartLedTask+0x1c>)
 80012cc:	f44f 7500 	mov.w	r5, #512	; 0x200
    osDelay(100);
 80012d0:	2464      	movs	r4, #100	; 0x64
  	HAL_GPIO_TogglePin(LED0_GPIO_Port, LED0_Pin);
 80012d2:	4629      	mov	r1, r5
 80012d4:	4630      	mov	r0, r6
 80012d6:	f004 ff01 	bl	80060dc <HAL_GPIO_TogglePin>
    osDelay(100);
 80012da:	4620      	mov	r0, r4
 80012dc:	f006 f9e1 	bl	80076a2 <osDelay>
  for(;;)
 80012e0:	e7f7      	b.n	80012d2 <StartLedTask+0xa>
 80012e2:	bf00      	nop
 80012e4:	40021400 	.word	0x40021400

080012e8 <StartTestTask>:
* @param argument: Not used
* @retval None
*/
/* USER CODE END Header_StartTestTask */
void StartTestTask(void const * argument)
{
 80012e8:	b508      	push	{r3, lr}
  /* USER CODE BEGIN StartTestTask */
  /* Infinite loop */
  for(;;)
  {
  	HAL_UART_Receive_DMA(&huart2, rx_data, rx_bufSize);
 80012ea:	4e07      	ldr	r6, [pc, #28]	; (8001308 <StartTestTask+0x20>)
 80012ec:	4d07      	ldr	r5, [pc, #28]	; (800130c <StartTestTask+0x24>)
 80012ee:	f44f 7480 	mov.w	r4, #256	; 0x100
 80012f2:	4622      	mov	r2, r4
 80012f4:	4631      	mov	r1, r6
 80012f6:	4628      	mov	r0, r5
 80012f8:	f006 f986 	bl	8007608 <HAL_UART_Receive_DMA>
    osDelay(1000);
 80012fc:	f44f 707a 	mov.w	r0, #1000	; 0x3e8
 8001300:	f006 f9cf 	bl	80076a2 <osDelay>
  for(;;)
 8001304:	e7f5      	b.n	80012f2 <StartTestTask+0xa>
 8001306:	bf00      	nop
 8001308:	20003104 	.word	0x20003104
 800130c:	20003494 	.word	0x20003494

08001310 <StartRobotTask>:
{
 8001310:	e92d 43f8 	stmdb	sp!, {r3, r4, r5, r6, r7, r8, r9, lr}
	osDelay(1000);
 8001314:	f44f 707a 	mov.w	r0, #1000	; 0x3e8
 8001318:	f006 f9c3 	bl	80076a2 <osDelay>
	Address = FLASH_USER_START_ADDR;
 800131c:	4ba6      	ldr	r3, [pc, #664]	; (80015b8 <StartRobotTask+0x2a8>)
 800131e:	4aa7      	ldr	r2, [pc, #668]	; (80015bc <StartRobotTask+0x2ac>)
 8001320:	601a      	str	r2, [r3, #0]
	for(int j=11;j<(500*11);j++)
 8001322:	230b      	movs	r3, #11
		instruct[j/11][j%11] = (*(__IO int16_t*)Address);
 8001324:	49a4      	ldr	r1, [pc, #656]	; (80015b8 <StartRobotTask+0x2a8>)
 8001326:	4da6      	ldr	r5, [pc, #664]	; (80015c0 <StartRobotTask+0x2b0>)
	for(int j=11;j<(500*11);j++)
 8001328:	f241 547c 	movw	r4, #5500	; 0x157c
		instruct[j/11][j%11] = (*(__IO int16_t*)Address);
 800132c:	680a      	ldr	r2, [r1, #0]
 800132e:	f832 0b02 	ldrh.w	r0, [r2], #2
 8001332:	f825 0013 	strh.w	r0, [r5, r3, lsl #1]
		Address = Address + 2;
 8001336:	600a      	str	r2, [r1, #0]
	for(int j=11;j<(500*11);j++)
 8001338:	3301      	adds	r3, #1
 800133a:	42a3      	cmp	r3, r4
 800133c:	d1f6      	bne.n	800132c <StartRobotTask+0x1c>
	instruct[1][0]=0;
 800133e:	4aa0      	ldr	r2, [pc, #640]	; (80015c0 <StartRobotTask+0x2b0>)
 8001340:	2300      	movs	r3, #0
 8001342:	82d3      	strh	r3, [r2, #22]
	instruct[1][1]=0;
 8001344:	8313      	strh	r3, [r2, #24]
	instruct[1][2]=0;
 8001346:	8353      	strh	r3, [r2, #26]
	instruct[1][3]=0;
 8001348:	8393      	strh	r3, [r2, #28]
	instruct[1][4]=0;
 800134a:	83d3      	strh	r3, [r2, #30]
	instruct[1][5]=0;
 800134c:	8413      	strh	r3, [r2, #32]
	instruct[1][6]=0;
 800134e:	8453      	strh	r3, [r2, #34]	; 0x22
	instruct[1][7]=0;
 8001350:	8493      	strh	r3, [r2, #36]	; 0x24
	instruct[1][8]=0;
 8001352:	84d3      	strh	r3, [r2, #38]	; 0x26
	instruct[1][9]=0;
 8001354:	8513      	strh	r3, [r2, #40]	; 0x28
	instruct[1][10]=0;
 8001356:	8553      	strh	r3, [r2, #42]	; 0x2a
	instruct[2][0]=0;
 8001358:	8593      	strh	r3, [r2, #44]	; 0x2c
	instruct[2][2]=0;
 800135a:	8613      	strh	r3, [r2, #48]	; 0x30
	is_start = 0;
 800135c:	4a99      	ldr	r2, [pc, #612]	; (80015c4 <StartRobotTask+0x2b4>)
 800135e:	7013      	strb	r3, [r2, #0]
  	if(is_start==0)
 8001360:	4614      	mov	r4, r2
  		if(instruct[0][0]==0)
 8001362:	4d97      	ldr	r5, [pc, #604]	; (80015c0 <StartRobotTask+0x2b0>)
  		   Address = FLASH_USER_START_ADDR;
 8001364:	4e94      	ldr	r6, [pc, #592]	; (80015b8 <StartRobotTask+0x2a8>)
 8001366:	e02c      	b.n	80013c2 <StartRobotTask+0xb2>
 8001368:	4b97      	ldr	r3, [pc, #604]	; (80015c8 <StartRobotTask+0x2b8>)
 800136a:	f103 0118 	add.w	r1, r3, #24
  				if(foc_cut[i]>-10)foc_cut[i]-=10;
 800136e:	f853 2b04 	ldr.w	r2, [r3], #4
 8001372:	f112 0f09 	cmn.w	r2, #9
 8001376:	bfa4      	itt	ge
 8001378:	3a0a      	subge	r2, #10
 800137a:	f843 2c04 	strge.w	r2, [r3, #-4]
  				if(foc_cut[i]<10)foc_cut[i]+=10;
 800137e:	f853 2c04 	ldr.w	r2, [r3, #-4]
 8001382:	2a09      	cmp	r2, #9
 8001384:	bfdc      	itt	le
 8001386:	320a      	addle	r2, #10
 8001388:	f843 2c04 	strle.w	r2, [r3, #-4]
  			for(int i=0;i<6;i++)
 800138c:	4299      	cmp	r1, r3
 800138e:	d1ee      	bne.n	800136e <StartRobotTask+0x5e>
  		if(instruct[2][0]==0)
 8001390:	f9b5 302c 	ldrsh.w	r3, [r5, #44]	; 0x2c
 8001394:	2b00      	cmp	r3, #0
 8001396:	f040 80af 	bne.w	80014f8 <StartRobotTask+0x1e8>
  			is_single_run = 0;
 800139a:	4b8c      	ldr	r3, [pc, #560]	; (80015cc <StartRobotTask+0x2bc>)
 800139c:	2200      	movs	r2, #0
 800139e:	701a      	strb	r2, [r3, #0]
		if(instruct[3][0]&0x01)
 80013a0:	f8b5 3042 	ldrh.w	r3, [r5, #66]	; 0x42
 80013a4:	f003 0201 	and.w	r2, r3, #1
 80013a8:	7022      	strb	r2, [r4, #0]
		if(instruct[3][0]&0x02)
 80013aa:	f013 0f02 	tst.w	r3, #2
 80013ae:	f000 81c4 	beq.w	800173a <StartRobotTask+0x42a>
			is_stop = 1;
 80013b2:	4b87      	ldr	r3, [pc, #540]	; (80015d0 <StartRobotTask+0x2c0>)
 80013b4:	2201      	movs	r2, #1
 80013b6:	701a      	strb	r2, [r3, #0]
			is_start = 0;
 80013b8:	2300      	movs	r3, #0
 80013ba:	7023      	strb	r3, [r4, #0]
    osDelay(1);
 80013bc:	2001      	movs	r0, #1
 80013be:	f006 f970 	bl	80076a2 <osDelay>
  	if(is_start==0)
 80013c2:	7823      	ldrb	r3, [r4, #0]
 80013c4:	2b00      	cmp	r3, #0
 80013c6:	d1eb      	bne.n	80013a0 <StartRobotTask+0x90>
  		if(instruct[0][0]==0)
 80013c8:	f9b5 3000 	ldrsh.w	r3, [r5]
 80013cc:	2b00      	cmp	r3, #0
 80013ce:	d0cb      	beq.n	8001368 <StartRobotTask+0x58>
  		else if(instruct[0][0]==1&&foc_cut[0]<3000)foc_cut[0]++;
 80013d0:	2b01      	cmp	r3, #1
 80013d2:	d020      	beq.n	8001416 <StartRobotTask+0x106>
  		else if(instruct[0][0]==2&&foc_cut[0]>-3000)foc_cut[0]--;
 80013d4:	2b02      	cmp	r3, #2
 80013d6:	d028      	beq.n	800142a <StartRobotTask+0x11a>
  		else if(instruct[0][0]==4&&foc_cut[1]<3000)foc_cut[1]++;
 80013d8:	2b04      	cmp	r3, #4
 80013da:	d02f      	beq.n	800143c <StartRobotTask+0x12c>
  		else if(instruct[0][0]==8&&foc_cut[1]>-3000)foc_cut[1]--;
 80013dc:	2b08      	cmp	r3, #8
 80013de:	d037      	beq.n	8001450 <StartRobotTask+0x140>
  		else if(instruct[0][0]==16&&foc_cut[2]<3000)foc_cut[2]++;
 80013e0:	2b10      	cmp	r3, #16
 80013e2:	d03e      	beq.n	8001462 <StartRobotTask+0x152>
  		else if(instruct[0][0]==32&&foc_cut[2]>-3000)foc_cut[2]--;
 80013e4:	2b20      	cmp	r3, #32
 80013e6:	d046      	beq.n	8001476 <StartRobotTask+0x166>
  		else if(instruct[0][0]==64&&foc_cut[3]<3000)foc_cut[3]++;
 80013e8:	2b40      	cmp	r3, #64	; 0x40
 80013ea:	d04d      	beq.n	8001488 <StartRobotTask+0x178>
  		else if(instruct[0][0]==128&&foc_cut[3]>-3000)foc_cut[3]--;
 80013ec:	2b80      	cmp	r3, #128	; 0x80
 80013ee:	d056      	beq.n	800149e <StartRobotTask+0x18e>
  		else if(instruct[0][0]==256&&foc_cut[4]<3000)foc_cut[4]++;
 80013f0:	f5b3 7f80 	cmp.w	r3, #256	; 0x100
 80013f4:	d05d      	beq.n	80014b2 <StartRobotTask+0x1a2>
  		else if(instruct[0][0]==512&&foc_cut[4]>-3000)foc_cut[4]--;
 80013f6:	f5b3 7f00 	cmp.w	r3, #512	; 0x200
 80013fa:	d065      	beq.n	80014c8 <StartRobotTask+0x1b8>
  		else if(instruct[0][0]==1024&&foc_cut[5]<3000)foc_cut[5]++;
 80013fc:	f5b3 6f80 	cmp.w	r3, #1024	; 0x400
 8001400:	d16c      	bne.n	80014dc <StartRobotTask+0x1cc>
 8001402:	4b71      	ldr	r3, [pc, #452]	; (80015c8 <StartRobotTask+0x2b8>)
 8001404:	695b      	ldr	r3, [r3, #20]
 8001406:	f640 32b7 	movw	r2, #2999	; 0xbb7
 800140a:	4293      	cmp	r3, r2
 800140c:	dcc0      	bgt.n	8001390 <StartRobotTask+0x80>
 800140e:	3301      	adds	r3, #1
 8001410:	4a6d      	ldr	r2, [pc, #436]	; (80015c8 <StartRobotTask+0x2b8>)
 8001412:	6153      	str	r3, [r2, #20]
 8001414:	e7bc      	b.n	8001390 <StartRobotTask+0x80>
  		else if(instruct[0][0]==1&&foc_cut[0]<3000)foc_cut[0]++;
 8001416:	4b6c      	ldr	r3, [pc, #432]	; (80015c8 <StartRobotTask+0x2b8>)
 8001418:	681b      	ldr	r3, [r3, #0]
 800141a:	f640 32b7 	movw	r2, #2999	; 0xbb7
 800141e:	4293      	cmp	r3, r2
 8001420:	dcb6      	bgt.n	8001390 <StartRobotTask+0x80>
 8001422:	3301      	adds	r3, #1
 8001424:	4a68      	ldr	r2, [pc, #416]	; (80015c8 <StartRobotTask+0x2b8>)
 8001426:	6013      	str	r3, [r2, #0]
 8001428:	e7b2      	b.n	8001390 <StartRobotTask+0x80>
  		else if(instruct[0][0]==2&&foc_cut[0]>-3000)foc_cut[0]--;
 800142a:	4b67      	ldr	r3, [pc, #412]	; (80015c8 <StartRobotTask+0x2b8>)
 800142c:	681b      	ldr	r3, [r3, #0]
 800142e:	4a69      	ldr	r2, [pc, #420]	; (80015d4 <StartRobotTask+0x2c4>)
 8001430:	4293      	cmp	r3, r2
 8001432:	dbad      	blt.n	8001390 <StartRobotTask+0x80>
 8001434:	3b01      	subs	r3, #1
 8001436:	4a64      	ldr	r2, [pc, #400]	; (80015c8 <StartRobotTask+0x2b8>)
 8001438:	6013      	str	r3, [r2, #0]
 800143a:	e7a9      	b.n	8001390 <StartRobotTask+0x80>
  		else if(instruct[0][0]==4&&foc_cut[1]<3000)foc_cut[1]++;
 800143c:	4b62      	ldr	r3, [pc, #392]	; (80015c8 <StartRobotTask+0x2b8>)
 800143e:	685b      	ldr	r3, [r3, #4]
 8001440:	f640 32b7 	movw	r2, #2999	; 0xbb7
 8001444:	4293      	cmp	r3, r2
 8001446:	dca3      	bgt.n	8001390 <StartRobotTask+0x80>
 8001448:	3301      	adds	r3, #1
 800144a:	4a5f      	ldr	r2, [pc, #380]	; (80015c8 <StartRobotTask+0x2b8>)
 800144c:	6053      	str	r3, [r2, #4]
 800144e:	e79f      	b.n	8001390 <StartRobotTask+0x80>
  		else if(instruct[0][0]==8&&foc_cut[1]>-3000)foc_cut[1]--;
 8001450:	4b5d      	ldr	r3, [pc, #372]	; (80015c8 <StartRobotTask+0x2b8>)
 8001452:	685b      	ldr	r3, [r3, #4]
 8001454:	4a5f      	ldr	r2, [pc, #380]	; (80015d4 <StartRobotTask+0x2c4>)
 8001456:	4293      	cmp	r3, r2
 8001458:	db9a      	blt.n	8001390 <StartRobotTask+0x80>
 800145a:	3b01      	subs	r3, #1
 800145c:	4a5a      	ldr	r2, [pc, #360]	; (80015c8 <StartRobotTask+0x2b8>)
 800145e:	6053      	str	r3, [r2, #4]
 8001460:	e796      	b.n	8001390 <StartRobotTask+0x80>
  		else if(instruct[0][0]==16&&foc_cut[2]<3000)foc_cut[2]++;
 8001462:	4b59      	ldr	r3, [pc, #356]	; (80015c8 <StartRobotTask+0x2b8>)
 8001464:	689b      	ldr	r3, [r3, #8]
 8001466:	f640 32b7 	movw	r2, #2999	; 0xbb7
 800146a:	4293      	cmp	r3, r2
 800146c:	dc90      	bgt.n	8001390 <StartRobotTask+0x80>
 800146e:	3301      	adds	r3, #1
 8001470:	4a55      	ldr	r2, [pc, #340]	; (80015c8 <StartRobotTask+0x2b8>)
 8001472:	6093      	str	r3, [r2, #8]
 8001474:	e78c      	b.n	8001390 <StartRobotTask+0x80>
  		else if(instruct[0][0]==32&&foc_cut[2]>-3000)foc_cut[2]--;
 8001476:	4b54      	ldr	r3, [pc, #336]	; (80015c8 <StartRobotTask+0x2b8>)
 8001478:	689b      	ldr	r3, [r3, #8]
 800147a:	4a56      	ldr	r2, [pc, #344]	; (80015d4 <StartRobotTask+0x2c4>)
 800147c:	4293      	cmp	r3, r2
 800147e:	db87      	blt.n	8001390 <StartRobotTask+0x80>
 8001480:	3b01      	subs	r3, #1
 8001482:	4a51      	ldr	r2, [pc, #324]	; (80015c8 <StartRobotTask+0x2b8>)
 8001484:	6093      	str	r3, [r2, #8]
 8001486:	e783      	b.n	8001390 <StartRobotTask+0x80>
  		else if(instruct[0][0]==64&&foc_cut[3]<3000)foc_cut[3]++;
 8001488:	4b4f      	ldr	r3, [pc, #316]	; (80015c8 <StartRobotTask+0x2b8>)
 800148a:	68db      	ldr	r3, [r3, #12]
 800148c:	f640 32b7 	movw	r2, #2999	; 0xbb7
 8001490:	4293      	cmp	r3, r2
 8001492:	f73f af7d 	bgt.w	8001390 <StartRobotTask+0x80>
 8001496:	3301      	adds	r3, #1
 8001498:	4a4b      	ldr	r2, [pc, #300]	; (80015c8 <StartRobotTask+0x2b8>)
 800149a:	60d3      	str	r3, [r2, #12]
 800149c:	e778      	b.n	8001390 <StartRobotTask+0x80>
  		else if(instruct[0][0]==128&&foc_cut[3]>-3000)foc_cut[3]--;
 800149e:	4b4a      	ldr	r3, [pc, #296]	; (80015c8 <StartRobotTask+0x2b8>)
 80014a0:	68db      	ldr	r3, [r3, #12]
 80014a2:	4a4c      	ldr	r2, [pc, #304]	; (80015d4 <StartRobotTask+0x2c4>)
 80014a4:	4293      	cmp	r3, r2
 80014a6:	f6ff af73 	blt.w	8001390 <StartRobotTask+0x80>
 80014aa:	3b01      	subs	r3, #1
 80014ac:	4a46      	ldr	r2, [pc, #280]	; (80015c8 <StartRobotTask+0x2b8>)
 80014ae:	60d3      	str	r3, [r2, #12]
 80014b0:	e76e      	b.n	8001390 <StartRobotTask+0x80>
  		else if(instruct[0][0]==256&&foc_cut[4]<3000)foc_cut[4]++;
 80014b2:	4b45      	ldr	r3, [pc, #276]	; (80015c8 <StartRobotTask+0x2b8>)
 80014b4:	691b      	ldr	r3, [r3, #16]
 80014b6:	f640 32b7 	movw	r2, #2999	; 0xbb7
 80014ba:	4293      	cmp	r3, r2
 80014bc:	f73f af68 	bgt.w	8001390 <StartRobotTask+0x80>
 80014c0:	3301      	adds	r3, #1
 80014c2:	4a41      	ldr	r2, [pc, #260]	; (80015c8 <StartRobotTask+0x2b8>)
 80014c4:	6113      	str	r3, [r2, #16]
 80014c6:	e763      	b.n	8001390 <StartRobotTask+0x80>
  		else if(instruct[0][0]==512&&foc_cut[4]>-3000)foc_cut[4]--;
 80014c8:	4b3f      	ldr	r3, [pc, #252]	; (80015c8 <StartRobotTask+0x2b8>)
 80014ca:	691b      	ldr	r3, [r3, #16]
 80014cc:	4a41      	ldr	r2, [pc, #260]	; (80015d4 <StartRobotTask+0x2c4>)
 80014ce:	4293      	cmp	r3, r2
 80014d0:	f6ff af5e 	blt.w	8001390 <StartRobotTask+0x80>
 80014d4:	3b01      	subs	r3, #1
 80014d6:	4a3c      	ldr	r2, [pc, #240]	; (80015c8 <StartRobotTask+0x2b8>)
 80014d8:	6113      	str	r3, [r2, #16]
 80014da:	e759      	b.n	8001390 <StartRobotTask+0x80>
  		else if(instruct[0][0]==2048&&foc_cut[5]>-3000)foc_cut[5]--;
 80014dc:	f5b3 6f00 	cmp.w	r3, #2048	; 0x800
 80014e0:	f47f af56 	bne.w	8001390 <StartRobotTask+0x80>
 80014e4:	4b38      	ldr	r3, [pc, #224]	; (80015c8 <StartRobotTask+0x2b8>)
 80014e6:	695b      	ldr	r3, [r3, #20]
 80014e8:	4a3a      	ldr	r2, [pc, #232]	; (80015d4 <StartRobotTask+0x2c4>)
 80014ea:	4293      	cmp	r3, r2
 80014ec:	f6ff af50 	blt.w	8001390 <StartRobotTask+0x80>
 80014f0:	3b01      	subs	r3, #1
 80014f2:	4a35      	ldr	r2, [pc, #212]	; (80015c8 <StartRobotTask+0x2b8>)
 80014f4:	6153      	str	r3, [r2, #20]
 80014f6:	e74b      	b.n	8001390 <StartRobotTask+0x80>
  		else if(instruct[2][0]==1)
 80014f8:	2b01      	cmp	r3, #1
 80014fa:	d079      	beq.n	80015f0 <StartRobotTask+0x2e0>
  		else if(instruct[2][0]==2)
 80014fc:	2b02      	cmp	r3, #2
 80014fe:	f000 808f 	beq.w	8001620 <StartRobotTask+0x310>
  		else if(instruct[2][0]==4)
 8001502:	2b04      	cmp	r3, #4
 8001504:	f000 8090 	beq.w	8001628 <StartRobotTask+0x318>
  		else if(instruct[2][0]==8)
 8001508:	2b08      	cmp	r3, #8
 800150a:	f47f af49 	bne.w	80013a0 <StartRobotTask+0x90>
  		  HAL_FLASH_Unlock();
 800150e:	f004 fb91 	bl	8005c34 <HAL_FLASH_Unlock>
  		  FirstSector = GetSector(FLASH_USER_START_ADDR);
 8001512:	482a      	ldr	r0, [pc, #168]	; (80015bc <StartRobotTask+0x2ac>)
 8001514:	f7ff fdea 	bl	80010ec <GetSector>
 8001518:	4607      	mov	r7, r0
 800151a:	4b2f      	ldr	r3, [pc, #188]	; (80015d8 <StartRobotTask+0x2c8>)
 800151c:	6018      	str	r0, [r3, #0]
  		  NbOfSectors = GetSector(FLASH_USER_END_ADDR) - FirstSector + 1;
 800151e:	482f      	ldr	r0, [pc, #188]	; (80015dc <StartRobotTask+0x2cc>)
 8001520:	f7ff fde4 	bl	80010ec <GetSector>
 8001524:	1c43      	adds	r3, r0, #1
 8001526:	1bdb      	subs	r3, r3, r7
 8001528:	4a2d      	ldr	r2, [pc, #180]	; (80015e0 <StartRobotTask+0x2d0>)
 800152a:	6013      	str	r3, [r2, #0]
  		  EraseInitStruct.TypeErase = FLASH_TYPEERASE_SECTORS;
 800152c:	482d      	ldr	r0, [pc, #180]	; (80015e4 <StartRobotTask+0x2d4>)
 800152e:	2200      	movs	r2, #0
 8001530:	6002      	str	r2, [r0, #0]
  		  EraseInitStruct.VoltageRange = FLASH_VOLTAGE_RANGE_3;
 8001532:	2202      	movs	r2, #2
 8001534:	6102      	str	r2, [r0, #16]
  		  EraseInitStruct.Sector = FirstSector;
 8001536:	6087      	str	r7, [r0, #8]
  		  EraseInitStruct.NbSectors = NbOfSectors;
 8001538:	60c3      	str	r3, [r0, #12]
  		  if(HAL_FLASHEx_Erase(&EraseInitStruct, &SectorError) != HAL_OK)
 800153a:	492b      	ldr	r1, [pc, #172]	; (80015e8 <StartRobotTask+0x2d8>)
 800153c:	f004 fc7c 	bl	8005e38 <HAL_FLASHEx_Erase>
 8001540:	2800      	cmp	r0, #0
 8001542:	f040 80e0 	bne.w	8001706 <StartRobotTask+0x3f6>
  		   __HAL_FLASH_DATA_CACHE_DISABLE();
 8001546:	4b29      	ldr	r3, [pc, #164]	; (80015ec <StartRobotTask+0x2dc>)
 8001548:	681a      	ldr	r2, [r3, #0]
 800154a:	f422 6280 	bic.w	r2, r2, #1024	; 0x400
 800154e:	601a      	str	r2, [r3, #0]
  		   __HAL_FLASH_INSTRUCTION_CACHE_DISABLE();
 8001550:	681a      	ldr	r2, [r3, #0]
 8001552:	f422 7200 	bic.w	r2, r2, #512	; 0x200
 8001556:	601a      	str	r2, [r3, #0]
  		   __HAL_FLASH_DATA_CACHE_RESET();
 8001558:	681a      	ldr	r2, [r3, #0]
 800155a:	f442 5280 	orr.w	r2, r2, #4096	; 0x1000
 800155e:	601a      	str	r2, [r3, #0]
 8001560:	681a      	ldr	r2, [r3, #0]
 8001562:	f422 5280 	bic.w	r2, r2, #4096	; 0x1000
 8001566:	601a      	str	r2, [r3, #0]
  		   __HAL_FLASH_INSTRUCTION_CACHE_RESET();
 8001568:	681a      	ldr	r2, [r3, #0]
 800156a:	f442 6200 	orr.w	r2, r2, #2048	; 0x800
 800156e:	601a      	str	r2, [r3, #0]
 8001570:	681a      	ldr	r2, [r3, #0]
 8001572:	f422 6200 	bic.w	r2, r2, #2048	; 0x800
 8001576:	601a      	str	r2, [r3, #0]
  		   __HAL_FLASH_INSTRUCTION_CACHE_ENABLE();
 8001578:	681a      	ldr	r2, [r3, #0]
 800157a:	f442 7200 	orr.w	r2, r2, #512	; 0x200
 800157e:	601a      	str	r2, [r3, #0]
  		   __HAL_FLASH_DATA_CACHE_ENABLE();
 8001580:	681a      	ldr	r2, [r3, #0]
 8001582:	f442 6280 	orr.w	r2, r2, #1024	; 0x400
 8001586:	601a      	str	r2, [r3, #0]
  		   Address = FLASH_USER_START_ADDR;
 8001588:	490c      	ldr	r1, [pc, #48]	; (80015bc <StartRobotTask+0x2ac>)
 800158a:	6031      	str	r1, [r6, #0]
  		     if (HAL_FLASH_Program(FLASH_TYPEPROGRAM_HALFWORD, Address, 0) == HAL_OK)
 800158c:	f04f 0800 	mov.w	r8, #0
 8001590:	f04f 0900 	mov.w	r9, #0
  		   while (Address < FLASH_USER_END_ADDR)
 8001594:	4f11      	ldr	r7, [pc, #68]	; (80015dc <StartRobotTask+0x2cc>)
  		     if (HAL_FLASH_Program(FLASH_TYPEPROGRAM_HALFWORD, Address, 0) == HAL_OK)
 8001596:	4642      	mov	r2, r8
 8001598:	464b      	mov	r3, r9
 800159a:	2001      	movs	r0, #1
 800159c:	f004 fb9a 	bl	8005cd4 <HAL_FLASH_Program>
 80015a0:	2800      	cmp	r0, #0
 80015a2:	f040 80bd 	bne.w	8001720 <StartRobotTask+0x410>
  		       Address = Address + 2;
 80015a6:	6831      	ldr	r1, [r6, #0]
 80015a8:	3102      	adds	r1, #2
 80015aa:	6031      	str	r1, [r6, #0]
  		   while (Address < FLASH_USER_END_ADDR)
 80015ac:	42b9      	cmp	r1, r7
 80015ae:	d3f2      	bcc.n	8001596 <StartRobotTask+0x286>
  		   HAL_FLASH_Lock();
 80015b0:	f004 fb54 	bl	8005c5c <HAL_FLASH_Lock>
 80015b4:	e6f4      	b.n	80013a0 <StartRobotTask+0x90>
 80015b6:	bf00      	nop
 80015b8:	20002ba4 	.word	0x20002ba4
 80015bc:	08020000 	.word	0x08020000
 80015c0:	20000000 	.word	0x20000000
 80015c4:	20002be1 	.word	0x20002be1
 80015c8:	20003288 	.word	0x20003288
 80015cc:	20002be0 	.word	0x20002be0
 80015d0:	20002be2 	.word	0x20002be2
 80015d4:	fffff449 	.word	0xfffff449
 80015d8:	20002bbc 	.word	0x20002bbc
 80015dc:	0805ffff 	.word	0x0805ffff
 80015e0:	20002bc0 	.word	0x20002bc0
 80015e4:	20002ba8 	.word	0x20002ba8
 80015e8:	20002bc4 	.word	0x20002bc4
 80015ec:	40023c00 	.word	0x40023c00
  			instruct[instruct_step][4] = cur_pulse1;
 80015f0:	4b54      	ldr	r3, [pc, #336]	; (8001744 <StartRobotTask+0x434>)
 80015f2:	681b      	ldr	r3, [r3, #0]
 80015f4:	2216      	movs	r2, #22
 80015f6:	fb02 5303 	mla	r3, r2, r3, r5
 80015fa:	4a53      	ldr	r2, [pc, #332]	; (8001748 <StartRobotTask+0x438>)
 80015fc:	6812      	ldr	r2, [r2, #0]
 80015fe:	811a      	strh	r2, [r3, #8]
  			instruct[instruct_step][5] = cur_pulse2;
 8001600:	4a52      	ldr	r2, [pc, #328]	; (800174c <StartRobotTask+0x43c>)
 8001602:	6812      	ldr	r2, [r2, #0]
 8001604:	815a      	strh	r2, [r3, #10]
  			instruct[instruct_step][6] = cur_pulse3;
 8001606:	4a52      	ldr	r2, [pc, #328]	; (8001750 <StartRobotTask+0x440>)
 8001608:	6812      	ldr	r2, [r2, #0]
 800160a:	819a      	strh	r2, [r3, #12]
  			instruct[instruct_step][7] = cur_pulse4;
 800160c:	4a51      	ldr	r2, [pc, #324]	; (8001754 <StartRobotTask+0x444>)
 800160e:	6812      	ldr	r2, [r2, #0]
 8001610:	81da      	strh	r2, [r3, #14]
  			instruct[instruct_step][8] = cur_pulse5;
 8001612:	4a51      	ldr	r2, [pc, #324]	; (8001758 <StartRobotTask+0x448>)
 8001614:	6812      	ldr	r2, [r2, #0]
 8001616:	821a      	strh	r2, [r3, #16]
  			instruct[instruct_step][9] = cur_pulse6;
 8001618:	4a50      	ldr	r2, [pc, #320]	; (800175c <StartRobotTask+0x44c>)
 800161a:	6812      	ldr	r2, [r2, #0]
 800161c:	825a      	strh	r2, [r3, #18]
 800161e:	e6bf      	b.n	80013a0 <StartRobotTask+0x90>
  			is_single_run = 1;
 8001620:	4b4f      	ldr	r3, [pc, #316]	; (8001760 <StartRobotTask+0x450>)
 8001622:	2201      	movs	r2, #1
 8001624:	701a      	strb	r2, [r3, #0]
 8001626:	e6bb      	b.n	80013a0 <StartRobotTask+0x90>
  		  HAL_FLASH_Unlock();
 8001628:	f004 fb04 	bl	8005c34 <HAL_FLASH_Unlock>
  		  FirstSector = GetSector(FLASH_USER_START_ADDR);
 800162c:	484d      	ldr	r0, [pc, #308]	; (8001764 <StartRobotTask+0x454>)
 800162e:	f7ff fd5d 	bl	80010ec <GetSector>
 8001632:	4607      	mov	r7, r0
 8001634:	4b4c      	ldr	r3, [pc, #304]	; (8001768 <StartRobotTask+0x458>)
 8001636:	6018      	str	r0, [r3, #0]
  		  NbOfSectors = GetSector(FLASH_USER_END_ADDR) - FirstSector + 1;
 8001638:	484c      	ldr	r0, [pc, #304]	; (800176c <StartRobotTask+0x45c>)
 800163a:	f7ff fd57 	bl	80010ec <GetSector>
 800163e:	1c43      	adds	r3, r0, #1
 8001640:	1bdb      	subs	r3, r3, r7
 8001642:	4a4b      	ldr	r2, [pc, #300]	; (8001770 <StartRobotTask+0x460>)
 8001644:	6013      	str	r3, [r2, #0]
  		  EraseInitStruct.TypeErase = FLASH_TYPEERASE_SECTORS;
 8001646:	484b      	ldr	r0, [pc, #300]	; (8001774 <StartRobotTask+0x464>)
 8001648:	2200      	movs	r2, #0
 800164a:	6002      	str	r2, [r0, #0]
  		  EraseInitStruct.VoltageRange = FLASH_VOLTAGE_RANGE_3;
 800164c:	2202      	movs	r2, #2
 800164e:	6102      	str	r2, [r0, #16]
  		  EraseInitStruct.Sector = FirstSector;
 8001650:	6087      	str	r7, [r0, #8]
  		  EraseInitStruct.NbSectors = NbOfSectors;
 8001652:	60c3      	str	r3, [r0, #12]
  		  if(HAL_FLASHEx_Erase(&EraseInitStruct, &SectorError) != HAL_OK)
 8001654:	4948      	ldr	r1, [pc, #288]	; (8001778 <StartRobotTask+0x468>)
 8001656:	f004 fbef 	bl	8005e38 <HAL_FLASHEx_Erase>
 800165a:	2800      	cmp	r0, #0
 800165c:	d139      	bne.n	80016d2 <StartRobotTask+0x3c2>
  		   __HAL_FLASH_DATA_CACHE_DISABLE();
 800165e:	4b47      	ldr	r3, [pc, #284]	; (800177c <StartRobotTask+0x46c>)
 8001660:	681a      	ldr	r2, [r3, #0]
 8001662:	f422 6280 	bic.w	r2, r2, #1024	; 0x400
 8001666:	601a      	str	r2, [r3, #0]
  		   __HAL_FLASH_INSTRUCTION_CACHE_DISABLE();
 8001668:	681a      	ldr	r2, [r3, #0]
 800166a:	f422 7200 	bic.w	r2, r2, #512	; 0x200
 800166e:	601a      	str	r2, [r3, #0]
  		   __HAL_FLASH_DATA_CACHE_RESET();
 8001670:	681a      	ldr	r2, [r3, #0]
 8001672:	f442 5280 	orr.w	r2, r2, #4096	; 0x1000
 8001676:	601a      	str	r2, [r3, #0]
 8001678:	681a      	ldr	r2, [r3, #0]
 800167a:	f422 5280 	bic.w	r2, r2, #4096	; 0x1000
 800167e:	601a      	str	r2, [r3, #0]
  		   __HAL_FLASH_INSTRUCTION_CACHE_RESET();
 8001680:	681a      	ldr	r2, [r3, #0]
 8001682:	f442 6200 	orr.w	r2, r2, #2048	; 0x800
 8001686:	601a      	str	r2, [r3, #0]
 8001688:	681a      	ldr	r2, [r3, #0]
 800168a:	f422 6200 	bic.w	r2, r2, #2048	; 0x800
 800168e:	601a      	str	r2, [r3, #0]
  		   __HAL_FLASH_INSTRUCTION_CACHE_ENABLE();
 8001690:	681a      	ldr	r2, [r3, #0]
 8001692:	f442 7200 	orr.w	r2, r2, #512	; 0x200
 8001696:	601a      	str	r2, [r3, #0]
  		   __HAL_FLASH_DATA_CACHE_ENABLE();
 8001698:	681a      	ldr	r2, [r3, #0]
 800169a:	f442 6280 	orr.w	r2, r2, #1024	; 0x400
 800169e:	601a      	str	r2, [r3, #0]
  		   Address = FLASH_USER_START_ADDR;
 80016a0:	4930      	ldr	r1, [pc, #192]	; (8001764 <StartRobotTask+0x454>)
 80016a2:	6031      	str	r1, [r6, #0]
  		   int instruct_addr = 11;
 80016a4:	270b      	movs	r7, #11
  		  	 if(instruct_addr<(11*500))
 80016a6:	f241 537b 	movw	r3, #5499	; 0x157b
 80016aa:	429f      	cmp	r7, r3
  		  		 instruct_data = instruct[instruct_addr/11][instruct_addr%11];
 80016ac:	bfd4      	ite	le
 80016ae:	f935 2017 	ldrshle.w	r2, [r5, r7, lsl #1]
  		  	 else instruct_data = 0;
 80016b2:	2200      	movgt	r2, #0
  		     if (HAL_FLASH_Program(FLASH_TYPEPROGRAM_HALFWORD, Address, instruct_data) == HAL_OK)
 80016b4:	17d3      	asrs	r3, r2, #31
 80016b6:	2001      	movs	r0, #1
 80016b8:	f004 fb0c 	bl	8005cd4 <HAL_FLASH_Program>
 80016bc:	b9b0      	cbnz	r0, 80016ec <StartRobotTask+0x3dc>
  		    	 instruct_addr++;
 80016be:	3701      	adds	r7, #1
  		       Address = Address + 2;
 80016c0:	6831      	ldr	r1, [r6, #0]
 80016c2:	3102      	adds	r1, #2
 80016c4:	6031      	str	r1, [r6, #0]
  		   while (Address < FLASH_USER_END_ADDR)
 80016c6:	4b29      	ldr	r3, [pc, #164]	; (800176c <StartRobotTask+0x45c>)
 80016c8:	4299      	cmp	r1, r3
 80016ca:	d3ec      	bcc.n	80016a6 <StartRobotTask+0x396>
  		   HAL_FLASH_Lock();
 80016cc:	f004 fac6 	bl	8005c5c <HAL_FLASH_Lock>
 80016d0:	e666      	b.n	80013a0 <StartRobotTask+0x90>
  		    	osDelay(1000);
 80016d2:	f44f 767a 	mov.w	r6, #1000	; 0x3e8
  		    	HAL_GPIO_TogglePin(LED0_GPIO_Port, LED0_Pin);
 80016d6:	4d2a      	ldr	r5, [pc, #168]	; (8001780 <StartRobotTask+0x470>)
 80016d8:	f44f 7400 	mov.w	r4, #512	; 0x200
  		    	osDelay(1000);
 80016dc:	4630      	mov	r0, r6
 80016de:	f005 ffe0 	bl	80076a2 <osDelay>
  		    	HAL_GPIO_TogglePin(LED0_GPIO_Port, LED0_Pin);
 80016e2:	4621      	mov	r1, r4
 80016e4:	4628      	mov	r0, r5
 80016e6:	f004 fcf9 	bl	80060dc <HAL_GPIO_TogglePin>
  		    while (1)
 80016ea:	e7f7      	b.n	80016dc <StartRobotTask+0x3cc>
    		       	osDelay(500);
 80016ec:	f44f 76fa 	mov.w	r6, #500	; 0x1f4
    		       	HAL_GPIO_TogglePin(LED0_GPIO_Port, LED0_Pin);
 80016f0:	4d23      	ldr	r5, [pc, #140]	; (8001780 <StartRobotTask+0x470>)
 80016f2:	f44f 7400 	mov.w	r4, #512	; 0x200
    		       	osDelay(500);
 80016f6:	4630      	mov	r0, r6
 80016f8:	f005 ffd3 	bl	80076a2 <osDelay>
    		       	HAL_GPIO_TogglePin(LED0_GPIO_Port, LED0_Pin);
 80016fc:	4621      	mov	r1, r4
 80016fe:	4628      	mov	r0, r5
 8001700:	f004 fcec 	bl	80060dc <HAL_GPIO_TogglePin>
  		       while (1)
 8001704:	e7f7      	b.n	80016f6 <StartRobotTask+0x3e6>
  		    	osDelay(1000);
 8001706:	f44f 767a 	mov.w	r6, #1000	; 0x3e8
  		    	HAL_GPIO_TogglePin(LED0_GPIO_Port, LED0_Pin);
 800170a:	4d1d      	ldr	r5, [pc, #116]	; (8001780 <StartRobotTask+0x470>)
 800170c:	f44f 7400 	mov.w	r4, #512	; 0x200
  		    	osDelay(1000);
 8001710:	4630      	mov	r0, r6
 8001712:	f005 ffc6 	bl	80076a2 <osDelay>
  		    	HAL_GPIO_TogglePin(LED0_GPIO_Port, LED0_Pin);
 8001716:	4621      	mov	r1, r4
 8001718:	4628      	mov	r0, r5
 800171a:	f004 fcdf 	bl	80060dc <HAL_GPIO_TogglePin>
  		    while (1)
 800171e:	e7f7      	b.n	8001710 <StartRobotTask+0x400>
    		       	osDelay(500);
 8001720:	f44f 76fa 	mov.w	r6, #500	; 0x1f4
    		       	HAL_GPIO_TogglePin(LED0_GPIO_Port, LED0_Pin);
 8001724:	4d16      	ldr	r5, [pc, #88]	; (8001780 <StartRobotTask+0x470>)
 8001726:	f44f 7400 	mov.w	r4, #512	; 0x200
    		       	osDelay(500);
 800172a:	4630      	mov	r0, r6
 800172c:	f005 ffb9 	bl	80076a2 <osDelay>
    		       	HAL_GPIO_TogglePin(LED0_GPIO_Port, LED0_Pin);
 8001730:	4621      	mov	r1, r4
 8001732:	4628      	mov	r0, r5
 8001734:	f004 fcd2 	bl	80060dc <HAL_GPIO_TogglePin>
  		       while (1)
 8001738:	e7f7      	b.n	800172a <StartRobotTask+0x41a>
		else is_stop = 0;
 800173a:	4b12      	ldr	r3, [pc, #72]	; (8001784 <StartRobotTask+0x474>)
 800173c:	2200      	movs	r2, #0
 800173e:	701a      	strb	r2, [r3, #0]
 8001740:	e63c      	b.n	80013bc <StartRobotTask+0xac>
 8001742:	bf00      	nop
 8001744:	20002af8 	.word	0x20002af8
 8001748:	20002bc8 	.word	0x20002bc8
 800174c:	20002bcc 	.word	0x20002bcc
 8001750:	20002bd0 	.word	0x20002bd0
 8001754:	20002bd4 	.word	0x20002bd4
 8001758:	20002bd8 	.word	0x20002bd8
 800175c:	20002bdc 	.word	0x20002bdc
 8001760:	20002be0 	.word	0x20002be0
 8001764:	08020000 	.word	0x08020000
 8001768:	20002bbc 	.word	0x20002bbc
 800176c:	0805ffff 	.word	0x0805ffff
 8001770:	20002bc0 	.word	0x20002bc0
 8001774:	20002ba8 	.word	0x20002ba8
 8001778:	20002bc4 	.word	0x20002bc4
 800177c:	40023c00 	.word	0x40023c00
 8001780:	40021400 	.word	0x40021400
 8001784:	20002be2 	.word	0x20002be2

08001788 <CRC16_Modbus>:
{
 8001788:	b410      	push	{r4}
	for ( j=0; j<len;j++)
 800178a:	1e0c      	subs	r4, r1, #0
 800178c:	dd15      	ble.n	80017ba <CRC16_Modbus+0x32>
 800178e:	1e41      	subs	r1, r0, #1
 8001790:	440c      	add	r4, r1
	unsigned short crc=0xFFFF;
 8001792:	f64f 70ff 	movw	r0, #65535	; 0xffff
				crc=crc^ 0xa001;
 8001796:	f24a 0201 	movw	r2, #40961	; 0xa001
 800179a:	e001      	b.n	80017a0 <CRC16_Modbus+0x18>
	for ( j=0; j<len;j++)
 800179c:	42a1      	cmp	r1, r4
 800179e:	d00e      	beq.n	80017be <CRC16_Modbus+0x36>
		crc=crc^pdata[j];
 80017a0:	f811 3f01 	ldrb.w	r3, [r1, #1]!
 80017a4:	4058      	eors	r0, r3
 80017a6:	2308      	movs	r3, #8
			if( ( crc&0x0001) >0)
 80017a8:	f010 0f01 	tst.w	r0, #1
				crc=crc^ 0xa001;
 80017ac:	bf14      	ite	ne
 80017ae:	ea82 0050 	eorne.w	r0, r2, r0, lsr #1
				crc=crc>>1;
 80017b2:	0840      	lsreq	r0, r0, #1
		for ( i=0; i<8; i++)
 80017b4:	3b01      	subs	r3, #1
 80017b6:	d1f7      	bne.n	80017a8 <CRC16_Modbus+0x20>
 80017b8:	e7f0      	b.n	800179c <CRC16_Modbus+0x14>
	unsigned short crc=0xFFFF;
 80017ba:	f64f 70ff 	movw	r0, #65535	; 0xffff
}
 80017be:	f85d 4b04 	ldr.w	r4, [sp], #4
 80017c2:	4770      	bx	lr

080017c4 <StartModbusTask>:
* @param argument: Not used
* @retval None
*/
/* USER CODE END Header_StartModbusTask */
void StartModbusTask(void const * argument)
{
 80017c4:	e92d 4ff0 	stmdb	sp!, {r4, r5, r6, r7, r8, r9, sl, fp, lr}
 80017c8:	f5ad 7d01 	sub.w	sp, sp, #516	; 0x204
	uint8_t tx_modbus[rx_bufSize];
	uint16_t start_count = 0;
	uint16_t end_count = 0;
	uint8_t flag = 0;
	uint16_t crc = 0;
	int time_out = 25;
 80017cc:	2719      	movs	r7, #25
	uint8_t flag = 0;
 80017ce:	2400      	movs	r4, #0
	uint16_t end_count = 0;
 80017d0:	4625      	mov	r5, r4
	uint16_t start_count = 0;
 80017d2:	4626      	mov	r6, r4
  /* Infinite loop */
  for(;;)
  {
  	rx_Count = rx_bufSize - __HAL_DMA_GET_COUNTER(&hdma_usart2_rx);
 80017d4:	f8df 92ec 	ldr.w	r9, [pc, #748]	; 8001ac4 <StartModbusTask+0x300>
 80017d8:	f8df 82ec 	ldr.w	r8, [pc, #748]	; 8001ac8 <StartModbusTask+0x304>
  			}
  			else if(rx_modbus[1]==0x06)
  			{
					uint16_t adrr=0;
					adrr = rx_modbus[2]*256+rx_modbus[3];
					instruct[(adrr)/11][adrr%11] = rx_modbus[4]*256+rx_modbus[5];
 80017dc:	f8df a2ec 	ldr.w	sl, [pc, #748]	; 8001acc <StartModbusTask+0x308>
 80017e0:	e005      	b.n	80017ee <StartModbusTask+0x2a>
  	if(flag==1 && rx_Count==end_count)
 80017e2:	42ab      	cmp	r3, r5
 80017e4:	d017      	beq.n	8001816 <StartModbusTask+0x52>
  			}

  		}

  	}
  	if(rx_Count!=end_count)//正在接收数据
 80017e6:	461d      	mov	r5, r3
  	}




    osDelay(2);
 80017e8:	2002      	movs	r0, #2
 80017ea:	f005 ff5a 	bl	80076a2 <osDelay>
  	rx_Count = rx_bufSize - __HAL_DMA_GET_COUNTER(&hdma_usart2_rx);
 80017ee:	f8d9 3000 	ldr.w	r3, [r9]
 80017f2:	685b      	ldr	r3, [r3, #4]
 80017f4:	f5c3 7380 	rsb	r3, r3, #256	; 0x100
 80017f8:	b29b      	uxth	r3, r3
 80017fa:	f8a8 3000 	strh.w	r3, [r8]
  	if(flag==1 && rx_Count==end_count)
 80017fe:	2c00      	cmp	r4, #0
 8001800:	d1ef      	bne.n	80017e2 <StartModbusTask+0x1e>
  	if(rx_Count!=end_count)//正在接收数据
 8001802:	f8b8 3000 	ldrh.w	r3, [r8]
 8001806:	42ab      	cmp	r3, r5
 8001808:	f040 8153 	bne.w	8001ab2 <StartModbusTask+0x2ee>
  		if(time_out<0)//通信断开
 800180c:	3f01      	subs	r7, #1
 800180e:	f100 814b 	bmi.w	8001aa8 <StartModbusTask+0x2e4>
 8001812:	2400      	movs	r4, #0
 8001814:	e7e8      	b.n	80017e8 <StartModbusTask+0x24>
  		for(;start_count!=end_count;)
 8001816:	42ae      	cmp	r6, r5
 8001818:	d021      	beq.n	800185e <StartModbusTask+0x9a>
 800181a:	a840      	add	r0, sp, #256	; 0x100
 800181c:	4602      	mov	r2, r0
 800181e:	f1c0 0001 	rsb	r0, r0, #1
  			rx_modbus[len++] = rx_data[start_count++];
 8001822:	f8df c2ac 	ldr.w	ip, [pc, #684]	; 8001ad0 <StartModbusTask+0x30c>
 8001826:	1c73      	adds	r3, r6, #1
 8001828:	b29b      	uxth	r3, r3
 800182a:	1884      	adds	r4, r0, r2
 800182c:	f81c 1006 	ldrb.w	r1, [ip, r6]
 8001830:	f802 1b01 	strb.w	r1, [r2], #1
  			if(start_count>=rx_bufSize)start_count = 0;
 8001834:	f5b3 7f80 	cmp.w	r3, #256	; 0x100
 8001838:	bf34      	ite	cc
 800183a:	461e      	movcc	r6, r3
 800183c:	2600      	movcs	r6, #0
  		for(;start_count!=end_count;)
 800183e:	42ae      	cmp	r6, r5
 8001840:	d1f1      	bne.n	8001826 <StartModbusTask+0x62>
  		crc=CRC16_Modbus(rx_modbus,len-2);
 8001842:	1ea6      	subs	r6, r4, #2
 8001844:	f50d 7b80 	add.w	fp, sp, #256	; 0x100
 8001848:	4631      	mov	r1, r6
 800184a:	4658      	mov	r0, fp
 800184c:	f7ff ff9c 	bl	8001788 <CRC16_Modbus>
  		if(BYTE0(crc)==rx_modbus[len-2]&&BYTE1(crc)==rx_modbus[len-1])
 8001850:	f81b 2006 	ldrb.w	r2, [fp, r6]
 8001854:	b2c3      	uxtb	r3, r0
 8001856:	429a      	cmp	r2, r3
 8001858:	d003      	beq.n	8001862 <StartModbusTask+0x9e>
 800185a:	462e      	mov	r6, r5
 800185c:	e7d6      	b.n	800180c <StartModbusTask+0x48>
  		int len=0;
 800185e:	2400      	movs	r4, #0
 8001860:	e7ef      	b.n	8001842 <StartModbusTask+0x7e>
  		if(BYTE0(crc)==rx_modbus[len-2]&&BYTE1(crc)==rx_modbus[len-1])
 8001862:	ab40      	add	r3, sp, #256	; 0x100
 8001864:	441c      	add	r4, r3
 8001866:	f3c0 2007 	ubfx	r0, r0, #8, #8
 800186a:	f814 3c01 	ldrb.w	r3, [r4, #-1]
 800186e:	4298      	cmp	r0, r3
 8001870:	d001      	beq.n	8001876 <StartModbusTask+0xb2>
 8001872:	462e      	mov	r6, r5
 8001874:	e7ca      	b.n	800180c <StartModbusTask+0x48>
  			if(rx_modbus[1]==0x03)
 8001876:	f89d 3101 	ldrb.w	r3, [sp, #257]	; 0x101
 800187a:	2b03      	cmp	r3, #3
 800187c:	d00b      	beq.n	8001896 <StartModbusTask+0xd2>
  			else if(rx_modbus[1]==0x04)
 800187e:	2b04      	cmp	r3, #4
 8001880:	d058      	beq.n	8001934 <StartModbusTask+0x170>
  			else if(rx_modbus[1]==0x10)
 8001882:	2b10      	cmp	r3, #16
 8001884:	f000 809a 	beq.w	80019bc <StartModbusTask+0x1f8>
  			else if(rx_modbus[1]==0x06)
 8001888:	2b06      	cmp	r3, #6
 800188a:	f000 80e8 	beq.w	8001a5e <StartModbusTask+0x29a>
 800188e:	462e      	mov	r6, r5
  		time_out--;
 8001890:	2718      	movs	r7, #24
 8001892:	2400      	movs	r4, #0
 8001894:	e7a8      	b.n	80017e8 <StartModbusTask+0x24>
					tx_modbus[tx_len++] = rx_modbus[0];
 8001896:	f89d 3100 	ldrb.w	r3, [sp, #256]	; 0x100
 800189a:	f88d 3000 	strb.w	r3, [sp]
					tx_modbus[tx_len++] = rx_modbus[1];
 800189e:	2303      	movs	r3, #3
 80018a0:	f88d 3001 	strb.w	r3, [sp, #1]
					adrr = rx_modbus[2]*256+rx_modbus[3];
 80018a4:	f89d 3102 	ldrb.w	r3, [sp, #258]	; 0x102
 80018a8:	f89d 7103 	ldrb.w	r7, [sp, #259]	; 0x103
 80018ac:	eb07 2703 	add.w	r7, r7, r3, lsl #8
 80018b0:	b2bf      	uxth	r7, r7
					tx_modbus[tx_len++] = rx_modbus[5]*2;
 80018b2:	f89d 6105 	ldrb.w	r6, [sp, #261]	; 0x105
 80018b6:	0073      	lsls	r3, r6, #1
 80018b8:	f88d 3002 	strb.w	r3, [sp, #2]
					for(int i=0; i<rx_modbus[5];i++,adrr++)
 80018bc:	46b4      	mov	ip, r6
 80018be:	b3be      	cbz	r6, 8001930 <StartModbusTask+0x16c>
 80018c0:	2000      	movs	r0, #0
					tx_modbus[tx_len++] = rx_modbus[5]*2;
 80018c2:	2103      	movs	r1, #3
						tx_modbus[tx_len++] = BYTE1(instruct[(adrr)/11][adrr%11]);
 80018c4:	4c7c      	ldr	r4, [pc, #496]	; (8001ab8 <StartModbusTask+0x2f4>)
 80018c6:	183b      	adds	r3, r7, r0
 80018c8:	b29b      	uxth	r3, r3
 80018ca:	fbaa e203 	umull	lr, r2, sl, r3
 80018ce:	ea4f 0ed2 	mov.w	lr, r2, lsr #3
 80018d2:	eb0e 0b8e 	add.w	fp, lr, lr, lsl #2
 80018d6:	eb0e 024b 	add.w	r2, lr, fp, lsl #1
 80018da:	1a9b      	subs	r3, r3, r2
 80018dc:	fa12 f383 	uxtah	r3, r2, r3
 80018e0:	eb04 0e43 	add.w	lr, r4, r3, lsl #1
 80018e4:	1c4a      	adds	r2, r1, #1
 80018e6:	b292      	uxth	r2, r2
 80018e8:	f89e e001 	ldrb.w	lr, [lr, #1]
 80018ec:	f80d e001 	strb.w	lr, [sp, r1]
						tx_modbus[tx_len++] = BYTE0(instruct[(adrr)/11][adrr%11]);
 80018f0:	3102      	adds	r1, #2
 80018f2:	b289      	uxth	r1, r1
 80018f4:	f814 3013 	ldrb.w	r3, [r4, r3, lsl #1]
 80018f8:	f80d 3002 	strb.w	r3, [sp, r2]
					for(int i=0; i<rx_modbus[5];i++,adrr++)
 80018fc:	3001      	adds	r0, #1
 80018fe:	4560      	cmp	r0, ip
 8001900:	d1e1      	bne.n	80018c6 <StartModbusTask+0x102>
 8001902:	0074      	lsls	r4, r6, #1
 8001904:	3403      	adds	r4, #3
					crc=CRC16_Modbus(tx_modbus,tx_len);
 8001906:	4621      	mov	r1, r4
 8001908:	4668      	mov	r0, sp
 800190a:	f7ff ff3d 	bl	8001788 <CRC16_Modbus>
					tx_modbus[tx_len++] = BYTE0(crc);
 800190e:	f80d 0004 	strb.w	r0, [sp, r4]
 8001912:	1c62      	adds	r2, r4, #1
					tx_modbus[tx_len++] = BYTE1(crc);
 8001914:	b292      	uxth	r2, r2
 8001916:	f3c0 2307 	ubfx	r3, r0, #8, #8
 800191a:	f80d 3002 	strb.w	r3, [sp, r2]
 800191e:	1ca2      	adds	r2, r4, #2
					HAL_UART_Transmit_DMA(&huart2, tx_modbus, tx_len);
 8001920:	b292      	uxth	r2, r2
 8001922:	4669      	mov	r1, sp
 8001924:	4865      	ldr	r0, [pc, #404]	; (8001abc <StartModbusTask+0x2f8>)
 8001926:	f005 fbc5 	bl	80070b4 <HAL_UART_Transmit_DMA>
 800192a:	462e      	mov	r6, r5
  			time_out=25;
 800192c:	2719      	movs	r7, #25
 800192e:	e768      	b.n	8001802 <StartModbusTask+0x3e>
					tx_modbus[tx_len++] = rx_modbus[5]*2;
 8001930:	2403      	movs	r4, #3
 8001932:	e7e8      	b.n	8001906 <StartModbusTask+0x142>
					tx_modbus[tx_len++] = rx_modbus[0];
 8001934:	f89d 3100 	ldrb.w	r3, [sp, #256]	; 0x100
 8001938:	f88d 3000 	strb.w	r3, [sp]
					tx_modbus[tx_len++] = rx_modbus[1];
 800193c:	2304      	movs	r3, #4
 800193e:	f88d 3001 	strb.w	r3, [sp, #1]
					adrr = rx_modbus[2]*256+rx_modbus[3];
 8001942:	f89d 3102 	ldrb.w	r3, [sp, #258]	; 0x102
 8001946:	f89d 7103 	ldrb.w	r7, [sp, #259]	; 0x103
 800194a:	eb07 2703 	add.w	r7, r7, r3, lsl #8
 800194e:	b2bf      	uxth	r7, r7
					tx_modbus[tx_len++] = rx_modbus[5]*2;
 8001950:	f89d 4105 	ldrb.w	r4, [sp, #261]	; 0x105
 8001954:	0063      	lsls	r3, r4, #1
 8001956:	f88d 3002 	strb.w	r3, [sp, #2]
					for(int i=0; i<rx_modbus[5];i++,adrr++)
 800195a:	46a4      	mov	ip, r4
 800195c:	b364      	cbz	r4, 80019b8 <StartModbusTask+0x1f4>
 800195e:	2100      	movs	r1, #0
					tx_modbus[tx_len++] = rx_modbus[5]*2;
 8001960:	2303      	movs	r3, #3
						tx_modbus[tx_len++] = BYTE1(adc_data[adrr]);
 8001962:	4e57      	ldr	r6, [pc, #348]	; (8001ac0 <StartModbusTask+0x2fc>)
 8001964:	187a      	adds	r2, r7, r1
 8001966:	b292      	uxth	r2, r2
 8001968:	eb06 0e42 	add.w	lr, r6, r2, lsl #1
 800196c:	1c58      	adds	r0, r3, #1
 800196e:	b280      	uxth	r0, r0
 8001970:	f89e e001 	ldrb.w	lr, [lr, #1]
 8001974:	f80d e003 	strb.w	lr, [sp, r3]
						tx_modbus[tx_len++] = BYTE0(adc_data[adrr]);
 8001978:	3302      	adds	r3, #2
 800197a:	b29b      	uxth	r3, r3
 800197c:	f816 2012 	ldrb.w	r2, [r6, r2, lsl #1]
 8001980:	f80d 2000 	strb.w	r2, [sp, r0]
					for(int i=0; i<rx_modbus[5];i++,adrr++)
 8001984:	3101      	adds	r1, #1
 8001986:	4561      	cmp	r1, ip
 8001988:	d1ec      	bne.n	8001964 <StartModbusTask+0x1a0>
 800198a:	0064      	lsls	r4, r4, #1
 800198c:	3403      	adds	r4, #3
					crc=CRC16_Modbus(tx_modbus,tx_len);
 800198e:	4621      	mov	r1, r4
 8001990:	4668      	mov	r0, sp
 8001992:	f7ff fef9 	bl	8001788 <CRC16_Modbus>
					tx_modbus[tx_len++] = BYTE0(crc);
 8001996:	f80d 0004 	strb.w	r0, [sp, r4]
 800199a:	1c62      	adds	r2, r4, #1
					tx_modbus[tx_len++] = BYTE1(crc);
 800199c:	b292      	uxth	r2, r2
 800199e:	f3c0 2307 	ubfx	r3, r0, #8, #8
 80019a2:	f80d 3002 	strb.w	r3, [sp, r2]
 80019a6:	1ca2      	adds	r2, r4, #2
					HAL_UART_Transmit_DMA(&huart2, tx_modbus, tx_len);
 80019a8:	b292      	uxth	r2, r2
 80019aa:	4669      	mov	r1, sp
 80019ac:	4843      	ldr	r0, [pc, #268]	; (8001abc <StartModbusTask+0x2f8>)
 80019ae:	f005 fb81 	bl	80070b4 <HAL_UART_Transmit_DMA>
 80019b2:	462e      	mov	r6, r5
  			time_out=25;
 80019b4:	2719      	movs	r7, #25
 80019b6:	e724      	b.n	8001802 <StartModbusTask+0x3e>
					tx_modbus[tx_len++] = rx_modbus[5]*2;
 80019b8:	2403      	movs	r4, #3
 80019ba:	e7e8      	b.n	800198e <StartModbusTask+0x1ca>
					adrr = rx_modbus[2]*256+rx_modbus[3];
 80019bc:	f89d 7102 	ldrb.w	r7, [sp, #258]	; 0x102
 80019c0:	f89d 6103 	ldrb.w	r6, [sp, #259]	; 0x103
 80019c4:	eb06 2207 	add.w	r2, r6, r7, lsl #8
 80019c8:	b292      	uxth	r2, r2
					for(int i=0;i<rx_modbus[6];i+=2,adrr++)
 80019ca:	f89d 3106 	ldrb.w	r3, [sp, #262]	; 0x106
 80019ce:	b30b      	cbz	r3, 8001a14 <StartModbusTask+0x250>
 80019d0:	a940      	add	r1, sp, #256	; 0x100
 80019d2:	3b01      	subs	r3, #1
 80019d4:	1c50      	adds	r0, r2, #1
 80019d6:	eb00 0353 	add.w	r3, r0, r3, lsr #1
 80019da:	b298      	uxth	r0, r3
						instruct[(adrr)/11][adrr%11] = rx_modbus[7+i]*256+rx_modbus[8+i];
 80019dc:	4c36      	ldr	r4, [pc, #216]	; (8001ab8 <StartModbusTask+0x2f4>)
 80019de:	fbaa 3c02 	umull	r3, ip, sl, r2
 80019e2:	ea4f 03dc 	mov.w	r3, ip, lsr #3
 80019e6:	469c      	mov	ip, r3
 80019e8:	eb03 0e83 	add.w	lr, r3, r3, lsl #2
 80019ec:	eb03 034e 	add.w	r3, r3, lr, lsl #1
 80019f0:	1ad3      	subs	r3, r2, r3
 80019f2:	eb0c 0c4e 	add.w	ip, ip, lr, lsl #1
 80019f6:	fa1c f383 	uxtah	r3, ip, r3
 80019fa:	f891 e007 	ldrb.w	lr, [r1, #7]
 80019fe:	f891 c008 	ldrb.w	ip, [r1, #8]
 8001a02:	eb0c 2c0e 	add.w	ip, ip, lr, lsl #8
 8001a06:	f824 c013 	strh.w	ip, [r4, r3, lsl #1]
					for(int i=0;i<rx_modbus[6];i+=2,adrr++)
 8001a0a:	3201      	adds	r2, #1
 8001a0c:	b292      	uxth	r2, r2
 8001a0e:	3102      	adds	r1, #2
 8001a10:	4282      	cmp	r2, r0
 8001a12:	d1e4      	bne.n	80019de <StartModbusTask+0x21a>
					tx_modbus[tx_len++] = rx_modbus[0];
 8001a14:	f89d 3100 	ldrb.w	r3, [sp, #256]	; 0x100
 8001a18:	f88d 3000 	strb.w	r3, [sp]
					tx_modbus[tx_len++] = rx_modbus[1];
 8001a1c:	2310      	movs	r3, #16
 8001a1e:	f88d 3001 	strb.w	r3, [sp, #1]
					tx_modbus[tx_len++] = rx_modbus[2];
 8001a22:	f88d 7002 	strb.w	r7, [sp, #2]
					tx_modbus[tx_len++] = rx_modbus[3];
 8001a26:	f88d 6003 	strb.w	r6, [sp, #3]
					tx_modbus[tx_len++] = rx_modbus[4];
 8001a2a:	f89d 3104 	ldrb.w	r3, [sp, #260]	; 0x104
 8001a2e:	f88d 3004 	strb.w	r3, [sp, #4]
					tx_modbus[tx_len++] = rx_modbus[5];
 8001a32:	f89d 3105 	ldrb.w	r3, [sp, #261]	; 0x105
 8001a36:	f88d 3005 	strb.w	r3, [sp, #5]
					crc=CRC16_Modbus(tx_modbus,tx_len);
 8001a3a:	2106      	movs	r1, #6
 8001a3c:	4668      	mov	r0, sp
 8001a3e:	f7ff fea3 	bl	8001788 <CRC16_Modbus>
					tx_modbus[tx_len++] = BYTE0(crc);
 8001a42:	f88d 0006 	strb.w	r0, [sp, #6]
					tx_modbus[tx_len++] = BYTE1(crc);
 8001a46:	f3c0 2307 	ubfx	r3, r0, #8, #8
 8001a4a:	f88d 3007 	strb.w	r3, [sp, #7]
					HAL_UART_Transmit_DMA(&huart2, tx_modbus, tx_len);
 8001a4e:	2208      	movs	r2, #8
 8001a50:	4669      	mov	r1, sp
 8001a52:	481a      	ldr	r0, [pc, #104]	; (8001abc <StartModbusTask+0x2f8>)
 8001a54:	f005 fb2e 	bl	80070b4 <HAL_UART_Transmit_DMA>
 8001a58:	462e      	mov	r6, r5
  			time_out=25;
 8001a5a:	2719      	movs	r7, #25
 8001a5c:	e6d1      	b.n	8001802 <StartModbusTask+0x3e>
					adrr = rx_modbus[2]*256+rx_modbus[3];
 8001a5e:	f89d 2102 	ldrb.w	r2, [sp, #258]	; 0x102
 8001a62:	f89d 3103 	ldrb.w	r3, [sp, #259]	; 0x103
 8001a66:	eb03 2302 	add.w	r3, r3, r2, lsl #8
 8001a6a:	b29b      	uxth	r3, r3
					instruct[(adrr)/11][adrr%11] = rx_modbus[4]*256+rx_modbus[5];
 8001a6c:	fbaa 1203 	umull	r1, r2, sl, r3
 8001a70:	08d1      	lsrs	r1, r2, #3
 8001a72:	460a      	mov	r2, r1
 8001a74:	eb01 0081 	add.w	r0, r1, r1, lsl #2
 8001a78:	eb01 0140 	add.w	r1, r1, r0, lsl #1
 8001a7c:	1a5b      	subs	r3, r3, r1
 8001a7e:	eb02 0240 	add.w	r2, r2, r0, lsl #1
 8001a82:	fa12 f383 	uxtah	r3, r2, r3
 8001a86:	f89d 1104 	ldrb.w	r1, [sp, #260]	; 0x104
 8001a8a:	f89d 2105 	ldrb.w	r2, [sp, #261]	; 0x105
 8001a8e:	eb02 2201 	add.w	r2, r2, r1, lsl #8
 8001a92:	4909      	ldr	r1, [pc, #36]	; (8001ab8 <StartModbusTask+0x2f4>)
 8001a94:	f821 2013 	strh.w	r2, [r1, r3, lsl #1]
					HAL_UART_Transmit_DMA(&huart2, rx_modbus, 8);
 8001a98:	2208      	movs	r2, #8
 8001a9a:	a940      	add	r1, sp, #256	; 0x100
 8001a9c:	4807      	ldr	r0, [pc, #28]	; (8001abc <StartModbusTask+0x2f8>)
 8001a9e:	f005 fb09 	bl	80070b4 <HAL_UART_Transmit_DMA>
 8001aa2:	462e      	mov	r6, r5
  			time_out=25;
 8001aa4:	2719      	movs	r7, #25
 8001aa6:	e6ac      	b.n	8001802 <StartModbusTask+0x3e>
  			instruct[0][0]=0;
 8001aa8:	2400      	movs	r4, #0
 8001aaa:	4b03      	ldr	r3, [pc, #12]	; (8001ab8 <StartModbusTask+0x2f4>)
 8001aac:	801c      	strh	r4, [r3, #0]
  			time_out=0;
 8001aae:	4627      	mov	r7, r4
 8001ab0:	e69a      	b.n	80017e8 <StartModbusTask+0x24>
  	if(rx_Count!=end_count)//正在接收数据
 8001ab2:	461d      	mov	r5, r3
  		flag = 1;
 8001ab4:	2401      	movs	r4, #1
 8001ab6:	e697      	b.n	80017e8 <StartModbusTask+0x24>
 8001ab8:	20000000 	.word	0x20000000
 8001abc:	20003494 	.word	0x20003494
 8001ac0:	200030f0 	.word	0x200030f0
 8001ac4:	20003330 	.word	0x20003330
 8001ac8:	20003044 	.word	0x20003044
 8001acc:	ba2e8ba3 	.word	0xba2e8ba3
 8001ad0:	20003104 	.word	0x20003104

08001ad4 <vApplicationGetIdleTaskMemory>:
  *ppxIdleTaskTCBBuffer = &xIdleTaskTCBBuffer;
 8001ad4:	4b03      	ldr	r3, [pc, #12]	; (8001ae4 <vApplicationGetIdleTaskMemory+0x10>)
 8001ad6:	6003      	str	r3, [r0, #0]
  *ppxIdleTaskStackBuffer = &xIdleStack[0];
 8001ad8:	4b03      	ldr	r3, [pc, #12]	; (8001ae8 <vApplicationGetIdleTaskMemory+0x14>)
 8001ada:	600b      	str	r3, [r1, #0]
  *pulIdleTaskStackSize = configMINIMAL_STACK_SIZE;
 8001adc:	2380      	movs	r3, #128	; 0x80
 8001ade:	6013      	str	r3, [r2, #0]
}
 8001ae0:	4770      	bx	lr
 8001ae2:	bf00      	nop
 8001ae4:	20002df4 	.word	0x20002df4
 8001ae8:	20002bf4 	.word	0x20002bf4

08001aec <MX_FREERTOS_Init>:
void MX_FREERTOS_Init(void) {
 8001aec:	b570      	push	{r4, r5, r6, lr}
 8001aee:	b0b2      	sub	sp, #200	; 0xc8
  osThreadDef(defaultTask, StartDefaultTask, osPriorityNormal, 0, 128);
 8001af0:	4c34      	ldr	r4, [pc, #208]	; (8001bc4 <MX_FREERTOS_Init+0xd8>)
 8001af2:	ad2b      	add	r5, sp, #172	; 0xac
 8001af4:	4626      	mov	r6, r4
 8001af6:	ce0f      	ldmia	r6!, {r0, r1, r2, r3}
 8001af8:	c50f      	stmia	r5!, {r0, r1, r2, r3}
 8001afa:	e896 0007 	ldmia.w	r6, {r0, r1, r2}
 8001afe:	e885 0007 	stmia.w	r5, {r0, r1, r2}
  defaultTaskHandle = osThreadCreate(osThread(defaultTask), NULL);
 8001b02:	2100      	movs	r1, #0
 8001b04:	a82b      	add	r0, sp, #172	; 0xac
 8001b06:	f005 fda0 	bl	800764a <osThreadCreate>
 8001b0a:	4b2f      	ldr	r3, [pc, #188]	; (8001bc8 <MX_FREERTOS_Init+0xdc>)
 8001b0c:	6018      	str	r0, [r3, #0]
  osThreadDef(LedTask, StartLedTask, osPriorityNormal, 0, 128);
 8001b0e:	ad24      	add	r5, sp, #144	; 0x90
 8001b10:	f104 061c 	add.w	r6, r4, #28
 8001b14:	ce0f      	ldmia	r6!, {r0, r1, r2, r3}
 8001b16:	c50f      	stmia	r5!, {r0, r1, r2, r3}
 8001b18:	e896 0007 	ldmia.w	r6, {r0, r1, r2}
 8001b1c:	e885 0007 	stmia.w	r5, {r0, r1, r2}
  LedTaskHandle = osThreadCreate(osThread(LedTask), NULL);
 8001b20:	2100      	movs	r1, #0
 8001b22:	a824      	add	r0, sp, #144	; 0x90
 8001b24:	f005 fd91 	bl	800764a <osThreadCreate>
 8001b28:	4b28      	ldr	r3, [pc, #160]	; (8001bcc <MX_FREERTOS_Init+0xe0>)
 8001b2a:	6018      	str	r0, [r3, #0]
  osThreadDef(SendTask, StartSendTask, osPriorityNormal, 0, 512);
 8001b2c:	ad1d      	add	r5, sp, #116	; 0x74
 8001b2e:	f104 0638 	add.w	r6, r4, #56	; 0x38
 8001b32:	ce0f      	ldmia	r6!, {r0, r1, r2, r3}
 8001b34:	c50f      	stmia	r5!, {r0, r1, r2, r3}
 8001b36:	e896 0007 	ldmia.w	r6, {r0, r1, r2}
 8001b3a:	e885 0007 	stmia.w	r5, {r0, r1, r2}
  SendTaskHandle = osThreadCreate(osThread(SendTask), NULL);
 8001b3e:	2100      	movs	r1, #0
 8001b40:	a81d      	add	r0, sp, #116	; 0x74
 8001b42:	f005 fd82 	bl	800764a <osThreadCreate>
 8001b46:	4b22      	ldr	r3, [pc, #136]	; (8001bd0 <MX_FREERTOS_Init+0xe4>)
 8001b48:	6018      	str	r0, [r3, #0]
  osThreadDef(RobotTask, StartRobotTask, osPriorityNormal, 0, 256);
 8001b4a:	ad16      	add	r5, sp, #88	; 0x58
 8001b4c:	f104 0654 	add.w	r6, r4, #84	; 0x54
 8001b50:	ce0f      	ldmia	r6!, {r0, r1, r2, r3}
 8001b52:	c50f      	stmia	r5!, {r0, r1, r2, r3}
 8001b54:	e896 0007 	ldmia.w	r6, {r0, r1, r2}
 8001b58:	e885 0007 	stmia.w	r5, {r0, r1, r2}
  RobotTaskHandle = osThreadCreate(osThread(RobotTask), NULL);
 8001b5c:	2100      	movs	r1, #0
 8001b5e:	a816      	add	r0, sp, #88	; 0x58
 8001b60:	f005 fd73 	bl	800764a <osThreadCreate>
 8001b64:	4b1b      	ldr	r3, [pc, #108]	; (8001bd4 <MX_FREERTOS_Init+0xe8>)
 8001b66:	6018      	str	r0, [r3, #0]
  osThreadDef(DemoTask, StartDemoTask, osPriorityNormal, 0, 128);
 8001b68:	ad0f      	add	r5, sp, #60	; 0x3c
 8001b6a:	f104 0670 	add.w	r6, r4, #112	; 0x70
 8001b6e:	ce0f      	ldmia	r6!, {r0, r1, r2, r3}
 8001b70:	c50f      	stmia	r5!, {r0, r1, r2, r3}
 8001b72:	e896 0007 	ldmia.w	r6, {r0, r1, r2}
 8001b76:	e885 0007 	stmia.w	r5, {r0, r1, r2}
  DemoTaskHandle = osThreadCreate(osThread(DemoTask), NULL);
 8001b7a:	2100      	movs	r1, #0
 8001b7c:	a80f      	add	r0, sp, #60	; 0x3c
 8001b7e:	f005 fd64 	bl	800764a <osThreadCreate>
 8001b82:	4b15      	ldr	r3, [pc, #84]	; (8001bd8 <MX_FREERTOS_Init+0xec>)
 8001b84:	6018      	str	r0, [r3, #0]
  osThreadDef(TestTask, StartTestTask, osPriorityIdle, 0, 128);
 8001b86:	ad08      	add	r5, sp, #32
 8001b88:	f104 068c 	add.w	r6, r4, #140	; 0x8c
 8001b8c:	ce0f      	ldmia	r6!, {r0, r1, r2, r3}
 8001b8e:	c50f      	stmia	r5!, {r0, r1, r2, r3}
 8001b90:	e896 0007 	ldmia.w	r6, {r0, r1, r2}
 8001b94:	e885 0007 	stmia.w	r5, {r0, r1, r2}
  TestTaskHandle = osThreadCreate(osThread(TestTask), NULL);
 8001b98:	2100      	movs	r1, #0
 8001b9a:	a808      	add	r0, sp, #32
 8001b9c:	f005 fd55 	bl	800764a <osThreadCreate>
 8001ba0:	4b0e      	ldr	r3, [pc, #56]	; (8001bdc <MX_FREERTOS_Init+0xf0>)
 8001ba2:	6018      	str	r0, [r3, #0]
  osThreadDef(ModbusTask, StartModbusTask, osPriorityNormal, 0, 512);
 8001ba4:	ad01      	add	r5, sp, #4
 8001ba6:	34a8      	adds	r4, #168	; 0xa8
 8001ba8:	cc0f      	ldmia	r4!, {r0, r1, r2, r3}
 8001baa:	c50f      	stmia	r5!, {r0, r1, r2, r3}
 8001bac:	e894 0007 	ldmia.w	r4, {r0, r1, r2}
 8001bb0:	e885 0007 	stmia.w	r5, {r0, r1, r2}
  ModbusTaskHandle = osThreadCreate(osThread(ModbusTask), NULL);
 8001bb4:	2100      	movs	r1, #0
 8001bb6:	a801      	add	r0, sp, #4
 8001bb8:	f005 fd47 	bl	800764a <osThreadCreate>
 8001bbc:	4b08      	ldr	r3, [pc, #32]	; (8001be0 <MX_FREERTOS_Init+0xf4>)
 8001bbe:	6018      	str	r0, [r3, #0]
}
 8001bc0:	b032      	add	sp, #200	; 0xc8
 8001bc2:	bd70      	pop	{r4, r5, r6, pc}
 8001bc4:	0800a170 	.word	0x0800a170
 8001bc8:	20003204 	.word	0x20003204
 8001bcc:	2000323c 	.word	0x2000323c
 8001bd0:	200032a8 	.word	0x200032a8
 8001bd4:	20003220 	.word	0x20003220
 8001bd8:	200032a0 	.word	0x200032a0
 8001bdc:	200032a4 	.word	0x200032a4
 8001be0:	20003240 	.word	0x20003240

08001be4 <MX_GPIO_Init>:
        * Output
        * EVENT_OUT
        * EXTI
*/
void MX_GPIO_Init(void)
{
 8001be4:	e92d 43f0 	stmdb	sp!, {r4, r5, r6, r7, r8, r9, lr}
 8001be8:	b08f      	sub	sp, #60	; 0x3c

  GPIO_InitTypeDef GPIO_InitStruct = {0};
 8001bea:	2400      	movs	r4, #0
 8001bec:	9409      	str	r4, [sp, #36]	; 0x24
 8001bee:	940a      	str	r4, [sp, #40]	; 0x28
 8001bf0:	940b      	str	r4, [sp, #44]	; 0x2c
 8001bf2:	940c      	str	r4, [sp, #48]	; 0x30
 8001bf4:	940d      	str	r4, [sp, #52]	; 0x34

  /* GPIO Ports Clock Enable */
  __HAL_RCC_GPIOC_CLK_ENABLE();
 8001bf6:	9401      	str	r4, [sp, #4]
 8001bf8:	4b51      	ldr	r3, [pc, #324]	; (8001d40 <MX_GPIO_Init+0x15c>)
 8001bfa:	6b1a      	ldr	r2, [r3, #48]	; 0x30
 8001bfc:	f042 0204 	orr.w	r2, r2, #4
 8001c00:	631a      	str	r2, [r3, #48]	; 0x30
 8001c02:	6b1a      	ldr	r2, [r3, #48]	; 0x30
 8001c04:	f002 0204 	and.w	r2, r2, #4
 8001c08:	9201      	str	r2, [sp, #4]
 8001c0a:	9a01      	ldr	r2, [sp, #4]
  __HAL_RCC_GPIOF_CLK_ENABLE();
 8001c0c:	9402      	str	r4, [sp, #8]
 8001c0e:	6b1a      	ldr	r2, [r3, #48]	; 0x30
 8001c10:	f042 0220 	orr.w	r2, r2, #32
 8001c14:	631a      	str	r2, [r3, #48]	; 0x30
 8001c16:	6b1a      	ldr	r2, [r3, #48]	; 0x30
 8001c18:	f002 0220 	and.w	r2, r2, #32
 8001c1c:	9202      	str	r2, [sp, #8]
 8001c1e:	9a02      	ldr	r2, [sp, #8]
  __HAL_RCC_GPIOH_CLK_ENABLE();
 8001c20:	9403      	str	r4, [sp, #12]
 8001c22:	6b1a      	ldr	r2, [r3, #48]	; 0x30
 8001c24:	f042 0280 	orr.w	r2, r2, #128	; 0x80
 8001c28:	631a      	str	r2, [r3, #48]	; 0x30
 8001c2a:	6b1a      	ldr	r2, [r3, #48]	; 0x30
 8001c2c:	f002 0280 	and.w	r2, r2, #128	; 0x80
 8001c30:	9203      	str	r2, [sp, #12]
 8001c32:	9a03      	ldr	r2, [sp, #12]
  __HAL_RCC_GPIOA_CLK_ENABLE();
 8001c34:	9404      	str	r4, [sp, #16]
 8001c36:	6b1a      	ldr	r2, [r3, #48]	; 0x30
 8001c38:	f042 0201 	orr.w	r2, r2, #1
 8001c3c:	631a      	str	r2, [r3, #48]	; 0x30
 8001c3e:	6b1a      	ldr	r2, [r3, #48]	; 0x30
 8001c40:	f002 0201 	and.w	r2, r2, #1
 8001c44:	9204      	str	r2, [sp, #16]
 8001c46:	9a04      	ldr	r2, [sp, #16]
  __HAL_RCC_GPIOG_CLK_ENABLE();
 8001c48:	9405      	str	r4, [sp, #20]
 8001c4a:	6b1a      	ldr	r2, [r3, #48]	; 0x30
 8001c4c:	f042 0240 	orr.w	r2, r2, #64	; 0x40
 8001c50:	631a      	str	r2, [r3, #48]	; 0x30
 8001c52:	6b1a      	ldr	r2, [r3, #48]	; 0x30
 8001c54:	f002 0240 	and.w	r2, r2, #64	; 0x40
 8001c58:	9205      	str	r2, [sp, #20]
 8001c5a:	9a05      	ldr	r2, [sp, #20]
  __HAL_RCC_GPIOE_CLK_ENABLE();
 8001c5c:	9406      	str	r4, [sp, #24]
 8001c5e:	6b1a      	ldr	r2, [r3, #48]	; 0x30
 8001c60:	f042 0210 	orr.w	r2, r2, #16
 8001c64:	631a      	str	r2, [r3, #48]	; 0x30
 8001c66:	6b1a      	ldr	r2, [r3, #48]	; 0x30
 8001c68:	f002 0210 	and.w	r2, r2, #16
 8001c6c:	9206      	str	r2, [sp, #24]
 8001c6e:	9a06      	ldr	r2, [sp, #24]
  __HAL_RCC_GPIOB_CLK_ENABLE();
 8001c70:	9407      	str	r4, [sp, #28]
 8001c72:	6b1a      	ldr	r2, [r3, #48]	; 0x30
 8001c74:	f042 0202 	orr.w	r2, r2, #2
 8001c78:	631a      	str	r2, [r3, #48]	; 0x30
 8001c7a:	6b1a      	ldr	r2, [r3, #48]	; 0x30
 8001c7c:	f002 0202 	and.w	r2, r2, #2
 8001c80:	9207      	str	r2, [sp, #28]
 8001c82:	9a07      	ldr	r2, [sp, #28]
  __HAL_RCC_GPIOD_CLK_ENABLE();
 8001c84:	9408      	str	r4, [sp, #32]
 8001c86:	6b1a      	ldr	r2, [r3, #48]	; 0x30
 8001c88:	f042 0208 	orr.w	r2, r2, #8
 8001c8c:	631a      	str	r2, [r3, #48]	; 0x30
 8001c8e:	6b1b      	ldr	r3, [r3, #48]	; 0x30
 8001c90:	f003 0308 	and.w	r3, r3, #8
 8001c94:	9308      	str	r3, [sp, #32]
 8001c96:	9b08      	ldr	r3, [sp, #32]

  /*Configure GPIO pin Output Level */
  HAL_GPIO_WritePin(GPIOF, LED0_Pin|LED1_Pin, GPIO_PIN_RESET);
 8001c98:	f8df 90b0 	ldr.w	r9, [pc, #176]	; 8001d4c <MX_GPIO_Init+0x168>
 8001c9c:	4622      	mov	r2, r4
 8001c9e:	f44f 61c0 	mov.w	r1, #1536	; 0x600
 8001ca2:	4648      	mov	r0, r9
 8001ca4:	f004 fa14 	bl	80060d0 <HAL_GPIO_WritePin>

  /*Configure GPIO pin Output Level */
  HAL_GPIO_WritePin(GPIOG, STEP6_DIR_Pin|STEP6_PUL_Pin, GPIO_PIN_RESET);
 8001ca8:	f8df 80a4 	ldr.w	r8, [pc, #164]	; 8001d50 <MX_GPIO_Init+0x16c>
 8001cac:	4622      	mov	r2, r4
 8001cae:	2103      	movs	r1, #3
 8001cb0:	4640      	mov	r0, r8
 8001cb2:	f004 fa0d 	bl	80060d0 <HAL_GPIO_WritePin>

  /*Configure GPIO pin Output Level */
  HAL_GPIO_WritePin(GPIOE, STEP1_DIR_Pin|STEP1_PUL_Pin|STEP2_DIR_Pin|STEP2_PUL_Pin
 8001cb6:	4e23      	ldr	r6, [pc, #140]	; (8001d44 <MX_GPIO_Init+0x160>)
 8001cb8:	4622      	mov	r2, r4
 8001cba:	f64f 7180 	movw	r1, #65408	; 0xff80
 8001cbe:	4630      	mov	r0, r6
 8001cc0:	f004 fa06 	bl	80060d0 <HAL_GPIO_WritePin>
                          |STEP3_DIR_Pin|STEP3_PUL_Pin|STEP4_DIR_Pin|STEP4_PUL_Pin
                          |STEP5_DIR_Pin, GPIO_PIN_RESET);

  /*Configure GPIO pin Output Level */
  HAL_GPIO_WritePin(STEP5_PUL_GPIO_Port, STEP5_PUL_Pin, GPIO_PIN_RESET);
 8001cc4:	4f20      	ldr	r7, [pc, #128]	; (8001d48 <MX_GPIO_Init+0x164>)
 8001cc6:	4622      	mov	r2, r4
 8001cc8:	f44f 6180 	mov.w	r1, #1024	; 0x400
 8001ccc:	4638      	mov	r0, r7
 8001cce:	f004 f9ff 	bl	80060d0 <HAL_GPIO_WritePin>

  /*Configure GPIO pins : PFPin PFPin */
  GPIO_InitStruct.Pin = LED0_Pin|LED1_Pin;
 8001cd2:	f44f 63c0 	mov.w	r3, #1536	; 0x600
 8001cd6:	9309      	str	r3, [sp, #36]	; 0x24
  GPIO_InitStruct.Mode = GPIO_MODE_OUTPUT_PP;
 8001cd8:	2501      	movs	r5, #1
 8001cda:	950a      	str	r5, [sp, #40]	; 0x28
  GPIO_InitStruct.Pull = GPIO_NOPULL;
 8001cdc:	940b      	str	r4, [sp, #44]	; 0x2c
  GPIO_InitStruct.Speed = GPIO_SPEED_FREQ_LOW;
 8001cde:	940c      	str	r4, [sp, #48]	; 0x30
  HAL_GPIO_Init(GPIOF, &GPIO_InitStruct);
 8001ce0:	a909      	add	r1, sp, #36	; 0x24
 8001ce2:	4648      	mov	r0, r9
 8001ce4:	f004 f8fc 	bl	8005ee0 <HAL_GPIO_Init>

  /*Configure GPIO pins : PGPin PGPin */
  GPIO_InitStruct.Pin = STEP6_DIR_Pin|STEP6_PUL_Pin;
 8001ce8:	2303      	movs	r3, #3
 8001cea:	9309      	str	r3, [sp, #36]	; 0x24
  GPIO_InitStruct.Mode = GPIO_MODE_OUTPUT_PP;
 8001cec:	950a      	str	r5, [sp, #40]	; 0x28
  GPIO_InitStruct.Pull = GPIO_NOPULL;
 8001cee:	940b      	str	r4, [sp, #44]	; 0x2c
  GPIO_InitStruct.Speed = GPIO_SPEED_FREQ_LOW;
 8001cf0:	940c      	str	r4, [sp, #48]	; 0x30
  HAL_GPIO_Init(GPIOG, &GPIO_InitStruct);
 8001cf2:	a909      	add	r1, sp, #36	; 0x24
 8001cf4:	4640      	mov	r0, r8
 8001cf6:	f004 f8f3 	bl	8005ee0 <HAL_GPIO_Init>

  /*Configure GPIO pins : PEPin PEPin PEPin PEPin
                           PEPin PEPin PEPin */
  GPIO_InitStruct.Pin = STEP1_DIR_Pin|STEP1_PUL_Pin|STEP2_DIR_Pin|STEP2_PUL_Pin
 8001cfa:	f649 7380 	movw	r3, #40832	; 0x9f80
 8001cfe:	9309      	str	r3, [sp, #36]	; 0x24
                          |STEP3_DIR_Pin|STEP3_PUL_Pin|STEP5_DIR_Pin;
  GPIO_InitStruct.Mode = GPIO_MODE_OUTPUT_PP;
 8001d00:	950a      	str	r5, [sp, #40]	; 0x28
  GPIO_InitStruct.Pull = GPIO_NOPULL;
 8001d02:	940b      	str	r4, [sp, #44]	; 0x2c
  GPIO_InitStruct.Speed = GPIO_SPEED_FREQ_LOW;
 8001d04:	940c      	str	r4, [sp, #48]	; 0x30
  HAL_GPIO_Init(GPIOE, &GPIO_InitStruct);
 8001d06:	a909      	add	r1, sp, #36	; 0x24
 8001d08:	4630      	mov	r0, r6
 8001d0a:	f004 f8e9 	bl	8005ee0 <HAL_GPIO_Init>

  /*Configure GPIO pins : PEPin PEPin */
  GPIO_InitStruct.Pin = STEP4_DIR_Pin|STEP4_PUL_Pin;
 8001d0e:	f44f 43c0 	mov.w	r3, #24576	; 0x6000
 8001d12:	9309      	str	r3, [sp, #36]	; 0x24
  GPIO_InitStruct.Mode = GPIO_MODE_OUTPUT_OD;
 8001d14:	2311      	movs	r3, #17
 8001d16:	930a      	str	r3, [sp, #40]	; 0x28
  GPIO_InitStruct.Pull = GPIO_NOPULL;
 8001d18:	940b      	str	r4, [sp, #44]	; 0x2c
  GPIO_InitStruct.Speed = GPIO_SPEED_FREQ_LOW;
 8001d1a:	940c      	str	r4, [sp, #48]	; 0x30
  HAL_GPIO_Init(GPIOE, &GPIO_InitStruct);
 8001d1c:	a909      	add	r1, sp, #36	; 0x24
 8001d1e:	4630      	mov	r0, r6
 8001d20:	f004 f8de 	bl	8005ee0 <HAL_GPIO_Init>

  /*Configure GPIO pin : PtPin */
  GPIO_InitStruct.Pin = STEP5_PUL_Pin;
 8001d24:	f44f 6380 	mov.w	r3, #1024	; 0x400
 8001d28:	9309      	str	r3, [sp, #36]	; 0x24
  GPIO_InitStruct.Mode = GPIO_MODE_OUTPUT_PP;
 8001d2a:	950a      	str	r5, [sp, #40]	; 0x28
  GPIO_InitStruct.Pull = GPIO_NOPULL;
 8001d2c:	940b      	str	r4, [sp, #44]	; 0x2c
  GPIO_InitStruct.Speed = GPIO_SPEED_FREQ_LOW;
 8001d2e:	940c      	str	r4, [sp, #48]	; 0x30
  HAL_GPIO_Init(STEP5_PUL_GPIO_Port, &GPIO_InitStruct);
 8001d30:	a909      	add	r1, sp, #36	; 0x24
 8001d32:	4638      	mov	r0, r7
 8001d34:	f004 f8d4 	bl	8005ee0 <HAL_GPIO_Init>

}
 8001d38:	b00f      	add	sp, #60	; 0x3c
 8001d3a:	e8bd 83f0 	ldmia.w	sp!, {r4, r5, r6, r7, r8, r9, pc}
 8001d3e:	bf00      	nop
 8001d40:	40023800 	.word	0x40023800
 8001d44:	40021000 	.word	0x40021000
 8001d48:	40020400 	.word	0x40020400
 8001d4c:	40021400 	.word	0x40021400
 8001d50:	40021800 	.word	0x40021800

08001d54 <SystemClock_Config>:
/**
  * @brief System Clock Configuration
  * @retval None
  */
void SystemClock_Config(void)
{
 8001d54:	b500      	push	{lr}
 8001d56:	b095      	sub	sp, #84	; 0x54
  RCC_OscInitTypeDef RCC_OscInitStruct = {0};
 8001d58:	2230      	movs	r2, #48	; 0x30
 8001d5a:	2100      	movs	r1, #0
 8001d5c:	a808      	add	r0, sp, #32
 8001d5e:	f006 faa7 	bl	80082b0 <memset>
  RCC_ClkInitTypeDef RCC_ClkInitStruct = {0};
 8001d62:	2300      	movs	r3, #0
 8001d64:	9303      	str	r3, [sp, #12]
 8001d66:	9304      	str	r3, [sp, #16]
 8001d68:	9305      	str	r3, [sp, #20]
 8001d6a:	9306      	str	r3, [sp, #24]
 8001d6c:	9307      	str	r3, [sp, #28]

  /** Configure the main internal regulator output voltage
  */
  __HAL_RCC_PWR_CLK_ENABLE();
 8001d6e:	9301      	str	r3, [sp, #4]
 8001d70:	4a1f      	ldr	r2, [pc, #124]	; (8001df0 <SystemClock_Config+0x9c>)
 8001d72:	6c11      	ldr	r1, [r2, #64]	; 0x40
 8001d74:	f041 5180 	orr.w	r1, r1, #268435456	; 0x10000000
 8001d78:	6411      	str	r1, [r2, #64]	; 0x40
 8001d7a:	6c12      	ldr	r2, [r2, #64]	; 0x40
 8001d7c:	f002 5280 	and.w	r2, r2, #268435456	; 0x10000000
 8001d80:	9201      	str	r2, [sp, #4]
 8001d82:	9a01      	ldr	r2, [sp, #4]
  __HAL_PWR_VOLTAGESCALING_CONFIG(PWR_REGULATOR_VOLTAGE_SCALE1);
 8001d84:	9302      	str	r3, [sp, #8]
 8001d86:	4a1b      	ldr	r2, [pc, #108]	; (8001df4 <SystemClock_Config+0xa0>)
 8001d88:	6811      	ldr	r1, [r2, #0]
 8001d8a:	f441 4180 	orr.w	r1, r1, #16384	; 0x4000
 8001d8e:	6011      	str	r1, [r2, #0]
 8001d90:	6812      	ldr	r2, [r2, #0]
 8001d92:	f402 4280 	and.w	r2, r2, #16384	; 0x4000
 8001d96:	9202      	str	r2, [sp, #8]
 8001d98:	9a02      	ldr	r2, [sp, #8]
  /** Initializes the RCC Oscillators according to the specified parameters
  * in the RCC_OscInitTypeDef structure.
  */
  RCC_OscInitStruct.OscillatorType = RCC_OSCILLATORTYPE_HSI;
 8001d9a:	2202      	movs	r2, #2
 8001d9c:	9208      	str	r2, [sp, #32]
  RCC_OscInitStruct.HSIState = RCC_HSI_ON;
 8001d9e:	2101      	movs	r1, #1
 8001da0:	910b      	str	r1, [sp, #44]	; 0x2c
  RCC_OscInitStruct.HSICalibrationValue = RCC_HSICALIBRATION_DEFAULT;
 8001da2:	2110      	movs	r1, #16
 8001da4:	910c      	str	r1, [sp, #48]	; 0x30
  RCC_OscInitStruct.PLL.PLLState = RCC_PLL_ON;
 8001da6:	920e      	str	r2, [sp, #56]	; 0x38
  RCC_OscInitStruct.PLL.PLLSource = RCC_PLLSOURCE_HSI;
 8001da8:	930f      	str	r3, [sp, #60]	; 0x3c
  RCC_OscInitStruct.PLL.PLLM = 8;
 8001daa:	2308      	movs	r3, #8
 8001dac:	9310      	str	r3, [sp, #64]	; 0x40
  RCC_OscInitStruct.PLL.PLLN = 168;
 8001dae:	23a8      	movs	r3, #168	; 0xa8
 8001db0:	9311      	str	r3, [sp, #68]	; 0x44
  RCC_OscInitStruct.PLL.PLLP = RCC_PLLP_DIV2;
 8001db2:	9212      	str	r2, [sp, #72]	; 0x48
  RCC_OscInitStruct.PLL.PLLQ = 4;
 8001db4:	2304      	movs	r3, #4
 8001db6:	9313      	str	r3, [sp, #76]	; 0x4c
  if (HAL_RCC_OscConfig(&RCC_OscInitStruct) != HAL_OK)
 8001db8:	a808      	add	r0, sp, #32
 8001dba:	f004 f999 	bl	80060f0 <HAL_RCC_OscConfig>
 8001dbe:	b998      	cbnz	r0, 8001de8 <SystemClock_Config+0x94>
  {
    Error_Handler();
  }
  /** Initializes the CPU, AHB and APB buses clocks
  */
  RCC_ClkInitStruct.ClockType = RCC_CLOCKTYPE_HCLK|RCC_CLOCKTYPE_SYSCLK
 8001dc0:	230f      	movs	r3, #15
 8001dc2:	9303      	str	r3, [sp, #12]
                              |RCC_CLOCKTYPE_PCLK1|RCC_CLOCKTYPE_PCLK2;
  RCC_ClkInitStruct.SYSCLKSource = RCC_SYSCLKSOURCE_PLLCLK;
 8001dc4:	2302      	movs	r3, #2
 8001dc6:	9304      	str	r3, [sp, #16]
  RCC_ClkInitStruct.AHBCLKDivider = RCC_SYSCLK_DIV1;
 8001dc8:	2300      	movs	r3, #0
 8001dca:	9305      	str	r3, [sp, #20]
  RCC_ClkInitStruct.APB1CLKDivider = RCC_HCLK_DIV4;
 8001dcc:	f44f 53a0 	mov.w	r3, #5120	; 0x1400
 8001dd0:	9306      	str	r3, [sp, #24]
  RCC_ClkInitStruct.APB2CLKDivider = RCC_HCLK_DIV2;
 8001dd2:	f44f 5380 	mov.w	r3, #4096	; 0x1000
 8001dd6:	9307      	str	r3, [sp, #28]

  if (HAL_RCC_ClockConfig(&RCC_ClkInitStruct, FLASH_LATENCY_5) != HAL_OK)
 8001dd8:	2105      	movs	r1, #5
 8001dda:	a803      	add	r0, sp, #12
 8001ddc:	f004 fbec 	bl	80065b8 <HAL_RCC_ClockConfig>
 8001de0:	b920      	cbnz	r0, 8001dec <SystemClock_Config+0x98>
  {
    Error_Handler();
  }
}
 8001de2:	b015      	add	sp, #84	; 0x54
 8001de4:	f85d fb04 	ldr.w	pc, [sp], #4
  \details Disables IRQ interrupts by setting the I-bit in the CPSR.
           Can only be executed in Privileged modes.
 */
__STATIC_FORCEINLINE void __disable_irq(void)
{
  __ASM volatile ("cpsid i" : : : "memory");
 8001de8:	b672      	cpsid	i
void Error_Handler(void)
{
  /* USER CODE BEGIN Error_Handler_Debug */
  /* User can add his own implementation to report the HAL error return state */
  __disable_irq();
  while (1)
 8001dea:	e7fe      	b.n	8001dea <SystemClock_Config+0x96>
 8001dec:	b672      	cpsid	i
 8001dee:	e7fe      	b.n	8001dee <SystemClock_Config+0x9a>
 8001df0:	40023800 	.word	0x40023800
 8001df4:	40007000 	.word	0x40007000

08001df8 <main>:
{
 8001df8:	b508      	push	{r3, lr}
  HAL_Init();
 8001dfa:	f003 f86b 	bl	8004ed4 <HAL_Init>
  SystemClock_Config();
 8001dfe:	f7ff ffa9 	bl	8001d54 <SystemClock_Config>
  MX_GPIO_Init();
 8001e02:	f7ff feef 	bl	8001be4 <MX_GPIO_Init>
  MX_DMA_Init();
 8001e06:	f7ff f935 	bl	8001074 <MX_DMA_Init>
  MX_ADC1_Init();
 8001e0a:	f7ff f841 	bl	8000e90 <MX_ADC1_Init>
  MX_USART1_UART_Init();
 8001e0e:	f002 ff07 	bl	8004c20 <MX_USART1_UART_Init>
  MX_USART2_UART_Init();
 8001e12:	f002 ff1f 	bl	8004c54 <MX_USART2_UART_Init>
  MX_TIM1_Init();
 8001e16:	f002 fe8d 	bl	8004b34 <MX_TIM1_Init>
  HAL_ADC_Start_DMA(&hadc1, (uint32_t *)adc_data, 8);
 8001e1a:	2208      	movs	r2, #8
 8001e1c:	490b      	ldr	r1, [pc, #44]	; (8001e4c <main+0x54>)
 8001e1e:	480c      	ldr	r0, [pc, #48]	; (8001e50 <main+0x58>)
 8001e20:	f003 f946 	bl	80050b0 <HAL_ADC_Start_DMA>
  HAL_UART_Receive_DMA(&huart2, rx_data, rx_bufSize);
 8001e24:	f44f 7280 	mov.w	r2, #256	; 0x100
 8001e28:	490a      	ldr	r1, [pc, #40]	; (8001e54 <main+0x5c>)
 8001e2a:	480b      	ldr	r0, [pc, #44]	; (8001e58 <main+0x60>)
 8001e2c:	f005 fbec 	bl	8007608 <HAL_UART_Receive_DMA>
  HAL_TIM_Base_Start_IT(&htim1);
 8001e30:	4c0a      	ldr	r4, [pc, #40]	; (8001e5c <main+0x64>)
 8001e32:	4620      	mov	r0, r4
 8001e34:	f004 fd26 	bl	8006884 <HAL_TIM_Base_Start_IT>
  HAL_TIM_OC_Start_IT(&htim1,TIM_CHANNEL_1);
 8001e38:	2100      	movs	r1, #0
 8001e3a:	4620      	mov	r0, r4
 8001e3c:	f004 ff4a 	bl	8006cd4 <HAL_TIM_OC_Start_IT>
  MX_FREERTOS_Init();
 8001e40:	f7ff fe54 	bl	8001aec <MX_FREERTOS_Init>
  osKernelStart();
 8001e44:	f005 fbfc 	bl	8007640 <osKernelStart>
  while (1)
 8001e48:	e7fe      	b.n	8001e48 <main+0x50>
 8001e4a:	bf00      	nop
 8001e4c:	200030f0 	.word	0x200030f0
 8001e50:	20003048 	.word	0x20003048
 8001e54:	20003104 	.word	0x20003104
 8001e58:	20003494 	.word	0x20003494
 8001e5c:	200032e8 	.word	0x200032e8

08001e60 <HAL_TIM_OC_DelayElapsedCallback>:
	if(htim==&htim1){
 8001e60:	4b01      	ldr	r3, [pc, #4]	; (8001e68 <HAL_TIM_OC_DelayElapsedCallback+0x8>)
 8001e62:	4283      	cmp	r3, r0
 8001e64:	d002      	beq.n	8001e6c <HAL_TIM_OC_DelayElapsedCallback+0xc>
 8001e66:	4770      	bx	lr
 8001e68:	200032e8 	.word	0x200032e8
{
 8001e6c:	e92d 4ff0 	stmdb	sp!, {r4, r5, r6, r7, r8, r9, sl, fp, lr}
 8001e70:	ed2d 8b08 	vpush	{d8-d11}
 8001e74:	b089      	sub	sp, #36	; 0x24
		HAL_GPIO_WritePin(STEP1_PUL_GPIO_Port,STEP1_PUL_Pin,GPIO_PIN_SET);
 8001e76:	4cc8      	ldr	r4, [pc, #800]	; (8002198 <HAL_TIM_OC_DelayElapsedCallback+0x338>)
 8001e78:	2201      	movs	r2, #1
 8001e7a:	f44f 7180 	mov.w	r1, #256	; 0x100
 8001e7e:	4620      	mov	r0, r4
 8001e80:	f004 f926 	bl	80060d0 <HAL_GPIO_WritePin>
		HAL_GPIO_WritePin(STEP2_PUL_GPIO_Port,STEP2_PUL_Pin,GPIO_PIN_SET);
 8001e84:	2201      	movs	r2, #1
 8001e86:	f44f 6180 	mov.w	r1, #1024	; 0x400
 8001e8a:	4620      	mov	r0, r4
 8001e8c:	f004 f920 	bl	80060d0 <HAL_GPIO_WritePin>
		HAL_GPIO_WritePin(STEP3_PUL_GPIO_Port,STEP3_PUL_Pin,GPIO_PIN_SET);
 8001e90:	2201      	movs	r2, #1
 8001e92:	f44f 5180 	mov.w	r1, #4096	; 0x1000
 8001e96:	4620      	mov	r0, r4
 8001e98:	f004 f91a 	bl	80060d0 <HAL_GPIO_WritePin>
		HAL_GPIO_WritePin(STEP4_PUL_GPIO_Port,STEP4_PUL_Pin,GPIO_PIN_RESET);
 8001e9c:	2200      	movs	r2, #0
 8001e9e:	f44f 4180 	mov.w	r1, #16384	; 0x4000
 8001ea2:	4620      	mov	r0, r4
 8001ea4:	f004 f914 	bl	80060d0 <HAL_GPIO_WritePin>
		HAL_GPIO_WritePin(STEP5_PUL_GPIO_Port,STEP5_PUL_Pin,GPIO_PIN_SET);
 8001ea8:	2201      	movs	r2, #1
 8001eaa:	f44f 6180 	mov.w	r1, #1024	; 0x400
 8001eae:	48bb      	ldr	r0, [pc, #748]	; (800219c <HAL_TIM_OC_DelayElapsedCallback+0x33c>)
 8001eb0:	f004 f90e 	bl	80060d0 <HAL_GPIO_WritePin>
		HAL_GPIO_WritePin(STEP6_PUL_GPIO_Port,STEP6_PUL_Pin,GPIO_PIN_SET);
 8001eb4:	2201      	movs	r2, #1
 8001eb6:	2102      	movs	r1, #2
 8001eb8:	48b9      	ldr	r0, [pc, #740]	; (80021a0 <HAL_TIM_OC_DelayElapsedCallback+0x340>)
 8001eba:	f004 f909 	bl	80060d0 <HAL_GPIO_WritePin>
		if(!is_start){
 8001ebe:	4bb9      	ldr	r3, [pc, #740]	; (80021a4 <HAL_TIM_OC_DelayElapsedCallback+0x344>)
 8001ec0:	781b      	ldrb	r3, [r3, #0]
 8001ec2:	2b00      	cmp	r3, #0
 8001ec4:	d16c      	bne.n	8001fa0 <HAL_TIM_OC_DelayElapsedCallback+0x140>
			if(foc_cut[0]>100){
 8001ec6:	4bb8      	ldr	r3, [pc, #736]	; (80021a8 <HAL_TIM_OC_DelayElapsedCallback+0x348>)
 8001ec8:	681b      	ldr	r3, [r3, #0]
 8001eca:	2b64      	cmp	r3, #100	; 0x64
 8001ecc:	f340 845b 	ble.w	8002786 <HAL_TIM_OC_DelayElapsedCallback+0x926>
				step1_foc++;
 8001ed0:	4ab6      	ldr	r2, [pc, #728]	; (80021ac <HAL_TIM_OC_DelayElapsedCallback+0x34c>)
 8001ed2:	6812      	ldr	r2, [r2, #0]
 8001ed4:	3201      	adds	r2, #1
				if(step1_foc>(10000/(foc_cut[0]))){
 8001ed6:	f242 7110 	movw	r1, #10000	; 0x2710
 8001eda:	fb91 f3f3 	sdiv	r3, r1, r3
 8001ede:	429a      	cmp	r2, r3
 8001ee0:	f300 843e 	bgt.w	8002760 <HAL_TIM_OC_DelayElapsedCallback+0x900>
				step1_foc++;
 8001ee4:	4bb1      	ldr	r3, [pc, #708]	; (80021ac <HAL_TIM_OC_DelayElapsedCallback+0x34c>)
 8001ee6:	601a      	str	r2, [r3, #0]
			if(foc_cut[1]>100){
 8001ee8:	4baf      	ldr	r3, [pc, #700]	; (80021a8 <HAL_TIM_OC_DelayElapsedCallback+0x348>)
 8001eea:	685b      	ldr	r3, [r3, #4]
 8001eec:	2b64      	cmp	r3, #100	; 0x64
 8001eee:	f340 8486 	ble.w	80027fe <HAL_TIM_OC_DelayElapsedCallback+0x99e>
				step2_foc++;
 8001ef2:	4aaf      	ldr	r2, [pc, #700]	; (80021b0 <HAL_TIM_OC_DelayElapsedCallback+0x350>)
 8001ef4:	6812      	ldr	r2, [r2, #0]
 8001ef6:	3201      	adds	r2, #1
				if(step2_foc>(20000/(foc_cut[1]))){
 8001ef8:	f644 6120 	movw	r1, #20000	; 0x4e20
 8001efc:	fb91 f3f3 	sdiv	r3, r1, r3
 8001f00:	429a      	cmp	r2, r3
 8001f02:	f300 8468 	bgt.w	80027d6 <HAL_TIM_OC_DelayElapsedCallback+0x976>
				step2_foc++;
 8001f06:	4baa      	ldr	r3, [pc, #680]	; (80021b0 <HAL_TIM_OC_DelayElapsedCallback+0x350>)
 8001f08:	601a      	str	r2, [r3, #0]
			if(foc_cut[2]>100){
 8001f0a:	4ba7      	ldr	r3, [pc, #668]	; (80021a8 <HAL_TIM_OC_DelayElapsedCallback+0x348>)
 8001f0c:	689b      	ldr	r3, [r3, #8]
 8001f0e:	2b64      	cmp	r3, #100	; 0x64
 8001f10:	f340 84b2 	ble.w	8002878 <HAL_TIM_OC_DelayElapsedCallback+0xa18>
				step3_foc++;
 8001f14:	4aa7      	ldr	r2, [pc, #668]	; (80021b4 <HAL_TIM_OC_DelayElapsedCallback+0x354>)
 8001f16:	6812      	ldr	r2, [r2, #0]
 8001f18:	3201      	adds	r2, #1
				if(step3_foc>(10000/(foc_cut[2]))){
 8001f1a:	f242 7110 	movw	r1, #10000	; 0x2710
 8001f1e:	fb91 f3f3 	sdiv	r3, r1, r3
 8001f22:	429a      	cmp	r2, r3
 8001f24:	f300 8494 	bgt.w	8002850 <HAL_TIM_OC_DelayElapsedCallback+0x9f0>
				step3_foc++;
 8001f28:	4ba2      	ldr	r3, [pc, #648]	; (80021b4 <HAL_TIM_OC_DelayElapsedCallback+0x354>)
 8001f2a:	601a      	str	r2, [r3, #0]
			if(foc_cut[3]>100){
 8001f2c:	4b9e      	ldr	r3, [pc, #632]	; (80021a8 <HAL_TIM_OC_DelayElapsedCallback+0x348>)
 8001f2e:	68db      	ldr	r3, [r3, #12]
 8001f30:	2b64      	cmp	r3, #100	; 0x64
 8001f32:	f340 851b 	ble.w	800296c <HAL_TIM_OC_DelayElapsedCallback+0xb0c>
				step4_foc++;
 8001f36:	4aa0      	ldr	r2, [pc, #640]	; (80021b8 <HAL_TIM_OC_DelayElapsedCallback+0x358>)
 8001f38:	6812      	ldr	r2, [r2, #0]
 8001f3a:	3201      	adds	r2, #1
				if(step4_foc>(10000/(foc_cut[3]))){
 8001f3c:	f242 7110 	movw	r1, #10000	; 0x2710
 8001f40:	fb91 f3f3 	sdiv	r3, r1, r3
 8001f44:	429a      	cmp	r2, r3
 8001f46:	f300 84f1 	bgt.w	800292c <HAL_TIM_OC_DelayElapsedCallback+0xacc>
				step4_foc++;
 8001f4a:	4b9b      	ldr	r3, [pc, #620]	; (80021b8 <HAL_TIM_OC_DelayElapsedCallback+0x358>)
 8001f4c:	601a      	str	r2, [r3, #0]
			if(foc_cut[4]>100){
 8001f4e:	4b96      	ldr	r3, [pc, #600]	; (80021a8 <HAL_TIM_OC_DelayElapsedCallback+0x348>)
 8001f50:	691b      	ldr	r3, [r3, #16]
 8001f52:	2b64      	cmp	r3, #100	; 0x64
 8001f54:	f340 8552 	ble.w	80029fc <HAL_TIM_OC_DelayElapsedCallback+0xb9c>
				step5_foc++;
 8001f58:	4a98      	ldr	r2, [pc, #608]	; (80021bc <HAL_TIM_OC_DelayElapsedCallback+0x35c>)
 8001f5a:	6812      	ldr	r2, [r2, #0]
 8001f5c:	3201      	adds	r2, #1
				if(step5_foc>(10000/(foc_cut[4]))){
 8001f5e:	f242 7110 	movw	r1, #10000	; 0x2710
 8001f62:	fb91 f3f3 	sdiv	r3, r1, r3
 8001f66:	429a      	cmp	r2, r3
 8001f68:	f300 8535 	bgt.w	80029d6 <HAL_TIM_OC_DelayElapsedCallback+0xb76>
				step5_foc++;
 8001f6c:	4b93      	ldr	r3, [pc, #588]	; (80021bc <HAL_TIM_OC_DelayElapsedCallback+0x35c>)
 8001f6e:	601a      	str	r2, [r3, #0]
			if(foc_cut[5]>100){
 8001f70:	4b8d      	ldr	r3, [pc, #564]	; (80021a8 <HAL_TIM_OC_DelayElapsedCallback+0x348>)
 8001f72:	695b      	ldr	r3, [r3, #20]
 8001f74:	2b64      	cmp	r3, #100	; 0x64
 8001f76:	f340 857b 	ble.w	8002a70 <HAL_TIM_OC_DelayElapsedCallback+0xc10>
				step6_foc++;
 8001f7a:	4a91      	ldr	r2, [pc, #580]	; (80021c0 <HAL_TIM_OC_DelayElapsedCallback+0x360>)
 8001f7c:	6812      	ldr	r2, [r2, #0]
 8001f7e:	3201      	adds	r2, #1
				if(step6_foc>(5000/(foc_cut[5]))){
 8001f80:	f241 3188 	movw	r1, #5000	; 0x1388
 8001f84:	fb91 f3f3 	sdiv	r3, r1, r3
 8001f88:	429a      	cmp	r2, r3
 8001f8a:	f300 855f 	bgt.w	8002a4c <HAL_TIM_OC_DelayElapsedCallback+0xbec>
				step6_foc++;
 8001f8e:	4b8c      	ldr	r3, [pc, #560]	; (80021c0 <HAL_TIM_OC_DelayElapsedCallback+0x360>)
 8001f90:	601a      	str	r2, [r3, #0]
		if((is_start||is_single_run))
 8001f92:	4b84      	ldr	r3, [pc, #528]	; (80021a4 <HAL_TIM_OC_DelayElapsedCallback+0x344>)
 8001f94:	781a      	ldrb	r2, [r3, #0]
 8001f96:	4b8b      	ldr	r3, [pc, #556]	; (80021c4 <HAL_TIM_OC_DelayElapsedCallback+0x364>)
 8001f98:	781b      	ldrb	r3, [r3, #0]
 8001f9a:	4313      	orrs	r3, r2
 8001f9c:	f002 84f6 	beq.w	800498c <HAL_TIM_OC_DelayElapsedCallback+0x2b2c>
			step_time++;
 8001fa0:	4b89      	ldr	r3, [pc, #548]	; (80021c8 <HAL_TIM_OC_DelayElapsedCallback+0x368>)
 8001fa2:	ed93 8a00 	vldr	s16, [r3]
 8001fa6:	eef7 7a00 	vmov.f32	s15, #112	; 0x3f800000  1.0
 8001faa:	ee38 8a27 	vadd.f32	s16, s16, s15
 8001fae:	ed83 8a00 	vstr	s16, [r3]
			instruct[0][10] = (int)step_time/100.0;
 8001fb2:	4d86      	ldr	r5, [pc, #536]	; (80021cc <HAL_TIM_OC_DelayElapsedCallback+0x36c>)
 8001fb4:	eefd 7ac8 	vcvt.s32.f32	s15, s16
 8001fb8:	ee17 0a90 	vmov	r0, s15
 8001fbc:	f7fe fa5a 	bl	8000474 <__aeabi_i2d>
 8001fc0:	2200      	movs	r2, #0
 8001fc2:	4b83      	ldr	r3, [pc, #524]	; (80021d0 <HAL_TIM_OC_DelayElapsedCallback+0x370>)
 8001fc4:	f7fe fbea 	bl	800079c <__aeabi_ddiv>
 8001fc8:	f7fe fd6e 	bl	8000aa8 <__aeabi_d2iz>
 8001fcc:	82a8      	strh	r0, [r5, #20]
			if(((abs(cur_pulse1-instruct[instruct_step][4])<10)&&
 8001fce:	4b81      	ldr	r3, [pc, #516]	; (80021d4 <HAL_TIM_OC_DelayElapsedCallback+0x374>)
 8001fd0:	f8d3 b000 	ldr.w	fp, [r3]
 8001fd4:	4b80      	ldr	r3, [pc, #512]	; (80021d8 <HAL_TIM_OC_DelayElapsedCallback+0x378>)
 8001fd6:	681c      	ldr	r4, [r3, #0]
 8001fd8:	2316      	movs	r3, #22
 8001fda:	fb03 5304 	mla	r3, r3, r4, r5
 8001fde:	f9b3 3008 	ldrsh.w	r3, [r3, #8]
 8001fe2:	ebab 0303 	sub.w	r3, fp, r3
 8001fe6:	3309      	adds	r3, #9
 8001fe8:	2b12      	cmp	r3, #18
 8001fea:	d816      	bhi.n	800201a <HAL_TIM_OC_DelayElapsedCallback+0x1ba>
				 (abs(cur_pulse2-instruct[instruct_step][5])<10)&&
 8001fec:	2316      	movs	r3, #22
 8001fee:	fb03 5304 	mla	r3, r3, r4, r5
 8001ff2:	f9b3 200a 	ldrsh.w	r2, [r3, #10]
 8001ff6:	4b79      	ldr	r3, [pc, #484]	; (80021dc <HAL_TIM_OC_DelayElapsedCallback+0x37c>)
 8001ff8:	681b      	ldr	r3, [r3, #0]
 8001ffa:	1a9b      	subs	r3, r3, r2
 8001ffc:	3309      	adds	r3, #9
			if(((abs(cur_pulse1-instruct[instruct_step][4])<10)&&
 8001ffe:	2b12      	cmp	r3, #18
 8002000:	d80b      	bhi.n	800201a <HAL_TIM_OC_DelayElapsedCallback+0x1ba>
				 (abs(cur_pulse3-instruct[instruct_step][6])<10))||
 8002002:	2316      	movs	r3, #22
 8002004:	fb03 5304 	mla	r3, r3, r4, r5
 8002008:	f9b3 200c 	ldrsh.w	r2, [r3, #12]
 800200c:	4b74      	ldr	r3, [pc, #464]	; (80021e0 <HAL_TIM_OC_DelayElapsedCallback+0x380>)
 800200e:	681b      	ldr	r3, [r3, #0]
 8002010:	1a9b      	subs	r3, r3, r2
 8002012:	3309      	adds	r3, #9
				 (abs(cur_pulse2-instruct[instruct_step][5])<10)&&
 8002014:	2b12      	cmp	r3, #18
 8002016:	f240 8552 	bls.w	8002abe <HAL_TIM_OC_DelayElapsedCallback+0xc5e>
				 (key_flag==0&&is_single_run))
 800201a:	4b72      	ldr	r3, [pc, #456]	; (80021e4 <HAL_TIM_OC_DelayElapsedCallback+0x384>)
				 (abs(cur_pulse3-instruct[instruct_step][6])<10))||
 800201c:	781b      	ldrb	r3, [r3, #0]
 800201e:	2b00      	cmp	r3, #0
 8002020:	f040 80ac 	bne.w	800217c <HAL_TIM_OC_DelayElapsedCallback+0x31c>
				 (key_flag==0&&is_single_run))
 8002024:	4b67      	ldr	r3, [pc, #412]	; (80021c4 <HAL_TIM_OC_DelayElapsedCallback+0x364>)
 8002026:	781b      	ldrb	r3, [r3, #0]
 8002028:	2b00      	cmp	r3, #0
 800202a:	f000 80a7 	beq.w	800217c <HAL_TIM_OC_DelayElapsedCallback+0x31c>
				step=0;
 800202e:	4b6e      	ldr	r3, [pc, #440]	; (80021e8 <HAL_TIM_OC_DelayElapsedCallback+0x388>)
 8002030:	2200      	movs	r2, #0
 8002032:	601a      	str	r2, [r3, #0]
				if((instruct[2][2]+10)>instruct[2][1])
 8002034:	4a65      	ldr	r2, [pc, #404]	; (80021cc <HAL_TIM_OC_DelayElapsedCallback+0x36c>)
 8002036:	f9b2 3030 	ldrsh.w	r3, [r2, #48]	; 0x30
 800203a:	3309      	adds	r3, #9
 800203c:	f9b2 202e 	ldrsh.w	r2, [r2, #46]	; 0x2e
 8002040:	4293      	cmp	r3, r2
 8002042:	db1a      	blt.n	800207a <HAL_TIM_OC_DelayElapsedCallback+0x21a>
					instruct[2][2] = 0;
 8002044:	4a61      	ldr	r2, [pc, #388]	; (80021cc <HAL_TIM_OC_DelayElapsedCallback+0x36c>)
 8002046:	2300      	movs	r3, #0
 8002048:	8613      	strh	r3, [r2, #48]	; 0x30
					instruct_step=10;
 800204a:	4b63      	ldr	r3, [pc, #396]	; (80021d8 <HAL_TIM_OC_DelayElapsedCallback+0x378>)
 800204c:	210a      	movs	r1, #10
 800204e:	6019      	str	r1, [r3, #0]
					if((instruct[3][4]*65536+instruct[3][3])>=(instruct[3][2]*65536+instruct[3][1]))
 8002050:	f9b2 104a 	ldrsh.w	r1, [r2, #74]	; 0x4a
 8002054:	f9b2 3048 	ldrsh.w	r3, [r2, #72]	; 0x48
 8002058:	eb03 4301 	add.w	r3, r3, r1, lsl #16
 800205c:	f9b2 1046 	ldrsh.w	r1, [r2, #70]	; 0x46
 8002060:	f9b2 2044 	ldrsh.w	r2, [r2, #68]	; 0x44
 8002064:	eb02 4201 	add.w	r2, r2, r1, lsl #16
 8002068:	4293      	cmp	r3, r2
 800206a:	f2c0 854f 	blt.w	8002b0c <HAL_TIM_OC_DelayElapsedCallback+0xcac>
						is_start = 0;
 800206e:	2300      	movs	r3, #0
 8002070:	4a4c      	ldr	r2, [pc, #304]	; (80021a4 <HAL_TIM_OC_DelayElapsedCallback+0x344>)
 8002072:	7013      	strb	r3, [r2, #0]
						instruct[3][0]=0;
 8002074:	4a55      	ldr	r2, [pc, #340]	; (80021cc <HAL_TIM_OC_DelayElapsedCallback+0x36c>)
 8002076:	f8a2 3042 	strh.w	r3, [r2, #66]	; 0x42
				max_pulse = max(abs(instruct[instruct_step][4]-cur_pulse1),abs(instruct[instruct_step][5]-cur_pulse2));
 800207a:	4b57      	ldr	r3, [pc, #348]	; (80021d8 <HAL_TIM_OC_DelayElapsedCallback+0x378>)
 800207c:	681b      	ldr	r3, [r3, #0]
 800207e:	4a53      	ldr	r2, [pc, #332]	; (80021cc <HAL_TIM_OC_DelayElapsedCallback+0x36c>)
 8002080:	2116      	movs	r1, #22
 8002082:	fb01 2303 	mla	r3, r1, r3, r2
 8002086:	f9b3 6008 	ldrsh.w	r6, [r3, #8]
 800208a:	eba6 060b 	sub.w	r6, r6, fp
 800208e:	2e00      	cmp	r6, #0
 8002090:	bfb8      	it	lt
 8002092:	4276      	neglt	r6, r6
 8002094:	f9b3 500a 	ldrsh.w	r5, [r3, #10]
 8002098:	4a50      	ldr	r2, [pc, #320]	; (80021dc <HAL_TIM_OC_DelayElapsedCallback+0x37c>)
 800209a:	6812      	ldr	r2, [r2, #0]
 800209c:	1aad      	subs	r5, r5, r2
 800209e:	2d00      	cmp	r5, #0
 80020a0:	bfb8      	it	lt
 80020a2:	426d      	neglt	r5, r5
				max_pulse = max(max_pulse,abs(instruct[instruct_step][6]-cur_pulse3));
 80020a4:	f9b3 400c 	ldrsh.w	r4, [r3, #12]
 80020a8:	4a4d      	ldr	r2, [pc, #308]	; (80021e0 <HAL_TIM_OC_DelayElapsedCallback+0x380>)
 80020aa:	6812      	ldr	r2, [r2, #0]
 80020ac:	1aa4      	subs	r4, r4, r2
 80020ae:	2c00      	cmp	r4, #0
 80020b0:	bfb8      	it	lt
 80020b2:	4264      	neglt	r4, r4
				max_pulse = max(max_pulse,abs(instruct[instruct_step][7]-cur_pulse4));
 80020b4:	f9b3 000e 	ldrsh.w	r0, [r3, #14]
 80020b8:	4a4c      	ldr	r2, [pc, #304]	; (80021ec <HAL_TIM_OC_DelayElapsedCallback+0x38c>)
 80020ba:	6812      	ldr	r2, [r2, #0]
 80020bc:	1a80      	subs	r0, r0, r2
 80020be:	2800      	cmp	r0, #0
 80020c0:	bfb8      	it	lt
 80020c2:	4240      	neglt	r0, r0
				max_pulse = max(max_pulse,abs(instruct[instruct_step][8]-cur_pulse5));
 80020c4:	f9b3 1010 	ldrsh.w	r1, [r3, #16]
 80020c8:	4a49      	ldr	r2, [pc, #292]	; (80021f0 <HAL_TIM_OC_DelayElapsedCallback+0x390>)
 80020ca:	6812      	ldr	r2, [r2, #0]
 80020cc:	1a89      	subs	r1, r1, r2
 80020ce:	2900      	cmp	r1, #0
 80020d0:	bfb8      	it	lt
 80020d2:	4249      	neglt	r1, r1
				max_pulse = max(max_pulse,abs(instruct[instruct_step][9]-cur_pulse6));
 80020d4:	f9b3 2012 	ldrsh.w	r2, [r3, #18]
 80020d8:	4b46      	ldr	r3, [pc, #280]	; (80021f4 <HAL_TIM_OC_DelayElapsedCallback+0x394>)
 80020da:	681b      	ldr	r3, [r3, #0]
 80020dc:	1ad2      	subs	r2, r2, r3
 80020de:	2a00      	cmp	r2, #0
 80020e0:	bfb8      	it	lt
 80020e2:	4252      	neglt	r2, r2
	if(a>b)return a;
 80020e4:	4633      	mov	r3, r6
 80020e6:	42ae      	cmp	r6, r5
 80020e8:	bfb8      	it	lt
 80020ea:	462b      	movlt	r3, r5
 80020ec:	42a3      	cmp	r3, r4
 80020ee:	bfb8      	it	lt
 80020f0:	4623      	movlt	r3, r4
 80020f2:	4283      	cmp	r3, r0
 80020f4:	bfb8      	it	lt
 80020f6:	4603      	movlt	r3, r0
 80020f8:	428b      	cmp	r3, r1
 80020fa:	bfb8      	it	lt
 80020fc:	460b      	movlt	r3, r1
 80020fe:	4293      	cmp	r3, r2
 8002100:	bfb8      	it	lt
 8002102:	4613      	movlt	r3, r2
				max_pulse = max(max_pulse,abs(instruct[instruct_step][9]-cur_pulse6));
 8002104:	4f3c      	ldr	r7, [pc, #240]	; (80021f8 <HAL_TIM_OC_DelayElapsedCallback+0x398>)
 8002106:	603b      	str	r3, [r7, #0]
				step1_scale=abs(instruct[instruct_step][4]-cur_pulse1)/(float)max_pulse;
 8002108:	ee07 3a90 	vmov	s15, r3
 800210c:	eef8 7ae7 	vcvt.f32.s32	s15, s15
 8002110:	ee07 6a10 	vmov	s14, r6
 8002114:	eeb8 7ac7 	vcvt.f32.s32	s14, s14
 8002118:	eec7 6a27 	vdiv.f32	s13, s14, s15
 800211c:	4b37      	ldr	r3, [pc, #220]	; (80021fc <HAL_TIM_OC_DelayElapsedCallback+0x39c>)
 800211e:	edc3 6a00 	vstr	s13, [r3]
				step2_scale=abs(instruct[instruct_step][5]-cur_pulse2)/(float)max_pulse;
 8002122:	ee07 5a10 	vmov	s14, r5
 8002126:	eeb8 7ac7 	vcvt.f32.s32	s14, s14
 800212a:	eec7 6a27 	vdiv.f32	s13, s14, s15
 800212e:	4b34      	ldr	r3, [pc, #208]	; (8002200 <HAL_TIM_OC_DelayElapsedCallback+0x3a0>)
 8002130:	edc3 6a00 	vstr	s13, [r3]
				step3_scale=abs(instruct[instruct_step][6]-cur_pulse3)/(float)max_pulse;
 8002134:	ee07 4a10 	vmov	s14, r4
 8002138:	eeb8 7ac7 	vcvt.f32.s32	s14, s14
 800213c:	eec7 6a27 	vdiv.f32	s13, s14, s15
 8002140:	4b30      	ldr	r3, [pc, #192]	; (8002204 <HAL_TIM_OC_DelayElapsedCallback+0x3a4>)
 8002142:	edc3 6a00 	vstr	s13, [r3]
				step4_scale=abs(instruct[instruct_step][7]-cur_pulse4)/(float)max_pulse;
 8002146:	ee07 0a10 	vmov	s14, r0
 800214a:	eeb8 7ac7 	vcvt.f32.s32	s14, s14
 800214e:	eec7 6a27 	vdiv.f32	s13, s14, s15
 8002152:	4b2d      	ldr	r3, [pc, #180]	; (8002208 <HAL_TIM_OC_DelayElapsedCallback+0x3a8>)
 8002154:	edc3 6a00 	vstr	s13, [r3]
				step5_scale=abs(instruct[instruct_step][8]-cur_pulse5)/(float)max_pulse;
 8002158:	ee07 1a10 	vmov	s14, r1
 800215c:	eeb8 7ac7 	vcvt.f32.s32	s14, s14
 8002160:	eec7 6a27 	vdiv.f32	s13, s14, s15
 8002164:	4b29      	ldr	r3, [pc, #164]	; (800220c <HAL_TIM_OC_DelayElapsedCallback+0x3ac>)
 8002166:	edc3 6a00 	vstr	s13, [r3]
				step6_scale=abs(instruct[instruct_step][9]-cur_pulse6)/(float)max_pulse;
 800216a:	ee07 2a10 	vmov	s14, r2
 800216e:	eeb8 7ac7 	vcvt.f32.s32	s14, s14
 8002172:	eec7 6a27 	vdiv.f32	s13, s14, s15
 8002176:	4b26      	ldr	r3, [pc, #152]	; (8002210 <HAL_TIM_OC_DelayElapsedCallback+0x3b0>)
 8002178:	edc3 6a00 	vstr	s13, [r3]
			instruct_speed = (int)instruct[instruct_step][2]*instruct[3][5]/100.0;
 800217c:	4b16      	ldr	r3, [pc, #88]	; (80021d8 <HAL_TIM_OC_DelayElapsedCallback+0x378>)
 800217e:	f8d3 a000 	ldr.w	sl, [r3]
 8002182:	4d12      	ldr	r5, [pc, #72]	; (80021cc <HAL_TIM_OC_DelayElapsedCallback+0x36c>)
 8002184:	2416      	movs	r4, #22
 8002186:	fb04 f40a 	mul.w	r4, r4, sl
 800218a:	192b      	adds	r3, r5, r4
 800218c:	f9b3 3004 	ldrsh.w	r3, [r3, #4]
 8002190:	f9b5 004c 	ldrsh.w	r0, [r5, #76]	; 0x4c
 8002194:	e03e      	b.n	8002214 <HAL_TIM_OC_DelayElapsedCallback+0x3b4>
 8002196:	bf00      	nop
 8002198:	40021000 	.word	0x40021000
 800219c:	40020400 	.word	0x40020400
 80021a0:	40021800 	.word	0x40021800
 80021a4:	20002be1 	.word	0x20002be1
 80021a8:	20003288 	.word	0x20003288
 80021ac:	20002ea4 	.word	0x20002ea4
 80021b0:	20002eb0 	.word	0x20002eb0
 80021b4:	20002ebc 	.word	0x20002ebc
 80021b8:	20002ec8 	.word	0x20002ec8
 80021bc:	20002ed8 	.word	0x20002ed8
 80021c0:	20002ee4 	.word	0x20002ee4
 80021c4:	20002be0 	.word	0x20002be0
 80021c8:	20002bf0 	.word	0x20002bf0
 80021cc:	20000000 	.word	0x20000000
 80021d0:	40590000 	.word	0x40590000
 80021d4:	20002bc8 	.word	0x20002bc8
 80021d8:	20002af8 	.word	0x20002af8
 80021dc:	20002bcc 	.word	0x20002bcc
 80021e0:	20002bd0 	.word	0x20002bd0
 80021e4:	20002e7c 	.word	0x20002e7c
 80021e8:	20002be4 	.word	0x20002be4
 80021ec:	20002bd4 	.word	0x20002bd4
 80021f0:	20002bd8 	.word	0x20002bd8
 80021f4:	20002bdc 	.word	0x20002bdc
 80021f8:	20002e80 	.word	0x20002e80
 80021fc:	20002ea8 	.word	0x20002ea8
 8002200:	20002eb4 	.word	0x20002eb4
 8002204:	20002ec0 	.word	0x20002ec0
 8002208:	20002ed0 	.word	0x20002ed0
 800220c:	20002edc 	.word	0x20002edc
 8002210:	20002ee8 	.word	0x20002ee8
 8002214:	fb00 f003 	mul.w	r0, r0, r3
 8002218:	f7fe f92c 	bl	8000474 <__aeabi_i2d>
 800221c:	2200      	movs	r2, #0
 800221e:	4bcc      	ldr	r3, [pc, #816]	; (8002550 <HAL_TIM_OC_DelayElapsedCallback+0x6f0>)
 8002220:	f7fe fabc 	bl	800079c <__aeabi_ddiv>
 8002224:	f7fe fc40 	bl	8000aa8 <__aeabi_d2iz>
 8002228:	4606      	mov	r6, r0
 800222a:	4bca      	ldr	r3, [pc, #808]	; (8002554 <HAL_TIM_OC_DelayElapsedCallback+0x6f4>)
 800222c:	6018      	str	r0, [r3, #0]
			if(instruct[instruct_step][0]==0)
 800222e:	5f2b      	ldrsh	r3, [r5, r4]
 8002230:	2b00      	cmp	r3, #0
 8002232:	f040 85a1 	bne.w	8002d78 <HAL_TIM_OC_DelayElapsedCallback+0xf18>
				if((key_flag==0&&is_single_run)||(key_flag==0&&is_start))
 8002236:	4bc8      	ldr	r3, [pc, #800]	; (8002558 <HAL_TIM_OC_DelayElapsedCallback+0x6f8>)
 8002238:	781b      	ldrb	r3, [r3, #0]
 800223a:	2b00      	cmp	r3, #0
 800223c:	f040 808f 	bne.w	800235e <HAL_TIM_OC_DelayElapsedCallback+0x4fe>
 8002240:	4bc6      	ldr	r3, [pc, #792]	; (800255c <HAL_TIM_OC_DelayElapsedCallback+0x6fc>)
 8002242:	781a      	ldrb	r2, [r3, #0]
 8002244:	4bc6      	ldr	r3, [pc, #792]	; (8002560 <HAL_TIM_OC_DelayElapsedCallback+0x700>)
 8002246:	781b      	ldrb	r3, [r3, #0]
 8002248:	4313      	orrs	r3, r2
 800224a:	f000 8088 	beq.w	800235e <HAL_TIM_OC_DelayElapsedCallback+0x4fe>
					step_speed = 0;
 800224e:	2300      	movs	r3, #0
 8002250:	4ac4      	ldr	r2, [pc, #784]	; (8002564 <HAL_TIM_OC_DelayElapsedCallback+0x704>)
 8002252:	6013      	str	r3, [r2, #0]
					step=0;
 8002254:	4ac4      	ldr	r2, [pc, #784]	; (8002568 <HAL_TIM_OC_DelayElapsedCallback+0x708>)
 8002256:	6013      	str	r3, [r2, #0]
					max_pulse = max(abs(instruct[instruct_step][4]-cur_pulse1),abs(instruct[instruct_step][5]-cur_pulse2));
 8002258:	2216      	movs	r2, #22
 800225a:	fb02 530a 	mla	r3, r2, sl, r5
 800225e:	f9b3 7008 	ldrsh.w	r7, [r3, #8]
 8002262:	eba7 070b 	sub.w	r7, r7, fp
 8002266:	2f00      	cmp	r7, #0
 8002268:	bfb8      	it	lt
 800226a:	427f      	neglt	r7, r7
 800226c:	f9b3 500a 	ldrsh.w	r5, [r3, #10]
 8002270:	4abe      	ldr	r2, [pc, #760]	; (800256c <HAL_TIM_OC_DelayElapsedCallback+0x70c>)
 8002272:	6812      	ldr	r2, [r2, #0]
 8002274:	1aad      	subs	r5, r5, r2
 8002276:	2d00      	cmp	r5, #0
 8002278:	bfb8      	it	lt
 800227a:	426d      	neglt	r5, r5
					max_pulse = max(max_pulse,abs(instruct[instruct_step][6]-cur_pulse3));
 800227c:	f9b3 400c 	ldrsh.w	r4, [r3, #12]
 8002280:	4abb      	ldr	r2, [pc, #748]	; (8002570 <HAL_TIM_OC_DelayElapsedCallback+0x710>)
 8002282:	6812      	ldr	r2, [r2, #0]
 8002284:	1aa4      	subs	r4, r4, r2
 8002286:	2c00      	cmp	r4, #0
 8002288:	bfb8      	it	lt
 800228a:	4264      	neglt	r4, r4
					max_pulse = max(max_pulse,abs(instruct[instruct_step][7]-cur_pulse4));
 800228c:	f9b3 000e 	ldrsh.w	r0, [r3, #14]
 8002290:	4ab8      	ldr	r2, [pc, #736]	; (8002574 <HAL_TIM_OC_DelayElapsedCallback+0x714>)
 8002292:	6812      	ldr	r2, [r2, #0]
 8002294:	1a80      	subs	r0, r0, r2
 8002296:	2800      	cmp	r0, #0
 8002298:	bfb8      	it	lt
 800229a:	4240      	neglt	r0, r0
					max_pulse = max(max_pulse,abs(instruct[instruct_step][8]-cur_pulse5));
 800229c:	f9b3 1010 	ldrsh.w	r1, [r3, #16]
 80022a0:	4ab5      	ldr	r2, [pc, #724]	; (8002578 <HAL_TIM_OC_DelayElapsedCallback+0x718>)
 80022a2:	6812      	ldr	r2, [r2, #0]
 80022a4:	1a89      	subs	r1, r1, r2
 80022a6:	2900      	cmp	r1, #0
 80022a8:	bfb8      	it	lt
 80022aa:	4249      	neglt	r1, r1
					max_pulse = max(max_pulse,abs(instruct[instruct_step][9]-cur_pulse6));
 80022ac:	f9b3 2012 	ldrsh.w	r2, [r3, #18]
 80022b0:	4bb2      	ldr	r3, [pc, #712]	; (800257c <HAL_TIM_OC_DelayElapsedCallback+0x71c>)
 80022b2:	681b      	ldr	r3, [r3, #0]
 80022b4:	1ad2      	subs	r2, r2, r3
 80022b6:	2a00      	cmp	r2, #0
 80022b8:	bfb8      	it	lt
 80022ba:	4252      	neglt	r2, r2
	if(a>b)return a;
 80022bc:	463b      	mov	r3, r7
 80022be:	42af      	cmp	r7, r5
 80022c0:	bfb8      	it	lt
 80022c2:	462b      	movlt	r3, r5
 80022c4:	42a3      	cmp	r3, r4
 80022c6:	bfb8      	it	lt
 80022c8:	4623      	movlt	r3, r4
 80022ca:	4283      	cmp	r3, r0
 80022cc:	bfb8      	it	lt
 80022ce:	4603      	movlt	r3, r0
 80022d0:	428b      	cmp	r3, r1
 80022d2:	bfb8      	it	lt
 80022d4:	460b      	movlt	r3, r1
 80022d6:	4293      	cmp	r3, r2
 80022d8:	bfb8      	it	lt
 80022da:	4613      	movlt	r3, r2
					max_pulse = max(max_pulse,abs(instruct[instruct_step][9]-cur_pulse6));
 80022dc:	f8df c2c0 	ldr.w	ip, [pc, #704]	; 80025a0 <HAL_TIM_OC_DelayElapsedCallback+0x740>
 80022e0:	f8cc 3000 	str.w	r3, [ip]
					step1_scale=abs(instruct[instruct_step][4]-cur_pulse1)/(float)max_pulse;
 80022e4:	ee07 3a90 	vmov	s15, r3
 80022e8:	eef8 7ae7 	vcvt.f32.s32	s15, s15
 80022ec:	ee07 7a10 	vmov	s14, r7
 80022f0:	eeb8 7ac7 	vcvt.f32.s32	s14, s14
 80022f4:	eec7 6a27 	vdiv.f32	s13, s14, s15
 80022f8:	4ba1      	ldr	r3, [pc, #644]	; (8002580 <HAL_TIM_OC_DelayElapsedCallback+0x720>)
 80022fa:	edc3 6a00 	vstr	s13, [r3]
					step2_scale=abs(instruct[instruct_step][5]-cur_pulse2)/(float)max_pulse;
 80022fe:	ee07 5a10 	vmov	s14, r5
 8002302:	eeb8 7ac7 	vcvt.f32.s32	s14, s14
 8002306:	eec7 6a27 	vdiv.f32	s13, s14, s15
 800230a:	4b9e      	ldr	r3, [pc, #632]	; (8002584 <HAL_TIM_OC_DelayElapsedCallback+0x724>)
 800230c:	edc3 6a00 	vstr	s13, [r3]
					step3_scale=abs(instruct[instruct_step][6]-cur_pulse3)/(float)max_pulse;
 8002310:	ee07 4a10 	vmov	s14, r4
 8002314:	eeb8 7ac7 	vcvt.f32.s32	s14, s14
 8002318:	eec7 6a27 	vdiv.f32	s13, s14, s15
 800231c:	4b9a      	ldr	r3, [pc, #616]	; (8002588 <HAL_TIM_OC_DelayElapsedCallback+0x728>)
 800231e:	edc3 6a00 	vstr	s13, [r3]
					step4_scale=abs(instruct[instruct_step][7]-cur_pulse4)/(float)max_pulse;
 8002322:	ee07 0a10 	vmov	s14, r0
 8002326:	eeb8 7ac7 	vcvt.f32.s32	s14, s14
 800232a:	eec7 6a27 	vdiv.f32	s13, s14, s15
 800232e:	4b97      	ldr	r3, [pc, #604]	; (800258c <HAL_TIM_OC_DelayElapsedCallback+0x72c>)
 8002330:	edc3 6a00 	vstr	s13, [r3]
					step5_scale=abs(instruct[instruct_step][8]-cur_pulse5)/(float)max_pulse;
 8002334:	ee07 1a10 	vmov	s14, r1
 8002338:	eeb8 7ac7 	vcvt.f32.s32	s14, s14
 800233c:	eec7 6a27 	vdiv.f32	s13, s14, s15
 8002340:	4b93      	ldr	r3, [pc, #588]	; (8002590 <HAL_TIM_OC_DelayElapsedCallback+0x730>)
 8002342:	edc3 6a00 	vstr	s13, [r3]
					step6_scale=abs(instruct[instruct_step][9]-cur_pulse6)/(float)max_pulse;
 8002346:	ee07 2a10 	vmov	s14, r2
 800234a:	eeb8 7ac7 	vcvt.f32.s32	s14, s14
 800234e:	eec7 6a27 	vdiv.f32	s13, s14, s15
 8002352:	4b90      	ldr	r3, [pc, #576]	; (8002594 <HAL_TIM_OC_DelayElapsedCallback+0x734>)
 8002354:	edc3 6a00 	vstr	s13, [r3]
					key_flag=1;
 8002358:	4b7f      	ldr	r3, [pc, #508]	; (8002558 <HAL_TIM_OC_DelayElapsedCallback+0x6f8>)
 800235a:	2201      	movs	r2, #1
 800235c:	701a      	strb	r2, [r3, #0]
				instruct[0][2] = (int)step_speed;
 800235e:	4b81      	ldr	r3, [pc, #516]	; (8002564 <HAL_TIM_OC_DelayElapsedCallback+0x704>)
 8002360:	ed93 8a00 	vldr	s16, [r3]
 8002364:	eefd 7ac8 	vcvt.s32.f32	s15, s16
 8002368:	ee17 8a90 	vmov	r8, s15
 800236c:	4f8a      	ldr	r7, [pc, #552]	; (8002598 <HAL_TIM_OC_DelayElapsedCallback+0x738>)
 800236e:	f8a7 8004 	strh.w	r8, [r7, #4]
				instruct[0][3] = (int)((step_acc)*((instruct_speed)*1.1-step_speed)/instruct_speed);
 8002372:	4630      	mov	r0, r6
 8002374:	f7fe f87e 	bl	8000474 <__aeabi_i2d>
 8002378:	4604      	mov	r4, r0
 800237a:	460d      	mov	r5, r1
 800237c:	a370      	add	r3, pc, #448	; (adr r3, 8002540 <HAL_TIM_OC_DelayElapsedCallback+0x6e0>)
 800237e:	e9d3 2300 	ldrd	r2, r3, [r3]
 8002382:	f7fe f8e1 	bl	8000548 <__aeabi_dmul>
 8002386:	e9cd 0100 	strd	r0, r1, [sp]
 800238a:	ee18 0a10 	vmov	r0, s16
 800238e:	f7fe f883 	bl	8000498 <__aeabi_f2d>
 8002392:	4602      	mov	r2, r0
 8002394:	460b      	mov	r3, r1
 8002396:	e9cd 2304 	strd	r2, r3, [sp, #16]
 800239a:	e9dd 0100 	ldrd	r0, r1, [sp]
 800239e:	f7fd ff1b 	bl	80001d8 <__aeabi_dsub>
 80023a2:	e9cd 0102 	strd	r0, r1, [sp, #8]
 80023a6:	4b7d      	ldr	r3, [pc, #500]	; (800259c <HAL_TIM_OC_DelayElapsedCallback+0x73c>)
 80023a8:	6818      	ldr	r0, [r3, #0]
 80023aa:	f7fe f875 	bl	8000498 <__aeabi_f2d>
 80023ae:	e9dd 2302 	ldrd	r2, r3, [sp, #8]
 80023b2:	f7fe f8c9 	bl	8000548 <__aeabi_dmul>
 80023b6:	4622      	mov	r2, r4
 80023b8:	462b      	mov	r3, r5
 80023ba:	f7fe f9ef 	bl	800079c <__aeabi_ddiv>
 80023be:	f7fe fb73 	bl	8000aa8 <__aeabi_d2iz>
 80023c2:	80f8      	strh	r0, [r7, #6]
				if((int)step_speed<(instruct_speed)&&((float)step<((float)max_pulse/2.0)))
 80023c4:	4546      	cmp	r6, r8
 80023c6:	dd49      	ble.n	800245c <HAL_TIM_OC_DelayElapsedCallback+0x5fc>
 80023c8:	4b67      	ldr	r3, [pc, #412]	; (8002568 <HAL_TIM_OC_DelayElapsedCallback+0x708>)
 80023ca:	681f      	ldr	r7, [r3, #0]
 80023cc:	4638      	mov	r0, r7
 80023ce:	f7fe f863 	bl	8000498 <__aeabi_f2d>
 80023d2:	e9cd 0106 	strd	r0, r1, [sp, #24]
 80023d6:	4b72      	ldr	r3, [pc, #456]	; (80025a0 <HAL_TIM_OC_DelayElapsedCallback+0x740>)
 80023d8:	6818      	ldr	r0, [r3, #0]
 80023da:	ee07 0a90 	vmov	s15, r0
 80023de:	eef8 7ae7 	vcvt.f32.s32	s15, s15
 80023e2:	ee17 0a90 	vmov	r0, s15
 80023e6:	f7fe f857 	bl	8000498 <__aeabi_f2d>
 80023ea:	2200      	movs	r2, #0
 80023ec:	4b6d      	ldr	r3, [pc, #436]	; (80025a4 <HAL_TIM_OC_DelayElapsedCallback+0x744>)
 80023ee:	f7fe f8ab 	bl	8000548 <__aeabi_dmul>
 80023f2:	4602      	mov	r2, r0
 80023f4:	460b      	mov	r3, r1
 80023f6:	e9dd 0106 	ldrd	r0, r1, [sp, #24]
 80023fa:	f7fe fb17 	bl	8000a2c <__aeabi_dcmplt>
 80023fe:	2800      	cmp	r0, #0
 8002400:	f000 838f 	beq.w	8002b22 <HAL_TIM_OC_DelayElapsedCallback+0xcc2>
					step_acc = instruct[instruct_step][3];
 8002404:	4a64      	ldr	r2, [pc, #400]	; (8002598 <HAL_TIM_OC_DelayElapsedCallback+0x738>)
 8002406:	2316      	movs	r3, #22
 8002408:	fb03 230a 	mla	r3, r3, sl, r2
 800240c:	f9b3 3006 	ldrsh.w	r3, [r3, #6]
 8002410:	ee07 3a90 	vmov	s15, r3
 8002414:	eef8 7ae7 	vcvt.f32.s32	s15, s15
 8002418:	4b60      	ldr	r3, [pc, #384]	; (800259c <HAL_TIM_OC_DelayElapsedCallback+0x73c>)
 800241a:	edc3 7a00 	vstr	s15, [r3]
					step_speed=step_speed+(step_acc/1000.0)*((instruct_speed)*1.1-step_speed)/instruct_speed;
 800241e:	ee17 0a90 	vmov	r0, s15
 8002422:	f7fe f839 	bl	8000498 <__aeabi_f2d>
 8002426:	2200      	movs	r2, #0
 8002428:	4b5f      	ldr	r3, [pc, #380]	; (80025a8 <HAL_TIM_OC_DelayElapsedCallback+0x748>)
 800242a:	f7fe f9b7 	bl	800079c <__aeabi_ddiv>
 800242e:	e9dd 2302 	ldrd	r2, r3, [sp, #8]
 8002432:	f7fe f889 	bl	8000548 <__aeabi_dmul>
 8002436:	4622      	mov	r2, r4
 8002438:	462b      	mov	r3, r5
 800243a:	f7fe f9af 	bl	800079c <__aeabi_ddiv>
 800243e:	e9dd 2304 	ldrd	r2, r3, [sp, #16]
 8002442:	f7fd fecb 	bl	80001dc <__adddf3>
 8002446:	f7fe fb57 	bl	8000af8 <__aeabi_d2f>
 800244a:	4b46      	ldr	r3, [pc, #280]	; (8002564 <HAL_TIM_OC_DelayElapsedCallback+0x704>)
 800244c:	6018      	str	r0, [r3, #0]
					acc_pulse = (int)step;
 800244e:	ee07 7a90 	vmov	s15, r7
 8002452:	eefd 7ae7 	vcvt.s32.f32	s15, s15
 8002456:	4b55      	ldr	r3, [pc, #340]	; (80025ac <HAL_TIM_OC_DelayElapsedCallback+0x74c>)
 8002458:	edc3 7a00 	vstr	s15, [r3]
				if((int)step_speed>(instruct_speed)||(((int)step)>(max_pulse-acc_pulse)&&(int)step_speed>2))
 800245c:	4b41      	ldr	r3, [pc, #260]	; (8002564 <HAL_TIM_OC_DelayElapsedCallback+0x704>)
 800245e:	ed93 8a00 	vldr	s16, [r3]
 8002462:	eefd 7ac8 	vcvt.s32.f32	s15, s16
 8002466:	ee17 8a90 	vmov	r8, s15
 800246a:	4546      	cmp	r6, r8
 800246c:	f280 8359 	bge.w	8002b22 <HAL_TIM_OC_DelayElapsedCallback+0xcc2>
					step_acc = instruct[instruct_step][3];
 8002470:	4a49      	ldr	r2, [pc, #292]	; (8002598 <HAL_TIM_OC_DelayElapsedCallback+0x738>)
 8002472:	2316      	movs	r3, #22
 8002474:	fb03 230a 	mla	r3, r3, sl, r2
 8002478:	f9b3 3006 	ldrsh.w	r3, [r3, #6]
 800247c:	ee08 3a90 	vmov	s17, r3
 8002480:	eef8 8ae8 	vcvt.f32.s32	s17, s17
 8002484:	4b45      	ldr	r3, [pc, #276]	; (800259c <HAL_TIM_OC_DelayElapsedCallback+0x73c>)
 8002486:	edc3 8a00 	vstr	s17, [r3]
					step_speed=step_speed-(step_acc/1000.0)*((instruct_speed)*1.1-step_speed)/instruct_speed;
 800248a:	ee18 0a10 	vmov	r0, s16
 800248e:	f7fe f803 	bl	8000498 <__aeabi_f2d>
 8002492:	4606      	mov	r6, r0
 8002494:	460f      	mov	r7, r1
 8002496:	ee18 0a90 	vmov	r0, s17
 800249a:	f7fd fffd 	bl	8000498 <__aeabi_f2d>
 800249e:	2200      	movs	r2, #0
 80024a0:	4b41      	ldr	r3, [pc, #260]	; (80025a8 <HAL_TIM_OC_DelayElapsedCallback+0x748>)
 80024a2:	f7fe f97b 	bl	800079c <__aeabi_ddiv>
 80024a6:	4680      	mov	r8, r0
 80024a8:	4689      	mov	r9, r1
 80024aa:	4632      	mov	r2, r6
 80024ac:	463b      	mov	r3, r7
 80024ae:	e9dd 0100 	ldrd	r0, r1, [sp]
 80024b2:	f7fd fe91 	bl	80001d8 <__aeabi_dsub>
 80024b6:	4602      	mov	r2, r0
 80024b8:	460b      	mov	r3, r1
 80024ba:	4640      	mov	r0, r8
 80024bc:	4649      	mov	r1, r9
 80024be:	f7fe f843 	bl	8000548 <__aeabi_dmul>
 80024c2:	4622      	mov	r2, r4
 80024c4:	462b      	mov	r3, r5
 80024c6:	f7fe f969 	bl	800079c <__aeabi_ddiv>
 80024ca:	4602      	mov	r2, r0
 80024cc:	460b      	mov	r3, r1
 80024ce:	4630      	mov	r0, r6
 80024d0:	4639      	mov	r1, r7
 80024d2:	f7fd fe81 	bl	80001d8 <__aeabi_dsub>
 80024d6:	f7fe fb0f 	bl	8000af8 <__aeabi_d2f>
 80024da:	4b22      	ldr	r3, [pc, #136]	; (8002564 <HAL_TIM_OC_DelayElapsedCallback+0x704>)
 80024dc:	6018      	str	r0, [r3, #0]
				step=step+step_speed/255.0;
 80024de:	4b21      	ldr	r3, [pc, #132]	; (8002564 <HAL_TIM_OC_DelayElapsedCallback+0x704>)
 80024e0:	6818      	ldr	r0, [r3, #0]
 80024e2:	f7fd ffd9 	bl	8000498 <__aeabi_f2d>
 80024e6:	a318      	add	r3, pc, #96	; (adr r3, 8002548 <HAL_TIM_OC_DelayElapsedCallback+0x6e8>)
 80024e8:	e9d3 2300 	ldrd	r2, r3, [r3]
 80024ec:	f7fe f956 	bl	800079c <__aeabi_ddiv>
 80024f0:	4604      	mov	r4, r0
 80024f2:	460d      	mov	r5, r1
 80024f4:	4e1c      	ldr	r6, [pc, #112]	; (8002568 <HAL_TIM_OC_DelayElapsedCallback+0x708>)
 80024f6:	6830      	ldr	r0, [r6, #0]
 80024f8:	f7fd ffce 	bl	8000498 <__aeabi_f2d>
 80024fc:	4602      	mov	r2, r0
 80024fe:	460b      	mov	r3, r1
 8002500:	4620      	mov	r0, r4
 8002502:	4629      	mov	r1, r5
 8002504:	f7fd fe6a 	bl	80001dc <__adddf3>
 8002508:	f7fe faf6 	bl	8000af8 <__aeabi_d2f>
 800250c:	ee07 0a90 	vmov	s15, r0
 8002510:	6030      	str	r0, [r6, #0]
				if((step1_err!=(int)(step*step1_scale))&&(abs(foc_cut[0])<800)){
 8002512:	4b1b      	ldr	r3, [pc, #108]	; (8002580 <HAL_TIM_OC_DelayElapsedCallback+0x720>)
 8002514:	ed93 7a00 	vldr	s14, [r3]
 8002518:	ee67 7a87 	vmul.f32	s15, s15, s14
 800251c:	eefd 7ae7 	vcvt.s32.f32	s15, s15
 8002520:	ee17 3a90 	vmov	r3, s15
 8002524:	4a22      	ldr	r2, [pc, #136]	; (80025b0 <HAL_TIM_OC_DelayElapsedCallback+0x750>)
 8002526:	6812      	ldr	r2, [r2, #0]
 8002528:	4293      	cmp	r3, r2
 800252a:	d054      	beq.n	80025d6 <HAL_TIM_OC_DelayElapsedCallback+0x776>
 800252c:	4a21      	ldr	r2, [pc, #132]	; (80025b4 <HAL_TIM_OC_DelayElapsedCallback+0x754>)
 800252e:	6812      	ldr	r2, [r2, #0]
 8002530:	f202 321f 	addw	r2, r2, #799	; 0x31f
 8002534:	f240 613e 	movw	r1, #1598	; 0x63e
 8002538:	428a      	cmp	r2, r1
 800253a:	d84c      	bhi.n	80025d6 <HAL_TIM_OC_DelayElapsedCallback+0x776>
 800253c:	e03c      	b.n	80025b8 <HAL_TIM_OC_DelayElapsedCallback+0x758>
 800253e:	bf00      	nop
 8002540:	9999999a 	.word	0x9999999a
 8002544:	3ff19999 	.word	0x3ff19999
 8002548:	00000000 	.word	0x00000000
 800254c:	406fe000 	.word	0x406fe000
 8002550:	40590000 	.word	0x40590000
 8002554:	20002e78 	.word	0x20002e78
 8002558:	20002e7c 	.word	0x20002e7c
 800255c:	20002be0 	.word	0x20002be0
 8002560:	20002be1 	.word	0x20002be1
 8002564:	20002bec 	.word	0x20002bec
 8002568:	20002be4 	.word	0x20002be4
 800256c:	20002bcc 	.word	0x20002bcc
 8002570:	20002bd0 	.word	0x20002bd0
 8002574:	20002bd4 	.word	0x20002bd4
 8002578:	20002bd8 	.word	0x20002bd8
 800257c:	20002bdc 	.word	0x20002bdc
 8002580:	20002ea8 	.word	0x20002ea8
 8002584:	20002eb4 	.word	0x20002eb4
 8002588:	20002ec0 	.word	0x20002ec0
 800258c:	20002ed0 	.word	0x20002ed0
 8002590:	20002edc 	.word	0x20002edc
 8002594:	20002ee8 	.word	0x20002ee8
 8002598:	20000000 	.word	0x20000000
 800259c:	20002be8 	.word	0x20002be8
 80025a0:	20002e80 	.word	0x20002e80
 80025a4:	3fe00000 	.word	0x3fe00000
 80025a8:	408f4000 	.word	0x408f4000
 80025ac:	20002e50 	.word	0x20002e50
 80025b0:	20002ea0 	.word	0x20002ea0
 80025b4:	20003288 	.word	0x20003288
					step1_err=(int)(step*step1_scale);
 80025b8:	4ab9      	ldr	r2, [pc, #740]	; (80028a0 <HAL_TIM_OC_DelayElapsedCallback+0xa40>)
 80025ba:	edc2 7a00 	vstr	s15, [r2]
					if(cur_pulse1<instruct[instruct_step][4]){
 80025be:	4bb9      	ldr	r3, [pc, #740]	; (80028a4 <HAL_TIM_OC_DelayElapsedCallback+0xa44>)
 80025c0:	2216      	movs	r2, #22
 80025c2:	fb02 3a0a 	mla	sl, r2, sl, r3
 80025c6:	f9ba 3008 	ldrsh.w	r3, [sl, #8]
 80025ca:	459b      	cmp	fp, r3
 80025cc:	f2c0 82bd 	blt.w	8002b4a <HAL_TIM_OC_DelayElapsedCallback+0xcea>
					else if (cur_pulse1>instruct[instruct_step][4]){
 80025d0:	459b      	cmp	fp, r3
 80025d2:	f300 82cb 	bgt.w	8002b6c <HAL_TIM_OC_DelayElapsedCallback+0xd0c>
				if((step2_err!=(int)(step*step2_scale))&&(abs(foc_cut[1])<800)){
 80025d6:	4bb4      	ldr	r3, [pc, #720]	; (80028a8 <HAL_TIM_OC_DelayElapsedCallback+0xa48>)
 80025d8:	edd3 7a00 	vldr	s15, [r3]
 80025dc:	4bb3      	ldr	r3, [pc, #716]	; (80028ac <HAL_TIM_OC_DelayElapsedCallback+0xa4c>)
 80025de:	ed93 7a00 	vldr	s14, [r3]
 80025e2:	ee67 7a87 	vmul.f32	s15, s15, s14
 80025e6:	eefd 7ae7 	vcvt.s32.f32	s15, s15
 80025ea:	ee17 3a90 	vmov	r3, s15
 80025ee:	4ab0      	ldr	r2, [pc, #704]	; (80028b0 <HAL_TIM_OC_DelayElapsedCallback+0xa50>)
 80025f0:	6812      	ldr	r2, [r2, #0]
 80025f2:	4293      	cmp	r3, r2
 80025f4:	d01a      	beq.n	800262c <HAL_TIM_OC_DelayElapsedCallback+0x7cc>
 80025f6:	4aaf      	ldr	r2, [pc, #700]	; (80028b4 <HAL_TIM_OC_DelayElapsedCallback+0xa54>)
 80025f8:	6852      	ldr	r2, [r2, #4]
 80025fa:	f202 321f 	addw	r2, r2, #799	; 0x31f
 80025fe:	f240 613e 	movw	r1, #1598	; 0x63e
 8002602:	428a      	cmp	r2, r1
 8002604:	d812      	bhi.n	800262c <HAL_TIM_OC_DelayElapsedCallback+0x7cc>
					step2_err=(int)(step*step2_scale);
 8002606:	4aaa      	ldr	r2, [pc, #680]	; (80028b0 <HAL_TIM_OC_DelayElapsedCallback+0xa50>)
 8002608:	edc2 7a00 	vstr	s15, [r2]
					if(cur_pulse2<instruct[instruct_step][5]){
 800260c:	4baa      	ldr	r3, [pc, #680]	; (80028b8 <HAL_TIM_OC_DelayElapsedCallback+0xa58>)
 800260e:	681b      	ldr	r3, [r3, #0]
 8002610:	4aa4      	ldr	r2, [pc, #656]	; (80028a4 <HAL_TIM_OC_DelayElapsedCallback+0xa44>)
 8002612:	2116      	movs	r1, #22
 8002614:	fb01 2303 	mla	r3, r1, r3, r2
 8002618:	f9b3 200a 	ldrsh.w	r2, [r3, #10]
 800261c:	4ba7      	ldr	r3, [pc, #668]	; (80028bc <HAL_TIM_OC_DelayElapsedCallback+0xa5c>)
 800261e:	681b      	ldr	r3, [r3, #0]
 8002620:	429a      	cmp	r2, r3
 8002622:	f300 82b4 	bgt.w	8002b8e <HAL_TIM_OC_DelayElapsedCallback+0xd2e>
					else if (cur_pulse2>instruct[instruct_step][5]){
 8002626:	429a      	cmp	r2, r3
 8002628:	f2c0 82c3 	blt.w	8002bb2 <HAL_TIM_OC_DelayElapsedCallback+0xd52>
				if((step3_err!=(int)(step*step3_scale))&&(abs(foc_cut[2])<800)){
 800262c:	4b9e      	ldr	r3, [pc, #632]	; (80028a8 <HAL_TIM_OC_DelayElapsedCallback+0xa48>)
 800262e:	edd3 7a00 	vldr	s15, [r3]
 8002632:	4ba3      	ldr	r3, [pc, #652]	; (80028c0 <HAL_TIM_OC_DelayElapsedCallback+0xa60>)
 8002634:	ed93 7a00 	vldr	s14, [r3]
 8002638:	ee67 7a87 	vmul.f32	s15, s15, s14
 800263c:	eefd 7ae7 	vcvt.s32.f32	s15, s15
 8002640:	ee17 3a90 	vmov	r3, s15
 8002644:	4a9f      	ldr	r2, [pc, #636]	; (80028c4 <HAL_TIM_OC_DelayElapsedCallback+0xa64>)
 8002646:	6812      	ldr	r2, [r2, #0]
 8002648:	4293      	cmp	r3, r2
 800264a:	d01a      	beq.n	8002682 <HAL_TIM_OC_DelayElapsedCallback+0x822>
 800264c:	4a99      	ldr	r2, [pc, #612]	; (80028b4 <HAL_TIM_OC_DelayElapsedCallback+0xa54>)
 800264e:	6892      	ldr	r2, [r2, #8]
 8002650:	f202 321f 	addw	r2, r2, #799	; 0x31f
 8002654:	f240 613e 	movw	r1, #1598	; 0x63e
 8002658:	428a      	cmp	r2, r1
 800265a:	d812      	bhi.n	8002682 <HAL_TIM_OC_DelayElapsedCallback+0x822>
					step3_err=(int)(step*step3_scale);
 800265c:	4a99      	ldr	r2, [pc, #612]	; (80028c4 <HAL_TIM_OC_DelayElapsedCallback+0xa64>)
 800265e:	edc2 7a00 	vstr	s15, [r2]
					if(cur_pulse3<instruct[instruct_step][6]){
 8002662:	4b95      	ldr	r3, [pc, #596]	; (80028b8 <HAL_TIM_OC_DelayElapsedCallback+0xa58>)
 8002664:	681b      	ldr	r3, [r3, #0]
 8002666:	4a8f      	ldr	r2, [pc, #572]	; (80028a4 <HAL_TIM_OC_DelayElapsedCallback+0xa44>)
 8002668:	2116      	movs	r1, #22
 800266a:	fb01 2303 	mla	r3, r1, r3, r2
 800266e:	f9b3 200c 	ldrsh.w	r2, [r3, #12]
 8002672:	4b95      	ldr	r3, [pc, #596]	; (80028c8 <HAL_TIM_OC_DelayElapsedCallback+0xa68>)
 8002674:	681b      	ldr	r3, [r3, #0]
 8002676:	429a      	cmp	r2, r3
 8002678:	f300 82ad 	bgt.w	8002bd6 <HAL_TIM_OC_DelayElapsedCallback+0xd76>
					else if (cur_pulse3>instruct[instruct_step][6]){
 800267c:	429a      	cmp	r2, r3
 800267e:	f2c0 82ed 	blt.w	8002c5c <HAL_TIM_OC_DelayElapsedCallback+0xdfc>
				if((step4_err!=(int)(step*step4_scale))&&(abs(foc_cut[3])<800)){
 8002682:	4b89      	ldr	r3, [pc, #548]	; (80028a8 <HAL_TIM_OC_DelayElapsedCallback+0xa48>)
 8002684:	edd3 7a00 	vldr	s15, [r3]
 8002688:	4b90      	ldr	r3, [pc, #576]	; (80028cc <HAL_TIM_OC_DelayElapsedCallback+0xa6c>)
 800268a:	ed93 7a00 	vldr	s14, [r3]
 800268e:	ee27 7a87 	vmul.f32	s14, s15, s14
 8002692:	eebd 7ac7 	vcvt.s32.f32	s14, s14
 8002696:	ee17 3a10 	vmov	r3, s14
 800269a:	4a8d      	ldr	r2, [pc, #564]	; (80028d0 <HAL_TIM_OC_DelayElapsedCallback+0xa70>)
 800269c:	6812      	ldr	r2, [r2, #0]
 800269e:	4293      	cmp	r3, r2
 80026a0:	f000 8330 	beq.w	8002d04 <HAL_TIM_OC_DelayElapsedCallback+0xea4>
 80026a4:	4a83      	ldr	r2, [pc, #524]	; (80028b4 <HAL_TIM_OC_DelayElapsedCallback+0xa54>)
 80026a6:	68d2      	ldr	r2, [r2, #12]
 80026a8:	f202 321f 	addw	r2, r2, #799	; 0x31f
 80026ac:	f240 613e 	movw	r1, #1598	; 0x63e
 80026b0:	428a      	cmp	r2, r1
 80026b2:	f200 8327 	bhi.w	8002d04 <HAL_TIM_OC_DelayElapsedCallback+0xea4>
					step4_err=(int)(step*step4_scale);
 80026b6:	4a86      	ldr	r2, [pc, #536]	; (80028d0 <HAL_TIM_OC_DelayElapsedCallback+0xa70>)
 80026b8:	ed82 7a00 	vstr	s14, [r2]
					if(cur_pulse4<instruct[instruct_step][7]){
 80026bc:	4b7e      	ldr	r3, [pc, #504]	; (80028b8 <HAL_TIM_OC_DelayElapsedCallback+0xa58>)
 80026be:	681b      	ldr	r3, [r3, #0]
 80026c0:	4a78      	ldr	r2, [pc, #480]	; (80028a4 <HAL_TIM_OC_DelayElapsedCallback+0xa44>)
 80026c2:	2116      	movs	r1, #22
 80026c4:	fb01 2303 	mla	r3, r1, r3, r2
 80026c8:	f9b3 200e 	ldrsh.w	r2, [r3, #14]
 80026cc:	4b81      	ldr	r3, [pc, #516]	; (80028d4 <HAL_TIM_OC_DelayElapsedCallback+0xa74>)
 80026ce:	681b      	ldr	r3, [r3, #0]
 80026d0:	429a      	cmp	r2, r3
 80026d2:	f300 82d5 	bgt.w	8002c80 <HAL_TIM_OC_DelayElapsedCallback+0xe20>
					else if (cur_pulse4>instruct[instruct_step][7]){
 80026d6:	429a      	cmp	r2, r3
 80026d8:	f2c0 82f3 	blt.w	8002cc2 <HAL_TIM_OC_DelayElapsedCallback+0xe62>
				if((step5_err!=(int)(step*step5_scale))&&(step4_is_run==0)&&(abs(foc_cut[4])<800)){
 80026dc:	4b72      	ldr	r3, [pc, #456]	; (80028a8 <HAL_TIM_OC_DelayElapsedCallback+0xa48>)
 80026de:	edd3 7a00 	vldr	s15, [r3]
 80026e2:	4b7d      	ldr	r3, [pc, #500]	; (80028d8 <HAL_TIM_OC_DelayElapsedCallback+0xa78>)
 80026e4:	ed93 7a00 	vldr	s14, [r3]
 80026e8:	ee67 7a87 	vmul.f32	s15, s15, s14
 80026ec:	eefd 7ae7 	vcvt.s32.f32	s15, s15
 80026f0:	ee17 3a90 	vmov	r3, s15
 80026f4:	4a79      	ldr	r2, [pc, #484]	; (80028dc <HAL_TIM_OC_DelayElapsedCallback+0xa7c>)
 80026f6:	6812      	ldr	r2, [r2, #0]
 80026f8:	4293      	cmp	r3, r2
 80026fa:	f000 8314 	beq.w	8002d26 <HAL_TIM_OC_DelayElapsedCallback+0xec6>
 80026fe:	4a78      	ldr	r2, [pc, #480]	; (80028e0 <HAL_TIM_OC_DelayElapsedCallback+0xa80>)
 8002700:	7812      	ldrb	r2, [r2, #0]
 8002702:	2a00      	cmp	r2, #0
 8002704:	f040 830f 	bne.w	8002d26 <HAL_TIM_OC_DelayElapsedCallback+0xec6>
 8002708:	4a6a      	ldr	r2, [pc, #424]	; (80028b4 <HAL_TIM_OC_DelayElapsedCallback+0xa54>)
 800270a:	6912      	ldr	r2, [r2, #16]
 800270c:	f202 321f 	addw	r2, r2, #799	; 0x31f
 8002710:	f240 613e 	movw	r1, #1598	; 0x63e
 8002714:	428a      	cmp	r2, r1
 8002716:	f200 8306 	bhi.w	8002d26 <HAL_TIM_OC_DelayElapsedCallback+0xec6>
					step5_err=(int)(step*step5_scale);
 800271a:	4a70      	ldr	r2, [pc, #448]	; (80028dc <HAL_TIM_OC_DelayElapsedCallback+0xa7c>)
 800271c:	6013      	str	r3, [r2, #0]
					if(cur_pulse5<instruct[instruct_step][8]){
 800271e:	4b66      	ldr	r3, [pc, #408]	; (80028b8 <HAL_TIM_OC_DelayElapsedCallback+0xa58>)
 8002720:	681b      	ldr	r3, [r3, #0]
 8002722:	4a60      	ldr	r2, [pc, #384]	; (80028a4 <HAL_TIM_OC_DelayElapsedCallback+0xa44>)
 8002724:	2116      	movs	r1, #22
 8002726:	fb01 2303 	mla	r3, r1, r3, r2
 800272a:	f9b3 2010 	ldrsh.w	r2, [r3, #16]
 800272e:	4b6d      	ldr	r3, [pc, #436]	; (80028e4 <HAL_TIM_OC_DelayElapsedCallback+0xa84>)
 8002730:	681b      	ldr	r3, [r3, #0]
 8002732:	429a      	cmp	r2, r3
 8002734:	f300 832e 	bgt.w	8002d94 <HAL_TIM_OC_DelayElapsedCallback+0xf34>
					else if (cur_pulse5>instruct[instruct_step][8]){
 8002738:	429a      	cmp	r2, r3
 800273a:	f280 82f4 	bge.w	8002d26 <HAL_TIM_OC_DelayElapsedCallback+0xec6>
						HAL_GPIO_WritePin(STEP5_DIR_GPIO_Port,STEP5_DIR_Pin,GPIO_PIN_SET);
 800273e:	2201      	movs	r2, #1
 8002740:	f44f 4100 	mov.w	r1, #32768	; 0x8000
 8002744:	4868      	ldr	r0, [pc, #416]	; (80028e8 <HAL_TIM_OC_DelayElapsedCallback+0xa88>)
 8002746:	f003 fcc3 	bl	80060d0 <HAL_GPIO_WritePin>
						HAL_GPIO_WritePin(STEP5_PUL_GPIO_Port,STEP5_PUL_Pin,GPIO_PIN_RESET);
 800274a:	2200      	movs	r2, #0
 800274c:	f44f 6180 	mov.w	r1, #1024	; 0x400
 8002750:	4866      	ldr	r0, [pc, #408]	; (80028ec <HAL_TIM_OC_DelayElapsedCallback+0xa8c>)
 8002752:	f003 fcbd 	bl	80060d0 <HAL_GPIO_WritePin>
						cur_pulse5--;
 8002756:	4a63      	ldr	r2, [pc, #396]	; (80028e4 <HAL_TIM_OC_DelayElapsedCallback+0xa84>)
 8002758:	6813      	ldr	r3, [r2, #0]
 800275a:	3b01      	subs	r3, #1
 800275c:	6013      	str	r3, [r2, #0]
 800275e:	e2e2      	b.n	8002d26 <HAL_TIM_OC_DelayElapsedCallback+0xec6>
					step1_foc=0;
 8002760:	2400      	movs	r4, #0
 8002762:	4b63      	ldr	r3, [pc, #396]	; (80028f0 <HAL_TIM_OC_DelayElapsedCallback+0xa90>)
 8002764:	601c      	str	r4, [r3, #0]
					HAL_GPIO_WritePin(STEP1_DIR_GPIO_Port,STEP1_DIR_Pin,GPIO_PIN_RESET);
 8002766:	4d60      	ldr	r5, [pc, #384]	; (80028e8 <HAL_TIM_OC_DelayElapsedCallback+0xa88>)
 8002768:	4622      	mov	r2, r4
 800276a:	2180      	movs	r1, #128	; 0x80
 800276c:	4628      	mov	r0, r5
 800276e:	f003 fcaf 	bl	80060d0 <HAL_GPIO_WritePin>
					HAL_GPIO_WritePin(STEP1_PUL_GPIO_Port,STEP1_PUL_Pin,GPIO_PIN_RESET);
 8002772:	4622      	mov	r2, r4
 8002774:	f44f 7180 	mov.w	r1, #256	; 0x100
 8002778:	4628      	mov	r0, r5
 800277a:	f003 fca9 	bl	80060d0 <HAL_GPIO_WritePin>
					cur_pulse1++;
 800277e:	4a5d      	ldr	r2, [pc, #372]	; (80028f4 <HAL_TIM_OC_DelayElapsedCallback+0xa94>)
 8002780:	6813      	ldr	r3, [r2, #0]
 8002782:	3301      	adds	r3, #1
 8002784:	6013      	str	r3, [r2, #0]
			if(foc_cut[0]<-100){
 8002786:	4b4b      	ldr	r3, [pc, #300]	; (80028b4 <HAL_TIM_OC_DelayElapsedCallback+0xa54>)
 8002788:	6819      	ldr	r1, [r3, #0]
 800278a:	f111 0f64 	cmn.w	r1, #100	; 0x64
 800278e:	f6bf abab 	bge.w	8001ee8 <HAL_TIM_OC_DelayElapsedCallback+0x88>
				step1_foc--;
 8002792:	4b57      	ldr	r3, [pc, #348]	; (80028f0 <HAL_TIM_OC_DelayElapsedCallback+0xa90>)
 8002794:	681b      	ldr	r3, [r3, #0]
 8002796:	3b01      	subs	r3, #1
				if(step1_foc<(10000/(foc_cut[0]))){
 8002798:	f242 7210 	movw	r2, #10000	; 0x2710
 800279c:	fb92 f2f1 	sdiv	r2, r2, r1
 80027a0:	4293      	cmp	r3, r2
 80027a2:	db03      	blt.n	80027ac <HAL_TIM_OC_DelayElapsedCallback+0x94c>
				step1_foc--;
 80027a4:	4a52      	ldr	r2, [pc, #328]	; (80028f0 <HAL_TIM_OC_DelayElapsedCallback+0xa90>)
 80027a6:	6013      	str	r3, [r2, #0]
 80027a8:	f7ff bb9e 	b.w	8001ee8 <HAL_TIM_OC_DelayElapsedCallback+0x88>
					step1_foc=0;
 80027ac:	2500      	movs	r5, #0
 80027ae:	4b50      	ldr	r3, [pc, #320]	; (80028f0 <HAL_TIM_OC_DelayElapsedCallback+0xa90>)
 80027b0:	601d      	str	r5, [r3, #0]
					HAL_GPIO_WritePin(STEP1_DIR_GPIO_Port,STEP1_DIR_Pin,GPIO_PIN_SET);
 80027b2:	4c4d      	ldr	r4, [pc, #308]	; (80028e8 <HAL_TIM_OC_DelayElapsedCallback+0xa88>)
 80027b4:	2201      	movs	r2, #1
 80027b6:	2180      	movs	r1, #128	; 0x80
 80027b8:	4620      	mov	r0, r4
 80027ba:	f003 fc89 	bl	80060d0 <HAL_GPIO_WritePin>
					HAL_GPIO_WritePin(STEP1_PUL_GPIO_Port,STEP1_PUL_Pin,GPIO_PIN_RESET);
 80027be:	462a      	mov	r2, r5
 80027c0:	f44f 7180 	mov.w	r1, #256	; 0x100
 80027c4:	4620      	mov	r0, r4
 80027c6:	f003 fc83 	bl	80060d0 <HAL_GPIO_WritePin>
					cur_pulse1--;
 80027ca:	4a4a      	ldr	r2, [pc, #296]	; (80028f4 <HAL_TIM_OC_DelayElapsedCallback+0xa94>)
 80027cc:	6813      	ldr	r3, [r2, #0]
 80027ce:	3b01      	subs	r3, #1
 80027d0:	6013      	str	r3, [r2, #0]
 80027d2:	f7ff bb89 	b.w	8001ee8 <HAL_TIM_OC_DelayElapsedCallback+0x88>
					step2_foc=0;
 80027d6:	2400      	movs	r4, #0
 80027d8:	4b47      	ldr	r3, [pc, #284]	; (80028f8 <HAL_TIM_OC_DelayElapsedCallback+0xa98>)
 80027da:	601c      	str	r4, [r3, #0]
					HAL_GPIO_WritePin(STEP2_DIR_GPIO_Port,STEP2_DIR_Pin,GPIO_PIN_RESET);
 80027dc:	4d42      	ldr	r5, [pc, #264]	; (80028e8 <HAL_TIM_OC_DelayElapsedCallback+0xa88>)
 80027de:	4622      	mov	r2, r4
 80027e0:	f44f 7100 	mov.w	r1, #512	; 0x200
 80027e4:	4628      	mov	r0, r5
 80027e6:	f003 fc73 	bl	80060d0 <HAL_GPIO_WritePin>
					HAL_GPIO_WritePin(STEP2_PUL_GPIO_Port,STEP2_PUL_Pin,GPIO_PIN_RESET);
 80027ea:	4622      	mov	r2, r4
 80027ec:	f44f 6180 	mov.w	r1, #1024	; 0x400
 80027f0:	4628      	mov	r0, r5
 80027f2:	f003 fc6d 	bl	80060d0 <HAL_GPIO_WritePin>
					cur_pulse2++;
 80027f6:	4a31      	ldr	r2, [pc, #196]	; (80028bc <HAL_TIM_OC_DelayElapsedCallback+0xa5c>)
 80027f8:	6813      	ldr	r3, [r2, #0]
 80027fa:	3301      	adds	r3, #1
 80027fc:	6013      	str	r3, [r2, #0]
			if(foc_cut[1]<-100){
 80027fe:	4b2d      	ldr	r3, [pc, #180]	; (80028b4 <HAL_TIM_OC_DelayElapsedCallback+0xa54>)
 8002800:	6859      	ldr	r1, [r3, #4]
 8002802:	f111 0f64 	cmn.w	r1, #100	; 0x64
 8002806:	f6bf ab80 	bge.w	8001f0a <HAL_TIM_OC_DelayElapsedCallback+0xaa>
				step2_foc--;
 800280a:	4b3b      	ldr	r3, [pc, #236]	; (80028f8 <HAL_TIM_OC_DelayElapsedCallback+0xa98>)
 800280c:	681b      	ldr	r3, [r3, #0]
 800280e:	3b01      	subs	r3, #1
				if(step2_foc<(20000/(foc_cut[1]))){
 8002810:	f644 6220 	movw	r2, #20000	; 0x4e20
 8002814:	fb92 f2f1 	sdiv	r2, r2, r1
 8002818:	4293      	cmp	r3, r2
 800281a:	db03      	blt.n	8002824 <HAL_TIM_OC_DelayElapsedCallback+0x9c4>
				step2_foc--;
 800281c:	4a36      	ldr	r2, [pc, #216]	; (80028f8 <HAL_TIM_OC_DelayElapsedCallback+0xa98>)
 800281e:	6013      	str	r3, [r2, #0]
 8002820:	f7ff bb73 	b.w	8001f0a <HAL_TIM_OC_DelayElapsedCallback+0xaa>
					step2_foc=0;
 8002824:	2500      	movs	r5, #0
 8002826:	4b34      	ldr	r3, [pc, #208]	; (80028f8 <HAL_TIM_OC_DelayElapsedCallback+0xa98>)
 8002828:	601d      	str	r5, [r3, #0]
					HAL_GPIO_WritePin(STEP2_DIR_GPIO_Port,STEP2_DIR_Pin,GPIO_PIN_SET);
 800282a:	4c2f      	ldr	r4, [pc, #188]	; (80028e8 <HAL_TIM_OC_DelayElapsedCallback+0xa88>)
 800282c:	2201      	movs	r2, #1
 800282e:	f44f 7100 	mov.w	r1, #512	; 0x200
 8002832:	4620      	mov	r0, r4
 8002834:	f003 fc4c 	bl	80060d0 <HAL_GPIO_WritePin>
					HAL_GPIO_WritePin(STEP2_PUL_GPIO_Port,STEP2_PUL_Pin,GPIO_PIN_RESET);
 8002838:	462a      	mov	r2, r5
 800283a:	f44f 6180 	mov.w	r1, #1024	; 0x400
 800283e:	4620      	mov	r0, r4
 8002840:	f003 fc46 	bl	80060d0 <HAL_GPIO_WritePin>
					cur_pulse2--;
 8002844:	4a1d      	ldr	r2, [pc, #116]	; (80028bc <HAL_TIM_OC_DelayElapsedCallback+0xa5c>)
 8002846:	6813      	ldr	r3, [r2, #0]
 8002848:	3b01      	subs	r3, #1
 800284a:	6013      	str	r3, [r2, #0]
 800284c:	f7ff bb5d 	b.w	8001f0a <HAL_TIM_OC_DelayElapsedCallback+0xaa>
					step3_foc=0;
 8002850:	2500      	movs	r5, #0
 8002852:	4b2a      	ldr	r3, [pc, #168]	; (80028fc <HAL_TIM_OC_DelayElapsedCallback+0xa9c>)
 8002854:	601d      	str	r5, [r3, #0]
					HAL_GPIO_WritePin(STEP3_DIR_GPIO_Port,STEP3_DIR_Pin,GPIO_PIN_SET);
 8002856:	4c24      	ldr	r4, [pc, #144]	; (80028e8 <HAL_TIM_OC_DelayElapsedCallback+0xa88>)
 8002858:	2201      	movs	r2, #1
 800285a:	f44f 6100 	mov.w	r1, #2048	; 0x800
 800285e:	4620      	mov	r0, r4
 8002860:	f003 fc36 	bl	80060d0 <HAL_GPIO_WritePin>
					HAL_GPIO_WritePin(STEP3_PUL_GPIO_Port,STEP3_PUL_Pin,GPIO_PIN_RESET);
 8002864:	462a      	mov	r2, r5
 8002866:	f44f 5180 	mov.w	r1, #4096	; 0x1000
 800286a:	4620      	mov	r0, r4
 800286c:	f003 fc30 	bl	80060d0 <HAL_GPIO_WritePin>
					cur_pulse3++;
 8002870:	4a15      	ldr	r2, [pc, #84]	; (80028c8 <HAL_TIM_OC_DelayElapsedCallback+0xa68>)
 8002872:	6813      	ldr	r3, [r2, #0]
 8002874:	3301      	adds	r3, #1
 8002876:	6013      	str	r3, [r2, #0]
			if(foc_cut[2]<-100){
 8002878:	4b0e      	ldr	r3, [pc, #56]	; (80028b4 <HAL_TIM_OC_DelayElapsedCallback+0xa54>)
 800287a:	6899      	ldr	r1, [r3, #8]
 800287c:	f111 0f64 	cmn.w	r1, #100	; 0x64
 8002880:	f6bf ab54 	bge.w	8001f2c <HAL_TIM_OC_DelayElapsedCallback+0xcc>
				step3_foc--;
 8002884:	4b1d      	ldr	r3, [pc, #116]	; (80028fc <HAL_TIM_OC_DelayElapsedCallback+0xa9c>)
 8002886:	681b      	ldr	r3, [r3, #0]
 8002888:	3b01      	subs	r3, #1
				if(step3_foc<(10000/(foc_cut[2]))){
 800288a:	f242 7210 	movw	r2, #10000	; 0x2710
 800288e:	fb92 f2f1 	sdiv	r2, r2, r1
 8002892:	4293      	cmp	r3, r2
 8002894:	db34      	blt.n	8002900 <HAL_TIM_OC_DelayElapsedCallback+0xaa0>
				step3_foc--;
 8002896:	4a19      	ldr	r2, [pc, #100]	; (80028fc <HAL_TIM_OC_DelayElapsedCallback+0xa9c>)
 8002898:	6013      	str	r3, [r2, #0]
 800289a:	f7ff bb47 	b.w	8001f2c <HAL_TIM_OC_DelayElapsedCallback+0xcc>
 800289e:	bf00      	nop
 80028a0:	20002ea0 	.word	0x20002ea0
 80028a4:	20000000 	.word	0x20000000
 80028a8:	20002be4 	.word	0x20002be4
 80028ac:	20002eb4 	.word	0x20002eb4
 80028b0:	20002eac 	.word	0x20002eac
 80028b4:	20003288 	.word	0x20003288
 80028b8:	20002af8 	.word	0x20002af8
 80028bc:	20002bcc 	.word	0x20002bcc
 80028c0:	20002ec0 	.word	0x20002ec0
 80028c4:	20002eb8 	.word	0x20002eb8
 80028c8:	20002bd0 	.word	0x20002bd0
 80028cc:	20002ed0 	.word	0x20002ed0
 80028d0:	20002ec4 	.word	0x20002ec4
 80028d4:	20002bd4 	.word	0x20002bd4
 80028d8:	20002edc 	.word	0x20002edc
 80028dc:	20002ed4 	.word	0x20002ed4
 80028e0:	20002ecc 	.word	0x20002ecc
 80028e4:	20002bd8 	.word	0x20002bd8
 80028e8:	40021000 	.word	0x40021000
 80028ec:	40020400 	.word	0x40020400
 80028f0:	20002ea4 	.word	0x20002ea4
 80028f4:	20002bc8 	.word	0x20002bc8
 80028f8:	20002eb0 	.word	0x20002eb0
 80028fc:	20002ebc 	.word	0x20002ebc
					step3_foc=0;
 8002900:	2400      	movs	r4, #0
 8002902:	4bbe      	ldr	r3, [pc, #760]	; (8002bfc <HAL_TIM_OC_DelayElapsedCallback+0xd9c>)
 8002904:	601c      	str	r4, [r3, #0]
					HAL_GPIO_WritePin(STEP3_DIR_GPIO_Port,STEP3_DIR_Pin,GPIO_PIN_RESET);
 8002906:	4dbe      	ldr	r5, [pc, #760]	; (8002c00 <HAL_TIM_OC_DelayElapsedCallback+0xda0>)
 8002908:	4622      	mov	r2, r4
 800290a:	f44f 6100 	mov.w	r1, #2048	; 0x800
 800290e:	4628      	mov	r0, r5
 8002910:	f003 fbde 	bl	80060d0 <HAL_GPIO_WritePin>
					HAL_GPIO_WritePin(STEP3_PUL_GPIO_Port,STEP3_PUL_Pin,GPIO_PIN_RESET);
 8002914:	4622      	mov	r2, r4
 8002916:	f44f 5180 	mov.w	r1, #4096	; 0x1000
 800291a:	4628      	mov	r0, r5
 800291c:	f003 fbd8 	bl	80060d0 <HAL_GPIO_WritePin>
					cur_pulse3--;
 8002920:	4ab8      	ldr	r2, [pc, #736]	; (8002c04 <HAL_TIM_OC_DelayElapsedCallback+0xda4>)
 8002922:	6813      	ldr	r3, [r2, #0]
 8002924:	3b01      	subs	r3, #1
 8002926:	6013      	str	r3, [r2, #0]
 8002928:	f7ff bb00 	b.w	8001f2c <HAL_TIM_OC_DelayElapsedCallback+0xcc>
					step4_foc=0;
 800292c:	2400      	movs	r4, #0
 800292e:	4bb6      	ldr	r3, [pc, #728]	; (8002c08 <HAL_TIM_OC_DelayElapsedCallback+0xda8>)
 8002930:	601c      	str	r4, [r3, #0]
					HAL_GPIO_WritePin(STEP4_DIR_GPIO_Port,STEP4_DIR_Pin,GPIO_PIN_RESET);
 8002932:	4db3      	ldr	r5, [pc, #716]	; (8002c00 <HAL_TIM_OC_DelayElapsedCallback+0xda0>)
 8002934:	4622      	mov	r2, r4
 8002936:	f44f 5100 	mov.w	r1, #8192	; 0x2000
 800293a:	4628      	mov	r0, r5
 800293c:	f003 fbc8 	bl	80060d0 <HAL_GPIO_WritePin>
					HAL_GPIO_WritePin(STEP4_PUL_GPIO_Port,STEP4_PUL_Pin,GPIO_PIN_SET);
 8002940:	2201      	movs	r2, #1
 8002942:	f44f 4180 	mov.w	r1, #16384	; 0x4000
 8002946:	4628      	mov	r0, r5
 8002948:	f003 fbc2 	bl	80060d0 <HAL_GPIO_WritePin>
					cur_pulse4++;
 800294c:	4aaf      	ldr	r2, [pc, #700]	; (8002c0c <HAL_TIM_OC_DelayElapsedCallback+0xdac>)
 800294e:	6813      	ldr	r3, [r2, #0]
 8002950:	3301      	adds	r3, #1
 8002952:	6013      	str	r3, [r2, #0]
					HAL_GPIO_WritePin(STEP5_DIR_GPIO_Port,STEP5_DIR_Pin,GPIO_PIN_SET);
 8002954:	2201      	movs	r2, #1
 8002956:	f44f 4100 	mov.w	r1, #32768	; 0x8000
 800295a:	4628      	mov	r0, r5
 800295c:	f003 fbb8 	bl	80060d0 <HAL_GPIO_WritePin>
					HAL_GPIO_WritePin(STEP5_PUL_GPIO_Port,STEP5_PUL_Pin,GPIO_PIN_RESET);
 8002960:	4622      	mov	r2, r4
 8002962:	f44f 6180 	mov.w	r1, #1024	; 0x400
 8002966:	48aa      	ldr	r0, [pc, #680]	; (8002c10 <HAL_TIM_OC_DelayElapsedCallback+0xdb0>)
 8002968:	f003 fbb2 	bl	80060d0 <HAL_GPIO_WritePin>
			if(foc_cut[3]<-100){
 800296c:	4ba9      	ldr	r3, [pc, #676]	; (8002c14 <HAL_TIM_OC_DelayElapsedCallback+0xdb4>)
 800296e:	68d9      	ldr	r1, [r3, #12]
 8002970:	f111 0f64 	cmn.w	r1, #100	; 0x64
 8002974:	f6bf aaeb 	bge.w	8001f4e <HAL_TIM_OC_DelayElapsedCallback+0xee>
				step4_foc--;
 8002978:	4ba3      	ldr	r3, [pc, #652]	; (8002c08 <HAL_TIM_OC_DelayElapsedCallback+0xda8>)
 800297a:	681b      	ldr	r3, [r3, #0]
 800297c:	3b01      	subs	r3, #1
				if(step4_foc<(10000/(foc_cut[3]))){
 800297e:	f242 7210 	movw	r2, #10000	; 0x2710
 8002982:	fb92 f2f1 	sdiv	r2, r2, r1
 8002986:	4293      	cmp	r3, r2
 8002988:	db03      	blt.n	8002992 <HAL_TIM_OC_DelayElapsedCallback+0xb32>
				step4_foc--;
 800298a:	4a9f      	ldr	r2, [pc, #636]	; (8002c08 <HAL_TIM_OC_DelayElapsedCallback+0xda8>)
 800298c:	6013      	str	r3, [r2, #0]
 800298e:	f7ff bade 	b.w	8001f4e <HAL_TIM_OC_DelayElapsedCallback+0xee>
					step4_foc=0;
 8002992:	2400      	movs	r4, #0
 8002994:	4b9c      	ldr	r3, [pc, #624]	; (8002c08 <HAL_TIM_OC_DelayElapsedCallback+0xda8>)
 8002996:	601c      	str	r4, [r3, #0]
					HAL_GPIO_WritePin(STEP4_DIR_GPIO_Port,STEP4_DIR_Pin,GPIO_PIN_SET);
 8002998:	4d99      	ldr	r5, [pc, #612]	; (8002c00 <HAL_TIM_OC_DelayElapsedCallback+0xda0>)
 800299a:	2201      	movs	r2, #1
 800299c:	f44f 5100 	mov.w	r1, #8192	; 0x2000
 80029a0:	4628      	mov	r0, r5
 80029a2:	f003 fb95 	bl	80060d0 <HAL_GPIO_WritePin>
					HAL_GPIO_WritePin(STEP4_PUL_GPIO_Port,STEP4_PUL_Pin,GPIO_PIN_SET);
 80029a6:	2201      	movs	r2, #1
 80029a8:	f44f 4180 	mov.w	r1, #16384	; 0x4000
 80029ac:	4628      	mov	r0, r5
 80029ae:	f003 fb8f 	bl	80060d0 <HAL_GPIO_WritePin>
					cur_pulse4--;
 80029b2:	4a96      	ldr	r2, [pc, #600]	; (8002c0c <HAL_TIM_OC_DelayElapsedCallback+0xdac>)
 80029b4:	6813      	ldr	r3, [r2, #0]
 80029b6:	3b01      	subs	r3, #1
 80029b8:	6013      	str	r3, [r2, #0]
					HAL_GPIO_WritePin(STEP5_DIR_GPIO_Port,STEP5_DIR_Pin,GPIO_PIN_RESET);
 80029ba:	4622      	mov	r2, r4
 80029bc:	f44f 4100 	mov.w	r1, #32768	; 0x8000
 80029c0:	4628      	mov	r0, r5
 80029c2:	f003 fb85 	bl	80060d0 <HAL_GPIO_WritePin>
					HAL_GPIO_WritePin(STEP5_PUL_GPIO_Port,STEP5_PUL_Pin,GPIO_PIN_RESET);
 80029c6:	4622      	mov	r2, r4
 80029c8:	f44f 6180 	mov.w	r1, #1024	; 0x400
 80029cc:	4890      	ldr	r0, [pc, #576]	; (8002c10 <HAL_TIM_OC_DelayElapsedCallback+0xdb0>)
 80029ce:	f003 fb7f 	bl	80060d0 <HAL_GPIO_WritePin>
 80029d2:	f7ff babc 	b.w	8001f4e <HAL_TIM_OC_DelayElapsedCallback+0xee>
					step5_foc=0;
 80029d6:	2400      	movs	r4, #0
 80029d8:	4b8f      	ldr	r3, [pc, #572]	; (8002c18 <HAL_TIM_OC_DelayElapsedCallback+0xdb8>)
 80029da:	601c      	str	r4, [r3, #0]
					HAL_GPIO_WritePin(STEP5_DIR_GPIO_Port,STEP5_DIR_Pin,GPIO_PIN_RESET);
 80029dc:	4622      	mov	r2, r4
 80029de:	f44f 4100 	mov.w	r1, #32768	; 0x8000
 80029e2:	4887      	ldr	r0, [pc, #540]	; (8002c00 <HAL_TIM_OC_DelayElapsedCallback+0xda0>)
 80029e4:	f003 fb74 	bl	80060d0 <HAL_GPIO_WritePin>
